{"abi":[{"inputs":[{"internalType":"uint256","name":"minimum","type":"uint256"},{"internalType":"address","name":"creator","type":"address"}],"stateMutability":"nonpayable","type":"constructor"},{"inputs":[{"internalType":"uint256","name":"index","type":"uint256"}],"name":"approveRequest","outputs":[],"stateMutability":"nonpayable","type":"function"},{"inputs":[{"internalType":"address","name":"","type":"address"}],"name":"approvers","outputs":[{"internalType":"bool","name":"","type":"bool"}],"stateMutability":"view","type":"function"},{"inputs":[],"name":"approversCount","outputs":[{"internalType":"uint256","name":"","type":"uint256"}],"stateMutability":"view","type":"function"},{"inputs":[],"name":"contribute","outputs":[],"stateMutability":"payable","type":"function"},{"inputs":[{"internalType":"string","name":"description","type":"string"},{"internalType":"uint256","name":"value","type":"uint256"},{"internalType":"address","name":"recipient","type":"address"}],"name":"createRequest","outputs":[],"stateMutability":"nonpayable","type":"function"},{"inputs":[{"internalType":"uint256","name":"index","type":"uint256"}],"name":"finalizeRequest","outputs":[],"stateMutability":"nonpayable","type":"function"},{"inputs":[],"name":"getRequestsCount","outputs":[{"internalType":"uint256","name":"","type":"uint256"}],"stateMutability":"view","type":"function"},{"inputs":[],"name":"getSummary","outputs":[{"internalType":"uint256","name":"","type":"uint256"},{"internalType":"uint256","name":"","type":"uint256"},{"internalType":"uint256","name":"","type":"uint256"},{"internalType":"uint256","name":"","type":"uint256"},{"internalType":"address","name":"","type":"address"}],"stateMutability":"view","type":"function"},{"inputs":[],"name":"manager","outputs":[{"internalType":"address","name":"","type":"address"}],"stateMutability":"view","type":"function"},{"inputs":[],"name":"minimumContribution","outputs":[{"internalType":"uint256","name":"","type":"uint256"}],"stateMutability":"view","type":"function"},{"inputs":[{"internalType":"uint256","name":"","type":"uint256"}],"name":"requests","outputs":[{"internalType":"string","name":"description","type":"string"},{"internalType":"uint256","name":"value","type":"uint256"},{"internalType":"address","name":"recipient","type":"address"},{"internalType":"bool","name":"complete","type":"bool"},{"internalType":"uint256","name":"approvalCount","type":"uint256"}],"stateMutability":"view","type":"function"}],"devdoc":{"kind":"dev","methods":{},"version":1},"evm":{"assembly":"    /* \"Campaign.sol\":445:2626  contract Campaign {... */\n  mstore(0x40, 0x80)\n    /* \"Campaign.sol\":953:1073  constructor (uint minimum, address creator) {... */\n  callvalue\n  dup1\n  iszero\n  tag_1\n  jumpi\n  0x00\n  dup1\n  revert\ntag_1:\n  pop\n  mload(0x40)\n  sub(codesize, bytecodeSize)\n  dup1\n  bytecodeSize\n  dup4\n  codecopy\n  dup2\n  dup2\n  add\n  0x40\n  mstore\n  dup2\n  add\n  swap1\n  tag_2\n  swap2\n  swap1\n  tag_3\n  jump\t// in\ntag_2:\n    /* \"Campaign.sol\":1018:1025  creator */\n  dup1\n    /* \"Campaign.sol\":1008:1015  manager */\n  0x01\n  0x00\n    /* \"Campaign.sol\":1008:1025  manager = creator */\n  0x0100\n  exp\n  dup2\n  sload\n  dup2\n  0xffffffffffffffffffffffffffffffffffffffff\n  mul\n  not\n  and\n  swap1\n  dup4\n  0xffffffffffffffffffffffffffffffffffffffff\n  and\n  mul\n  or\n  swap1\n  sstore\n  pop\n    /* \"Campaign.sol\":1058:1065  minimum */\n  dup2\n    /* \"Campaign.sol\":1036:1055  minimumContribution */\n  0x02\n    /* \"Campaign.sol\":1036:1065  minimumContribution = minimum */\n  dup2\n  swap1\n  sstore\n  pop\n    /* \"Campaign.sol\":953:1073  constructor (uint minimum, address creator) {... */\n  pop\n  pop\n    /* \"Campaign.sol\":445:2626  contract Campaign {... */\n  jump(tag_6)\n    /* \"#utility.yul\":88:205   */\ntag_8:\n    /* \"#utility.yul\":197:198   */\n  0x00\n    /* \"#utility.yul\":194:195   */\n  dup1\n    /* \"#utility.yul\":187:199   */\n  revert\n    /* \"#utility.yul\":334:411   */\ntag_10:\n    /* \"#utility.yul\":371:378   */\n  0x00\n    /* \"#utility.yul\":400:405   */\n  dup2\n    /* \"#utility.yul\":389:405   */\n  swap1\n  pop\n    /* \"#utility.yul\":334:411   */\n  swap2\n  swap1\n  pop\n  jump\t// out\n    /* \"#utility.yul\":417:539   */\ntag_11:\n    /* \"#utility.yul\":490:514   */\n  tag_23\n    /* \"#utility.yul\":508:513   */\n  dup2\n    /* \"#utility.yul\":490:514   */\n  tag_10\n  jump\t// in\ntag_23:\n    /* \"#utility.yul\":483:488   */\n  dup2\n    /* \"#utility.yul\":480:515   */\n  eq\n    /* \"#utility.yul\":470:533   */\n  tag_24\n  jumpi\n    /* \"#utility.yul\":529:530   */\n  0x00\n    /* \"#utility.yul\":526:527   */\n  dup1\n    /* \"#utility.yul\":519:531   */\n  revert\n    /* \"#utility.yul\":470:533   */\ntag_24:\n    /* \"#utility.yul\":417:539   */\n  pop\n  jump\t// out\n    /* \"#utility.yul\":545:688   */\ntag_12:\n    /* \"#utility.yul\":602:607   */\n  0x00\n    /* \"#utility.yul\":633:639   */\n  dup2\n    /* \"#utility.yul\":627:640   */\n  mload\n    /* \"#utility.yul\":618:640   */\n  swap1\n  pop\n    /* \"#utility.yul\":649:682   */\n  tag_26\n    /* \"#utility.yul\":676:681   */\n  dup2\n    /* \"#utility.yul\":649:682   */\n  tag_11\n  jump\t// in\ntag_26:\n    /* \"#utility.yul\":545:688   */\n  swap3\n  swap2\n  pop\n  pop\n  jump\t// out\n    /* \"#utility.yul\":694:820   */\ntag_13:\n    /* \"#utility.yul\":731:738   */\n  0x00\n    /* \"#utility.yul\":771:813   */\n  0xffffffffffffffffffffffffffffffffffffffff\n    /* \"#utility.yul\":764:769   */\n  dup3\n    /* \"#utility.yul\":760:814   */\n  and\n    /* \"#utility.yul\":749:814   */\n  swap1\n  pop\n    /* \"#utility.yul\":694:820   */\n  swap2\n  swap1\n  pop\n  jump\t// out\n    /* \"#utility.yul\":826:922   */\ntag_14:\n    /* \"#utility.yul\":863:870   */\n  0x00\n    /* \"#utility.yul\":892:916   */\n  tag_29\n    /* \"#utility.yul\":910:915   */\n  dup3\n    /* \"#utility.yul\":892:916   */\n  tag_13\n  jump\t// in\ntag_29:\n    /* \"#utility.yul\":881:916   */\n  swap1\n  pop\n    /* \"#utility.yul\":826:922   */\n  swap2\n  swap1\n  pop\n  jump\t// out\n    /* \"#utility.yul\":928:1050   */\ntag_15:\n    /* \"#utility.yul\":1001:1025   */\n  tag_31\n    /* \"#utility.yul\":1019:1024   */\n  dup2\n    /* \"#utility.yul\":1001:1025   */\n  tag_14\n  jump\t// in\ntag_31:\n    /* \"#utility.yul\":994:999   */\n  dup2\n    /* \"#utility.yul\":991:1026   */\n  eq\n    /* \"#utility.yul\":981:1044   */\n  tag_32\n  jumpi\n    /* \"#utility.yul\":1040:1041   */\n  0x00\n    /* \"#utility.yul\":1037:1038   */\n  dup1\n    /* \"#utility.yul\":1030:1042   */\n  revert\n    /* \"#utility.yul\":981:1044   */\ntag_32:\n    /* \"#utility.yul\":928:1050   */\n  pop\n  jump\t// out\n    /* \"#utility.yul\":1056:1199   */\ntag_16:\n    /* \"#utility.yul\":1113:1118   */\n  0x00\n    /* \"#utility.yul\":1144:1150   */\n  dup2\n    /* \"#utility.yul\":1138:1151   */\n  mload\n    /* \"#utility.yul\":1129:1151   */\n  swap1\n  pop\n    /* \"#utility.yul\":1160:1193   */\n  tag_34\n    /* \"#utility.yul\":1187:1192   */\n  dup2\n    /* \"#utility.yul\":1160:1193   */\n  tag_15\n  jump\t// in\ntag_34:\n    /* \"#utility.yul\":1056:1199   */\n  swap3\n  swap2\n  pop\n  pop\n  jump\t// out\n    /* \"#utility.yul\":1205:1712   */\ntag_3:\n    /* \"#utility.yul\":1284:1290   */\n  0x00\n    /* \"#utility.yul\":1292:1298   */\n  dup1\n    /* \"#utility.yul\":1341:1343   */\n  0x40\n    /* \"#utility.yul\":1329:1338   */\n  dup4\n    /* \"#utility.yul\":1320:1327   */\n  dup6\n    /* \"#utility.yul\":1316:1339   */\n  sub\n    /* \"#utility.yul\":1312:1344   */\n  slt\n    /* \"#utility.yul\":1309:1428   */\n  iszero\n  tag_36\n  jumpi\n    /* \"#utility.yul\":1347:1426   */\n  tag_37\n  tag_8\n  jump\t// in\ntag_37:\n    /* \"#utility.yul\":1309:1428   */\ntag_36:\n    /* \"#utility.yul\":1467:1468   */\n  0x00\n    /* \"#utility.yul\":1492:1556   */\n  tag_38\n    /* \"#utility.yul\":1548:1555   */\n  dup6\n    /* \"#utility.yul\":1539:1545   */\n  dup3\n    /* \"#utility.yul\":1528:1537   */\n  dup7\n    /* \"#utility.yul\":1524:1546   */\n  add\n    /* \"#utility.yul\":1492:1556   */\n  tag_12\n  jump\t// in\ntag_38:\n    /* \"#utility.yul\":1482:1556   */\n  swap3\n  pop\n    /* \"#utility.yul\":1438:1566   */\n  pop\n    /* \"#utility.yul\":1605:1607   */\n  0x20\n    /* \"#utility.yul\":1631:1695   */\n  tag_39\n    /* \"#utility.yul\":1687:1694   */\n  dup6\n    /* \"#utility.yul\":1678:1684   */\n  dup3\n    /* \"#utility.yul\":1667:1676   */\n  dup7\n    /* \"#utility.yul\":1663:1685   */\n  add\n    /* \"#utility.yul\":1631:1695   */\n  tag_16\n  jump\t// in\ntag_39:\n    /* \"#utility.yul\":1621:1695   */\n  swap2\n  pop\n    /* \"#utility.yul\":1576:1705   */\n  pop\n    /* \"#utility.yul\":1205:1712   */\n  swap3\n  pop\n  swap3\n  swap1\n  pop\n  jump\t// out\n    /* \"Campaign.sol\":445:2626  contract Campaign {... */\ntag_6:\n  dataSize(sub_0)\n  dup1\n  dataOffset(sub_0)\n  0x00\n  codecopy\n  0x00\n  return\nstop\n\nsub_0: assembly {\n        /* \"Campaign.sol\":445:2626  contract Campaign {... */\n      mstore(0x40, 0x80)\n      jumpi(tag_1, lt(calldatasize, 0x04))\n      shr(0xe0, calldataload(0x00))\n      dup1\n      0x81d12c58\n      gt\n      tag_13\n      jumpi\n      dup1\n      0x81d12c58\n      eq\n      tag_7\n      jumpi\n      dup1\n      0x82fde093\n      eq\n      tag_8\n      jumpi\n      dup1\n      0x8a9cfd55\n      eq\n      tag_9\n      jumpi\n      dup1\n      0x937e09b1\n      eq\n      tag_10\n      jumpi\n      dup1\n      0xd7bb99ba\n      eq\n      tag_11\n      jumpi\n      dup1\n      0xd7d1bbdb\n      eq\n      tag_12\n      jumpi\n      jump(tag_1)\n    tag_13:\n      dup1\n      0x03441006\n      eq\n      tag_2\n      jumpi\n      dup1\n      0x0a144391\n      eq\n      tag_3\n      jumpi\n      dup1\n      0x3410452a\n      eq\n      tag_4\n      jumpi\n      dup1\n      0x4051ddac\n      eq\n      tag_5\n      jumpi\n      dup1\n      0x481c6a75\n      eq\n      tag_6\n      jumpi\n    tag_1:\n      0x00\n      dup1\n      revert\n        /* \"Campaign.sol\":1916:2233  function finalizeRequest(uint index) public restricted {... */\n    tag_2:\n      callvalue\n      dup1\n      iszero\n      tag_14\n      jumpi\n      0x00\n      dup1\n      revert\n    tag_14:\n      pop\n      tag_15\n      0x04\n      dup1\n      calldatasize\n      sub\n      dup2\n      add\n      swap1\n      tag_16\n      swap2\n      swap1\n      tag_17\n      jump\t// in\n    tag_16:\n      tag_18\n      jump\t// in\n    tag_15:\n      stop\n        /* \"Campaign.sol\":777:818  mapping(address => bool) public approvers */\n    tag_3:\n      callvalue\n      dup1\n      iszero\n      tag_19\n      jumpi\n      0x00\n      dup1\n      revert\n    tag_19:\n      pop\n      tag_20\n      0x04\n      dup1\n      calldatasize\n      sub\n      dup2\n      add\n      swap1\n      tag_21\n      swap2\n      swap1\n      tag_22\n      jump\t// in\n    tag_21:\n      tag_23\n      jump\t// in\n    tag_20:\n      mload(0x40)\n      tag_24\n      swap2\n      swap1\n      tag_25\n      jump\t// in\n    tag_24:\n      mload(0x40)\n      dup1\n      swap2\n      sub\n      swap1\n      return\n        /* \"Campaign.sol\":2527:2623  function getRequestsCount() public view returns (uint) {... */\n    tag_4:\n      callvalue\n      dup1\n      iszero\n      tag_26\n      jumpi\n      0x00\n      dup1\n      revert\n    tag_26:\n      pop\n      tag_27\n      tag_28\n      jump\t// in\n    tag_27:\n      mload(0x40)\n      tag_29\n      swap2\n      swap1\n      tag_30\n      jump\t// in\n    tag_29:\n      mload(0x40)\n      dup1\n      swap2\n      sub\n      swap1\n      return\n        /* \"Campaign.sol\":2245:2515  function getSummary() public view returns (... */\n    tag_5:\n      callvalue\n      dup1\n      iszero\n      tag_31\n      jumpi\n      0x00\n      dup1\n      revert\n    tag_31:\n      pop\n      tag_32\n      tag_33\n      jump\t// in\n    tag_32:\n      mload(0x40)\n      tag_34\n      swap6\n      swap5\n      swap4\n      swap3\n      swap2\n      swap1\n      tag_35\n      jump\t// in\n    tag_34:\n      mload(0x40)\n      dup1\n      swap2\n      sub\n      swap1\n      return\n        /* \"Campaign.sol\":710:732  address public manager */\n    tag_6:\n      callvalue\n      dup1\n      iszero\n      tag_36\n      jumpi\n      0x00\n      dup1\n      revert\n    tag_36:\n      pop\n      tag_37\n      tag_38\n      jump\t// in\n    tag_37:\n      mload(0x40)\n      tag_39\n      swap2\n      swap1\n      tag_40\n      jump\t// in\n    tag_39:\n      mload(0x40)\n      dup1\n      swap2\n      sub\n      swap1\n      return\n        /* \"Campaign.sol\":678:703  Request[] public requests */\n    tag_7:\n      callvalue\n      dup1\n      iszero\n      tag_41\n      jumpi\n      0x00\n      dup1\n      revert\n    tag_41:\n      pop\n      tag_42\n      0x04\n      dup1\n      calldatasize\n      sub\n      dup2\n      add\n      swap1\n      tag_43\n      swap2\n      swap1\n      tag_17\n      jump\t// in\n    tag_43:\n      tag_44\n      jump\t// in\n    tag_42:\n      mload(0x40)\n      tag_45\n      swap6\n      swap5\n      swap4\n      swap3\n      swap2\n      swap1\n      tag_46\n      jump\t// in\n    tag_45:\n      mload(0x40)\n      dup1\n      swap2\n      sub\n      swap1\n      return\n        /* \"Campaign.sol\":825:851  uint public approversCount */\n    tag_8:\n      callvalue\n      dup1\n      iszero\n      tag_47\n      jumpi\n      0x00\n      dup1\n      revert\n    tag_47:\n      pop\n      tag_48\n      tag_49\n      jump\t// in\n    tag_48:\n      mload(0x40)\n      tag_50\n      swap2\n      swap1\n      tag_30\n      jump\t// in\n    tag_50:\n      mload(0x40)\n      dup1\n      swap2\n      sub\n      swap1\n      return\n        /* \"Campaign.sol\":1256:1617  function createRequest(string memory description, uint value, address recipient) public restricted {... */\n    tag_9:\n      callvalue\n      dup1\n      iszero\n      tag_51\n      jumpi\n      0x00\n      dup1\n      revert\n    tag_51:\n      pop\n      tag_52\n      0x04\n      dup1\n      calldatasize\n      sub\n      dup2\n      add\n      swap1\n      tag_53\n      swap2\n      swap1\n      tag_54\n      jump\t// in\n    tag_53:\n      tag_55\n      jump\t// in\n    tag_52:\n      stop\n        /* \"Campaign.sol\":739:770  uint public minimumContribution */\n    tag_10:\n      callvalue\n      dup1\n      iszero\n      tag_56\n      jumpi\n      0x00\n      dup1\n      revert\n    tag_56:\n      pop\n      tag_57\n      tag_58\n      jump\t// in\n    tag_57:\n      mload(0x40)\n      tag_59\n      swap2\n      swap1\n      tag_30\n      jump\t// in\n    tag_59:\n      mload(0x40)\n      dup1\n      swap2\n      sub\n      swap1\n      return\n        /* \"Campaign.sol\":1082:1247  function contribute() public payable {... */\n    tag_11:\n      tag_60\n      tag_61\n      jump\t// in\n    tag_60:\n      stop\n        /* \"Campaign.sol\":1626:1907  function approveRequest(uint index) public {... */\n    tag_12:\n      callvalue\n      dup1\n      iszero\n      tag_62\n      jumpi\n      0x00\n      dup1\n      revert\n    tag_62:\n      pop\n      tag_63\n      0x04\n      dup1\n      calldatasize\n      sub\n      dup2\n      add\n      swap1\n      tag_64\n      swap2\n      swap1\n      tag_17\n      jump\t// in\n    tag_64:\n      tag_65\n      jump\t// in\n    tag_63:\n      stop\n        /* \"Campaign.sol\":1916:2233  function finalizeRequest(uint index) public restricted {... */\n    tag_18:\n        /* \"Campaign.sol\":916:923  manager */\n      0x01\n      0x00\n      swap1\n      sload\n      swap1\n      0x0100\n      exp\n      swap1\n      div\n      0xffffffffffffffffffffffffffffffffffffffff\n      and\n        /* \"Campaign.sol\":902:923  msg.sender == manager */\n      0xffffffffffffffffffffffffffffffffffffffff\n      and\n        /* \"Campaign.sol\":902:912  msg.sender */\n      caller\n        /* \"Campaign.sol\":902:923  msg.sender == manager */\n      0xffffffffffffffffffffffffffffffffffffffff\n      and\n      eq\n        /* \"Campaign.sol\":894:924  require(msg.sender == manager) */\n      tag_67\n      jumpi\n      0x00\n      dup1\n      revert\n    tag_67:\n        /* \"Campaign.sol\":1982:2005  Request storage request */\n      0x00\n        /* \"Campaign.sol\":2008:2016  requests */\n      dup1\n        /* \"Campaign.sol\":2017:2022  index */\n      dup3\n        /* \"Campaign.sol\":2008:2023  requests[index] */\n      dup2\n      sload\n      dup2\n      lt\n      tag_69\n      jumpi\n      tag_70\n      tag_71\n      jump\t// in\n    tag_70:\n    tag_69:\n      swap1\n      0x00\n      mstore\n      keccak256(0x00, 0x20)\n      swap1\n      0x05\n      mul\n      add\n        /* \"Campaign.sol\":1982:2023  Request storage request = requests[index] */\n      swap1\n      pop\n        /* \"Campaign.sol\":2087:2088  2 */\n      0x02\n        /* \"Campaign.sol\":2070:2084  approversCount */\n      sload(0x04)\n        /* \"Campaign.sol\":2070:2088  approversCount / 2 */\n      tag_73\n      swap2\n      swap1\n      tag_74\n      jump\t// in\n    tag_73:\n        /* \"Campaign.sol\":2045:2052  request */\n      dup2\n        /* \"Campaign.sol\":2045:2066  request.approvalCount */\n      0x03\n      add\n      sload\n        /* \"Campaign.sol\":2045:2089  request.approvalCount > (approversCount / 2) */\n      gt\n        /* \"Campaign.sol\":2037:2090  require(request.approvalCount > (approversCount / 2)) */\n      tag_75\n      jumpi\n      0x00\n      dup1\n      revert\n    tag_75:\n        /* \"Campaign.sol\":2110:2117  request */\n      dup1\n        /* \"Campaign.sol\":2110:2126  request.complete */\n      0x02\n      add\n      0x14\n      swap1\n      sload\n      swap1\n      0x0100\n      exp\n      swap1\n      div\n      0xff\n      and\n        /* \"Campaign.sol\":2109:2126  !request.complete */\n      iszero\n        /* \"Campaign.sol\":2101:2127  require(!request.complete) */\n      tag_76\n      jumpi\n      0x00\n      dup1\n      revert\n    tag_76:\n        /* \"Campaign.sol\":2149:2156  request */\n      dup1\n        /* \"Campaign.sol\":2149:2166  request.recipient */\n      0x02\n      add\n      0x00\n      swap1\n      sload\n      swap1\n      0x0100\n      exp\n      swap1\n      div\n      0xffffffffffffffffffffffffffffffffffffffff\n      and\n        /* \"Campaign.sol\":2141:2176  payable(request.recipient).transfer */\n      0xffffffffffffffffffffffffffffffffffffffff\n      and\n        /* \"Campaign.sol\":2141:2191  payable(request.recipient).transfer(request.value) */\n      0x08fc\n        /* \"Campaign.sol\":2177:2184  request */\n      dup3\n        /* \"Campaign.sol\":2177:2190  request.value */\n      0x01\n      add\n      sload\n        /* \"Campaign.sol\":2141:2191  payable(request.recipient).transfer(request.value) */\n      swap1\n      dup2\n      iszero\n      mul\n      swap1\n      mload(0x40)\n      0x00\n      mload(0x40)\n      dup1\n      dup4\n      sub\n      dup2\n      dup6\n      dup9\n      dup9\n      call\n      swap4\n      pop\n      pop\n      pop\n      pop\n      iszero\n      dup1\n      iszero\n      tag_78\n      jumpi\n      returndatasize\n      0x00\n      dup1\n      returndatacopy\n      revert(0x00, returndatasize)\n    tag_78:\n      pop\n        /* \"Campaign.sol\":2221:2225  true */\n      0x01\n        /* \"Campaign.sol\":2202:2209  request */\n      dup2\n        /* \"Campaign.sol\":2202:2218  request.complete */\n      0x02\n      add\n      0x14\n        /* \"Campaign.sol\":2202:2225  request.complete = true */\n      0x0100\n      exp\n      dup2\n      sload\n      dup2\n      0xff\n      mul\n      not\n      and\n      swap1\n      dup4\n      iszero\n      iszero\n      mul\n      or\n      swap1\n      sstore\n      pop\n        /* \"Campaign.sol\":1971:2233  {... */\n      pop\n        /* \"Campaign.sol\":1916:2233  function finalizeRequest(uint index) public restricted {... */\n      pop\n      jump\t// out\n        /* \"Campaign.sol\":777:818  mapping(address => bool) public approvers */\n    tag_23:\n      mstore(0x20, 0x03)\n      dup1\n      0x00\n      mstore\n      keccak256(0x00, 0x40)\n      0x00\n      swap2\n      pop\n      sload\n      swap1\n      0x0100\n      exp\n      swap1\n      div\n      0xff\n      and\n      dup2\n      jump\t// out\n        /* \"Campaign.sol\":2527:2623  function getRequestsCount() public view returns (uint) {... */\n    tag_28:\n        /* \"Campaign.sol\":2576:2580  uint */\n      0x00\n        /* \"Campaign.sol\":2600:2608  requests */\n      dup1\n        /* \"Campaign.sol\":2600:2615  requests.length */\n      dup1\n      sload\n      swap1\n      pop\n        /* \"Campaign.sol\":2593:2615  return requests.length */\n      swap1\n      pop\n        /* \"Campaign.sol\":2527:2623  function getRequestsCount() public view returns (uint) {... */\n      swap1\n      jump\t// out\n        /* \"Campaign.sol\":2245:2515  function getSummary() public view returns (... */\n    tag_33:\n        /* \"Campaign.sol\":2296:2300  uint */\n      0x00\n        /* \"Campaign.sol\":2302:2306  uint */\n      dup1\n        /* \"Campaign.sol\":2308:2312  uint */\n      0x00\n        /* \"Campaign.sol\":2314:2318  uint */\n      dup1\n        /* \"Campaign.sol\":2320:2327  address */\n      0x00\n        /* \"Campaign.sol\":2368:2387  minimumContribution */\n      sload(0x02)\n        /* \"Campaign.sol\":2400:2421  address(this).balance */\n      selfbalance\n        /* \"Campaign.sol\":2434:2442  requests */\n      0x00\n        /* \"Campaign.sol\":2434:2449  requests.length */\n      dup1\n      sload\n      swap1\n      pop\n        /* \"Campaign.sol\":2462:2476  approversCount */\n      sload(0x04)\n        /* \"Campaign.sol\":2489:2496  manager */\n      0x01\n      0x00\n      swap1\n      sload\n      swap1\n      0x0100\n      exp\n      swap1\n      div\n      0xffffffffffffffffffffffffffffffffffffffff\n      and\n        /* \"Campaign.sol\":2348:2507  return (... */\n      swap5\n      pop\n      swap5\n      pop\n      swap5\n      pop\n      swap5\n      pop\n      swap5\n      pop\n        /* \"Campaign.sol\":2245:2515  function getSummary() public view returns (... */\n      swap1\n      swap2\n      swap3\n      swap4\n      swap5\n      jump\t// out\n        /* \"Campaign.sol\":710:732  address public manager */\n    tag_38:\n      0x01\n      0x00\n      swap1\n      sload\n      swap1\n      0x0100\n      exp\n      swap1\n      div\n      0xffffffffffffffffffffffffffffffffffffffff\n      and\n      dup2\n      jump\t// out\n        /* \"Campaign.sol\":678:703  Request[] public requests */\n    tag_44:\n      0x00\n      dup2\n      dup2\n      sload\n      dup2\n      lt\n      tag_81\n      jumpi\n      0x00\n      dup1\n      revert\n    tag_81:\n      swap1\n      0x00\n      mstore\n      keccak256(0x00, 0x20)\n      swap1\n      0x05\n      mul\n      add\n      0x00\n      swap2\n      pop\n      swap1\n      pop\n      dup1\n      0x00\n      add\n      dup1\n      sload\n      tag_83\n      swap1\n      tag_84\n      jump\t// in\n    tag_83:\n      dup1\n      0x1f\n      add\n      0x20\n      dup1\n      swap2\n      div\n      mul\n      0x20\n      add\n      mload(0x40)\n      swap1\n      dup2\n      add\n      0x40\n      mstore\n      dup1\n      swap3\n      swap2\n      swap1\n      dup2\n      dup2\n      mstore\n      0x20\n      add\n      dup3\n      dup1\n      sload\n      tag_85\n      swap1\n      tag_84\n      jump\t// in\n    tag_85:\n      dup1\n      iszero\n      tag_86\n      jumpi\n      dup1\n      0x1f\n      lt\n      tag_87\n      jumpi\n      0x0100\n      dup1\n      dup4\n      sload\n      div\n      mul\n      dup4\n      mstore\n      swap2\n      0x20\n      add\n      swap2\n      jump(tag_86)\n    tag_87:\n      dup3\n      add\n      swap2\n      swap1\n      0x00\n      mstore\n      keccak256(0x00, 0x20)\n      swap1\n    tag_88:\n      dup2\n      sload\n      dup2\n      mstore\n      swap1\n      0x01\n      add\n      swap1\n      0x20\n      add\n      dup1\n      dup4\n      gt\n      tag_88\n      jumpi\n      dup3\n      swap1\n      sub\n      0x1f\n      and\n      dup3\n      add\n      swap2\n    tag_86:\n      pop\n      pop\n      pop\n      pop\n      pop\n      swap1\n      dup1\n      0x01\n      add\n      sload\n      swap1\n      dup1\n      0x02\n      add\n      0x00\n      swap1\n      sload\n      swap1\n      0x0100\n      exp\n      swap1\n      div\n      0xffffffffffffffffffffffffffffffffffffffff\n      and\n      swap1\n      dup1\n      0x02\n      add\n      0x14\n      swap1\n      sload\n      swap1\n      0x0100\n      exp\n      swap1\n      div\n      0xff\n      and\n      swap1\n      dup1\n      0x03\n      add\n      sload\n      swap1\n      pop\n      dup6\n      jump\t// out\n        /* \"Campaign.sol\":825:851  uint public approversCount */\n    tag_49:\n      sload(0x04)\n      dup2\n      jump\t// out\n        /* \"Campaign.sol\":1256:1617  function createRequest(string memory description, uint value, address recipient) public restricted {... */\n    tag_55:\n        /* \"Campaign.sol\":916:923  manager */\n      0x01\n      0x00\n      swap1\n      sload\n      swap1\n      0x0100\n      exp\n      swap1\n      div\n      0xffffffffffffffffffffffffffffffffffffffff\n      and\n        /* \"Campaign.sol\":902:923  msg.sender == manager */\n      0xffffffffffffffffffffffffffffffffffffffff\n      and\n        /* \"Campaign.sol\":902:912  msg.sender */\n      caller\n        /* \"Campaign.sol\":902:923  msg.sender == manager */\n      0xffffffffffffffffffffffffffffffffffffffff\n      and\n      eq\n        /* \"Campaign.sol\":894:924  require(msg.sender == manager) */\n      tag_90\n      jumpi\n      0x00\n      dup1\n      revert\n    tag_90:\n        /* \"Campaign.sol\":1366:1392  Request storage newRequest */\n      0x00\n        /* \"Campaign.sol\":1395:1403  requests */\n      dup1\n        /* \"Campaign.sol\":1395:1410  requests.push() */\n      0x01\n      dup2\n      0x01\n      dup2\n      sload\n      add\n      dup1\n      dup3\n      sstore\n      dup1\n      swap2\n      pop\n      pop\n      sub\n      swap1\n      0x00\n      mstore\n      keccak256(0x00, 0x20)\n      swap1\n      0x05\n      mul\n      add\n        /* \"Campaign.sol\":1366:1410  Request storage newRequest = requests.push() */\n      swap1\n      pop\n        /* \"Campaign.sol\":1447:1458  description */\n      dup4\n        /* \"Campaign.sol\":1422:1432  newRequest */\n      dup2\n        /* \"Campaign.sol\":1422:1444  newRequest.description */\n      0x00\n      add\n        /* \"Campaign.sol\":1422:1458  newRequest.description = description */\n      swap1\n      dup2\n      tag_93\n      swap2\n      swap1\n      tag_94\n      jump\t// in\n    tag_93:\n      pop\n        /* \"Campaign.sol\":1487:1492  value */\n      dup3\n        /* \"Campaign.sol\":1469:1479  newRequest */\n      dup2\n        /* \"Campaign.sol\":1469:1485  newRequest.value */\n      0x01\n      add\n        /* \"Campaign.sol\":1469:1492  newRequest.value= value */\n      dup2\n      swap1\n      sstore\n      pop\n        /* \"Campaign.sol\":1525:1534  recipient */\n      dup2\n        /* \"Campaign.sol\":1503:1513  newRequest */\n      dup2\n        /* \"Campaign.sol\":1503:1523  newRequest.recipient */\n      0x02\n      add\n      0x00\n        /* \"Campaign.sol\":1503:1534  newRequest.recipient= recipient */\n      0x0100\n      exp\n      dup2\n      sload\n      dup2\n      0xffffffffffffffffffffffffffffffffffffffff\n      mul\n      not\n      and\n      swap1\n      dup4\n      0xffffffffffffffffffffffffffffffffffffffff\n      and\n      mul\n      or\n      swap1\n      sstore\n      pop\n        /* \"Campaign.sol\":1566:1571  false */\n      0x00\n        /* \"Campaign.sol\":1545:1555  newRequest */\n      dup2\n        /* \"Campaign.sol\":1545:1564  newRequest.complete */\n      0x02\n      add\n      0x14\n        /* \"Campaign.sol\":1545:1571  newRequest.complete= false */\n      0x0100\n      exp\n      dup2\n      sload\n      dup2\n      0xff\n      mul\n      not\n      and\n      swap1\n      dup4\n      iszero\n      iszero\n      mul\n      or\n      swap1\n      sstore\n      pop\n        /* \"Campaign.sol\":1608:1609  0 */\n      0x00\n        /* \"Campaign.sol\":1582:1592  newRequest */\n      dup2\n        /* \"Campaign.sol\":1582:1606  newRequest.approvalCount */\n      0x03\n      add\n        /* \"Campaign.sol\":1582:1609  newRequest.approvalCount= 0 */\n      dup2\n      swap1\n      sstore\n      pop\n        /* \"Campaign.sol\":1355:1617  {... */\n      pop\n        /* \"Campaign.sol\":1256:1617  function createRequest(string memory description, uint value, address recipient) public restricted {... */\n      pop\n      pop\n      pop\n      jump\t// out\n        /* \"Campaign.sol\":739:770  uint public minimumContribution */\n    tag_58:\n      sload(0x02)\n      dup2\n      jump\t// out\n        /* \"Campaign.sol\":1082:1247  function contribute() public payable {... */\n    tag_61:\n        /* \"Campaign.sol\":1150:1169  minimumContribution */\n      sload(0x02)\n        /* \"Campaign.sol\":1138:1147  msg.value */\n      callvalue\n        /* \"Campaign.sol\":1138:1169  msg.value > minimumContribution */\n      gt\n        /* \"Campaign.sol\":1130:1170  require(msg.value > minimumContribution) */\n      tag_96\n      jumpi\n      0x00\n      dup1\n      revert\n    tag_96:\n        /* \"Campaign.sol\":1208:1212  true */\n      0x01\n        /* \"Campaign.sol\":1184:1193  approvers */\n      0x03\n        /* \"Campaign.sol\":1184:1205  approvers[msg.sender] */\n      0x00\n        /* \"Campaign.sol\":1194:1204  msg.sender */\n      caller\n        /* \"Campaign.sol\":1184:1205  approvers[msg.sender] */\n      0xffffffffffffffffffffffffffffffffffffffff\n      and\n      0xffffffffffffffffffffffffffffffffffffffff\n      and\n      dup2\n      mstore\n      0x20\n      add\n      swap1\n      dup2\n      mstore\n      0x20\n      add\n      0x00\n      keccak256\n      0x00\n        /* \"Campaign.sol\":1184:1212  approvers[msg.sender] = true */\n      0x0100\n      exp\n      dup2\n      sload\n      dup2\n      0xff\n      mul\n      not\n      and\n      swap1\n      dup4\n      iszero\n      iszero\n      mul\n      or\n      swap1\n      sstore\n      pop\n        /* \"Campaign.sol\":1223:1237  approversCount */\n      0x04\n      0x00\n        /* \"Campaign.sol\":1223:1239  approversCount++ */\n      dup2\n      sload\n      dup1\n      swap3\n      swap2\n      swap1\n      tag_97\n      swap1\n      tag_98\n      jump\t// in\n    tag_97:\n      swap2\n      swap1\n      pop\n      sstore\n      pop\n        /* \"Campaign.sol\":1082:1247  function contribute() public payable {... */\n      jump\t// out\n        /* \"Campaign.sol\":1626:1907  function approveRequest(uint index) public {... */\n    tag_65:\n        /* \"Campaign.sol\":1680:1703  Request storage request */\n      0x00\n        /* \"Campaign.sol\":1706:1714  requests */\n      dup1\n        /* \"Campaign.sol\":1715:1720  index */\n      dup3\n        /* \"Campaign.sol\":1706:1721  requests[index] */\n      dup2\n      sload\n      dup2\n      lt\n      tag_100\n      jumpi\n      tag_101\n      tag_71\n      jump\t// in\n    tag_101:\n    tag_100:\n      swap1\n      0x00\n      mstore\n      keccak256(0x00, 0x20)\n      swap1\n      0x05\n      mul\n      add\n        /* \"Campaign.sol\":1680:1721  Request storage request = requests[index] */\n      swap1\n      pop\n        /* \"Campaign.sol\":1743:1752  approvers */\n      0x03\n        /* \"Campaign.sol\":1743:1764  approvers[msg.sender] */\n      0x00\n        /* \"Campaign.sol\":1753:1763  msg.sender */\n      caller\n        /* \"Campaign.sol\":1743:1764  approvers[msg.sender] */\n      0xffffffffffffffffffffffffffffffffffffffff\n      and\n      0xffffffffffffffffffffffffffffffffffffffff\n      and\n      dup2\n      mstore\n      0x20\n      add\n      swap1\n      dup2\n      mstore\n      0x20\n      add\n      0x00\n      keccak256\n      0x00\n      swap1\n      sload\n      swap1\n      0x0100\n      exp\n      swap1\n      div\n      0xff\n      and\n        /* \"Campaign.sol\":1735:1765  require(approvers[msg.sender]) */\n      tag_103\n      jumpi\n      0x00\n      dup1\n      revert\n    tag_103:\n        /* \"Campaign.sol\":1785:1792  request */\n      dup1\n        /* \"Campaign.sol\":1785:1802  request.approvals */\n      0x04\n      add\n        /* \"Campaign.sol\":1785:1814  request.approvals[msg.sender] */\n      0x00\n        /* \"Campaign.sol\":1803:1813  msg.sender */\n      caller\n        /* \"Campaign.sol\":1785:1814  request.approvals[msg.sender] */\n      0xffffffffffffffffffffffffffffffffffffffff\n      and\n      0xffffffffffffffffffffffffffffffffffffffff\n      and\n      dup2\n      mstore\n      0x20\n      add\n      swap1\n      dup2\n      mstore\n      0x20\n      add\n      0x00\n      keccak256\n      0x00\n      swap1\n      sload\n      swap1\n      0x0100\n      exp\n      swap1\n      div\n      0xff\n      and\n        /* \"Campaign.sol\":1784:1814  !request.approvals[msg.sender] */\n      iszero\n        /* \"Campaign.sol\":1776:1815  require(!request.approvals[msg.sender]) */\n      tag_104\n      jumpi\n      0x00\n      dup1\n      revert\n    tag_104:\n        /* \"Campaign.sol\":1861:1865  true */\n      0x01\n        /* \"Campaign.sol\":1829:1836  request */\n      dup2\n        /* \"Campaign.sol\":1829:1846  request.approvals */\n      0x04\n      add\n        /* \"Campaign.sol\":1829:1858  request.approvals[msg.sender] */\n      0x00\n        /* \"Campaign.sol\":1847:1857  msg.sender */\n      caller\n        /* \"Campaign.sol\":1829:1858  request.approvals[msg.sender] */\n      0xffffffffffffffffffffffffffffffffffffffff\n      and\n      0xffffffffffffffffffffffffffffffffffffffff\n      and\n      dup2\n      mstore\n      0x20\n      add\n      swap1\n      dup2\n      mstore\n      0x20\n      add\n      0x00\n      keccak256\n      0x00\n        /* \"Campaign.sol\":1829:1865  request.approvals[msg.sender] = true */\n      0x0100\n      exp\n      dup2\n      sload\n      dup2\n      0xff\n      mul\n      not\n      and\n      swap1\n      dup4\n      iszero\n      iszero\n      mul\n      or\n      swap1\n      sstore\n      pop\n        /* \"Campaign.sol\":1876:1883  request */\n      dup1\n        /* \"Campaign.sol\":1876:1897  request.approvalCount */\n      0x03\n      add\n      0x00\n        /* \"Campaign.sol\":1876:1899  request.approvalCount++ */\n      dup2\n      sload\n      dup1\n      swap3\n      swap2\n      swap1\n      tag_105\n      swap1\n      tag_98\n      jump\t// in\n    tag_105:\n      swap2\n      swap1\n      pop\n      sstore\n      pop\n        /* \"Campaign.sol\":1669:1907  {... */\n      pop\n        /* \"Campaign.sol\":1626:1907  function approveRequest(uint index) public {... */\n      pop\n      jump\t// out\n        /* \"#utility.yul\":7:82   */\n    tag_106:\n        /* \"#utility.yul\":40:46   */\n      0x00\n        /* \"#utility.yul\":73:75   */\n      0x40\n        /* \"#utility.yul\":67:76   */\n      mload\n        /* \"#utility.yul\":57:76   */\n      swap1\n      pop\n        /* \"#utility.yul\":7:82   */\n      swap1\n      jump\t// out\n        /* \"#utility.yul\":88:205   */\n    tag_107:\n        /* \"#utility.yul\":197:198   */\n      0x00\n        /* \"#utility.yul\":194:195   */\n      dup1\n        /* \"#utility.yul\":187:199   */\n      revert\n        /* \"#utility.yul\":211:328   */\n    tag_108:\n        /* \"#utility.yul\":320:321   */\n      0x00\n        /* \"#utility.yul\":317:318   */\n      dup1\n        /* \"#utility.yul\":310:322   */\n      revert\n        /* \"#utility.yul\":334:411   */\n    tag_109:\n        /* \"#utility.yul\":371:378   */\n      0x00\n        /* \"#utility.yul\":400:405   */\n      dup2\n        /* \"#utility.yul\":389:405   */\n      swap1\n      pop\n        /* \"#utility.yul\":334:411   */\n      swap2\n      swap1\n      pop\n      jump\t// out\n        /* \"#utility.yul\":417:539   */\n    tag_110:\n        /* \"#utility.yul\":490:514   */\n      tag_158\n        /* \"#utility.yul\":508:513   */\n      dup2\n        /* \"#utility.yul\":490:514   */\n      tag_109\n      jump\t// in\n    tag_158:\n        /* \"#utility.yul\":483:488   */\n      dup2\n        /* \"#utility.yul\":480:515   */\n      eq\n        /* \"#utility.yul\":470:533   */\n      tag_159\n      jumpi\n        /* \"#utility.yul\":529:530   */\n      0x00\n        /* \"#utility.yul\":526:527   */\n      dup1\n        /* \"#utility.yul\":519:531   */\n      revert\n        /* \"#utility.yul\":470:533   */\n    tag_159:\n        /* \"#utility.yul\":417:539   */\n      pop\n      jump\t// out\n        /* \"#utility.yul\":545:684   */\n    tag_111:\n        /* \"#utility.yul\":591:596   */\n      0x00\n        /* \"#utility.yul\":629:635   */\n      dup2\n        /* \"#utility.yul\":616:636   */\n      calldataload\n        /* \"#utility.yul\":607:636   */\n      swap1\n      pop\n        /* \"#utility.yul\":645:678   */\n      tag_161\n        /* \"#utility.yul\":672:677   */\n      dup2\n        /* \"#utility.yul\":645:678   */\n      tag_110\n      jump\t// in\n    tag_161:\n        /* \"#utility.yul\":545:684   */\n      swap3\n      swap2\n      pop\n      pop\n      jump\t// out\n        /* \"#utility.yul\":690:1019   */\n    tag_17:\n        /* \"#utility.yul\":749:755   */\n      0x00\n        /* \"#utility.yul\":798:800   */\n      0x20\n        /* \"#utility.yul\":786:795   */\n      dup3\n        /* \"#utility.yul\":777:784   */\n      dup5\n        /* \"#utility.yul\":773:796   */\n      sub\n        /* \"#utility.yul\":769:801   */\n      slt\n        /* \"#utility.yul\":766:885   */\n      iszero\n      tag_163\n      jumpi\n        /* \"#utility.yul\":804:883   */\n      tag_164\n      tag_107\n      jump\t// in\n    tag_164:\n        /* \"#utility.yul\":766:885   */\n    tag_163:\n        /* \"#utility.yul\":924:925   */\n      0x00\n        /* \"#utility.yul\":949:1002   */\n      tag_165\n        /* \"#utility.yul\":994:1001   */\n      dup5\n        /* \"#utility.yul\":985:991   */\n      dup3\n        /* \"#utility.yul\":974:983   */\n      dup6\n        /* \"#utility.yul\":970:992   */\n      add\n        /* \"#utility.yul\":949:1002   */\n      tag_111\n      jump\t// in\n    tag_165:\n        /* \"#utility.yul\":939:1002   */\n      swap2\n      pop\n        /* \"#utility.yul\":895:1012   */\n      pop\n        /* \"#utility.yul\":690:1019   */\n      swap3\n      swap2\n      pop\n      pop\n      jump\t// out\n        /* \"#utility.yul\":1025:1151   */\n    tag_112:\n        /* \"#utility.yul\":1062:1069   */\n      0x00\n        /* \"#utility.yul\":1102:1144   */\n      0xffffffffffffffffffffffffffffffffffffffff\n        /* \"#utility.yul\":1095:1100   */\n      dup3\n        /* \"#utility.yul\":1091:1145   */\n      and\n        /* \"#utility.yul\":1080:1145   */\n      swap1\n      pop\n        /* \"#utility.yul\":1025:1151   */\n      swap2\n      swap1\n      pop\n      jump\t// out\n        /* \"#utility.yul\":1157:1253   */\n    tag_113:\n        /* \"#utility.yul\":1194:1201   */\n      0x00\n        /* \"#utility.yul\":1223:1247   */\n      tag_168\n        /* \"#utility.yul\":1241:1246   */\n      dup3\n        /* \"#utility.yul\":1223:1247   */\n      tag_112\n      jump\t// in\n    tag_168:\n        /* \"#utility.yul\":1212:1247   */\n      swap1\n      pop\n        /* \"#utility.yul\":1157:1253   */\n      swap2\n      swap1\n      pop\n      jump\t// out\n        /* \"#utility.yul\":1259:1381   */\n    tag_114:\n        /* \"#utility.yul\":1332:1356   */\n      tag_170\n        /* \"#utility.yul\":1350:1355   */\n      dup2\n        /* \"#utility.yul\":1332:1356   */\n      tag_113\n      jump\t// in\n    tag_170:\n        /* \"#utility.yul\":1325:1330   */\n      dup2\n        /* \"#utility.yul\":1322:1357   */\n      eq\n        /* \"#utility.yul\":1312:1375   */\n      tag_171\n      jumpi\n        /* \"#utility.yul\":1371:1372   */\n      0x00\n        /* \"#utility.yul\":1368:1369   */\n      dup1\n        /* \"#utility.yul\":1361:1373   */\n      revert\n        /* \"#utility.yul\":1312:1375   */\n    tag_171:\n        /* \"#utility.yul\":1259:1381   */\n      pop\n      jump\t// out\n        /* \"#utility.yul\":1387:1526   */\n    tag_115:\n        /* \"#utility.yul\":1433:1438   */\n      0x00\n        /* \"#utility.yul\":1471:1477   */\n      dup2\n        /* \"#utility.yul\":1458:1478   */\n      calldataload\n        /* \"#utility.yul\":1449:1478   */\n      swap1\n      pop\n        /* \"#utility.yul\":1487:1520   */\n      tag_173\n        /* \"#utility.yul\":1514:1519   */\n      dup2\n        /* \"#utility.yul\":1487:1520   */\n      tag_114\n      jump\t// in\n    tag_173:\n        /* \"#utility.yul\":1387:1526   */\n      swap3\n      swap2\n      pop\n      pop\n      jump\t// out\n        /* \"#utility.yul\":1532:1861   */\n    tag_22:\n        /* \"#utility.yul\":1591:1597   */\n      0x00\n        /* \"#utility.yul\":1640:1642   */\n      0x20\n        /* \"#utility.yul\":1628:1637   */\n      dup3\n        /* \"#utility.yul\":1619:1626   */\n      dup5\n        /* \"#utility.yul\":1615:1638   */\n      sub\n        /* \"#utility.yul\":1611:1643   */\n      slt\n        /* \"#utility.yul\":1608:1727   */\n      iszero\n      tag_175\n      jumpi\n        /* \"#utility.yul\":1646:1725   */\n      tag_176\n      tag_107\n      jump\t// in\n    tag_176:\n        /* \"#utility.yul\":1608:1727   */\n    tag_175:\n        /* \"#utility.yul\":1766:1767   */\n      0x00\n        /* \"#utility.yul\":1791:1844   */\n      tag_177\n        /* \"#utility.yul\":1836:1843   */\n      dup5\n        /* \"#utility.yul\":1827:1833   */\n      dup3\n        /* \"#utility.yul\":1816:1825   */\n      dup6\n        /* \"#utility.yul\":1812:1834   */\n      add\n        /* \"#utility.yul\":1791:1844   */\n      tag_115\n      jump\t// in\n    tag_177:\n        /* \"#utility.yul\":1781:1844   */\n      swap2\n      pop\n        /* \"#utility.yul\":1737:1854   */\n      pop\n        /* \"#utility.yul\":1532:1861   */\n      swap3\n      swap2\n      pop\n      pop\n      jump\t// out\n        /* \"#utility.yul\":1867:1957   */\n    tag_116:\n        /* \"#utility.yul\":1901:1908   */\n      0x00\n        /* \"#utility.yul\":1944:1949   */\n      dup2\n        /* \"#utility.yul\":1937:1950   */\n      iszero\n        /* \"#utility.yul\":1930:1951   */\n      iszero\n        /* \"#utility.yul\":1919:1951   */\n      swap1\n      pop\n        /* \"#utility.yul\":1867:1957   */\n      swap2\n      swap1\n      pop\n      jump\t// out\n        /* \"#utility.yul\":1963:2072   */\n    tag_117:\n        /* \"#utility.yul\":2044:2065   */\n      tag_180\n        /* \"#utility.yul\":2059:2064   */\n      dup2\n        /* \"#utility.yul\":2044:2065   */\n      tag_116\n      jump\t// in\n    tag_180:\n        /* \"#utility.yul\":2039:2042   */\n      dup3\n        /* \"#utility.yul\":2032:2066   */\n      mstore\n        /* \"#utility.yul\":1963:2072   */\n      pop\n      pop\n      jump\t// out\n        /* \"#utility.yul\":2078:2288   */\n    tag_25:\n        /* \"#utility.yul\":2165:2169   */\n      0x00\n        /* \"#utility.yul\":2203:2205   */\n      0x20\n        /* \"#utility.yul\":2192:2201   */\n      dup3\n        /* \"#utility.yul\":2188:2206   */\n      add\n        /* \"#utility.yul\":2180:2206   */\n      swap1\n      pop\n        /* \"#utility.yul\":2216:2281   */\n      tag_182\n        /* \"#utility.yul\":2278:2279   */\n      0x00\n        /* \"#utility.yul\":2267:2276   */\n      dup4\n        /* \"#utility.yul\":2263:2280   */\n      add\n        /* \"#utility.yul\":2254:2260   */\n      dup5\n        /* \"#utility.yul\":2216:2281   */\n      tag_117\n      jump\t// in\n    tag_182:\n        /* \"#utility.yul\":2078:2288   */\n      swap3\n      swap2\n      pop\n      pop\n      jump\t// out\n        /* \"#utility.yul\":2294:2412   */\n    tag_118:\n        /* \"#utility.yul\":2381:2405   */\n      tag_184\n        /* \"#utility.yul\":2399:2404   */\n      dup2\n        /* \"#utility.yul\":2381:2405   */\n      tag_109\n      jump\t// in\n    tag_184:\n        /* \"#utility.yul\":2376:2379   */\n      dup3\n        /* \"#utility.yul\":2369:2406   */\n      mstore\n        /* \"#utility.yul\":2294:2412   */\n      pop\n      pop\n      jump\t// out\n        /* \"#utility.yul\":2418:2640   */\n    tag_30:\n        /* \"#utility.yul\":2511:2515   */\n      0x00\n        /* \"#utility.yul\":2549:2551   */\n      0x20\n        /* \"#utility.yul\":2538:2547   */\n      dup3\n        /* \"#utility.yul\":2534:2552   */\n      add\n        /* \"#utility.yul\":2526:2552   */\n      swap1\n      pop\n        /* \"#utility.yul\":2562:2633   */\n      tag_186\n        /* \"#utility.yul\":2630:2631   */\n      0x00\n        /* \"#utility.yul\":2619:2628   */\n      dup4\n        /* \"#utility.yul\":2615:2632   */\n      add\n        /* \"#utility.yul\":2606:2612   */\n      dup5\n        /* \"#utility.yul\":2562:2633   */\n      tag_118\n      jump\t// in\n    tag_186:\n        /* \"#utility.yul\":2418:2640   */\n      swap3\n      swap2\n      pop\n      pop\n      jump\t// out\n        /* \"#utility.yul\":2646:2764   */\n    tag_119:\n        /* \"#utility.yul\":2733:2757   */\n      tag_188\n        /* \"#utility.yul\":2751:2756   */\n      dup2\n        /* \"#utility.yul\":2733:2757   */\n      tag_113\n      jump\t// in\n    tag_188:\n        /* \"#utility.yul\":2728:2731   */\n      dup3\n        /* \"#utility.yul\":2721:2758   */\n      mstore\n        /* \"#utility.yul\":2646:2764   */\n      pop\n      pop\n      jump\t// out\n        /* \"#utility.yul\":2770:3434   */\n    tag_35:\n        /* \"#utility.yul\":2975:2979   */\n      0x00\n        /* \"#utility.yul\":3013:3016   */\n      0xa0\n        /* \"#utility.yul\":3002:3011   */\n      dup3\n        /* \"#utility.yul\":2998:3017   */\n      add\n        /* \"#utility.yul\":2990:3017   */\n      swap1\n      pop\n        /* \"#utility.yul\":3027:3098   */\n      tag_190\n        /* \"#utility.yul\":3095:3096   */\n      0x00\n        /* \"#utility.yul\":3084:3093   */\n      dup4\n        /* \"#utility.yul\":3080:3097   */\n      add\n        /* \"#utility.yul\":3071:3077   */\n      dup9\n        /* \"#utility.yul\":3027:3098   */\n      tag_118\n      jump\t// in\n    tag_190:\n        /* \"#utility.yul\":3108:3180   */\n      tag_191\n        /* \"#utility.yul\":3176:3178   */\n      0x20\n        /* \"#utility.yul\":3165:3174   */\n      dup4\n        /* \"#utility.yul\":3161:3179   */\n      add\n        /* \"#utility.yul\":3152:3158   */\n      dup8\n        /* \"#utility.yul\":3108:3180   */\n      tag_118\n      jump\t// in\n    tag_191:\n        /* \"#utility.yul\":3190:3262   */\n      tag_192\n        /* \"#utility.yul\":3258:3260   */\n      0x40\n        /* \"#utility.yul\":3247:3256   */\n      dup4\n        /* \"#utility.yul\":3243:3261   */\n      add\n        /* \"#utility.yul\":3234:3240   */\n      dup7\n        /* \"#utility.yul\":3190:3262   */\n      tag_118\n      jump\t// in\n    tag_192:\n        /* \"#utility.yul\":3272:3344   */\n      tag_193\n        /* \"#utility.yul\":3340:3342   */\n      0x60\n        /* \"#utility.yul\":3329:3338   */\n      dup4\n        /* \"#utility.yul\":3325:3343   */\n      add\n        /* \"#utility.yul\":3316:3322   */\n      dup6\n        /* \"#utility.yul\":3272:3344   */\n      tag_118\n      jump\t// in\n    tag_193:\n        /* \"#utility.yul\":3354:3427   */\n      tag_194\n        /* \"#utility.yul\":3422:3425   */\n      0x80\n        /* \"#utility.yul\":3411:3420   */\n      dup4\n        /* \"#utility.yul\":3407:3426   */\n      add\n        /* \"#utility.yul\":3398:3404   */\n      dup5\n        /* \"#utility.yul\":3354:3427   */\n      tag_119\n      jump\t// in\n    tag_194:\n        /* \"#utility.yul\":2770:3434   */\n      swap7\n      swap6\n      pop\n      pop\n      pop\n      pop\n      pop\n      pop\n      jump\t// out\n        /* \"#utility.yul\":3440:3662   */\n    tag_40:\n        /* \"#utility.yul\":3533:3537   */\n      0x00\n        /* \"#utility.yul\":3571:3573   */\n      0x20\n        /* \"#utility.yul\":3560:3569   */\n      dup3\n        /* \"#utility.yul\":3556:3574   */\n      add\n        /* \"#utility.yul\":3548:3574   */\n      swap1\n      pop\n        /* \"#utility.yul\":3584:3655   */\n      tag_196\n        /* \"#utility.yul\":3652:3653   */\n      0x00\n        /* \"#utility.yul\":3641:3650   */\n      dup4\n        /* \"#utility.yul\":3637:3654   */\n      add\n        /* \"#utility.yul\":3628:3634   */\n      dup5\n        /* \"#utility.yul\":3584:3655   */\n      tag_119\n      jump\t// in\n    tag_196:\n        /* \"#utility.yul\":3440:3662   */\n      swap3\n      swap2\n      pop\n      pop\n      jump\t// out\n        /* \"#utility.yul\":3668:3767   */\n    tag_120:\n        /* \"#utility.yul\":3720:3726   */\n      0x00\n        /* \"#utility.yul\":3754:3759   */\n      dup2\n        /* \"#utility.yul\":3748:3760   */\n      mload\n        /* \"#utility.yul\":3738:3760   */\n      swap1\n      pop\n        /* \"#utility.yul\":3668:3767   */\n      swap2\n      swap1\n      pop\n      jump\t// out\n        /* \"#utility.yul\":3773:3942   */\n    tag_121:\n        /* \"#utility.yul\":3857:3868   */\n      0x00\n        /* \"#utility.yul\":3891:3897   */\n      dup3\n        /* \"#utility.yul\":3886:3889   */\n      dup3\n        /* \"#utility.yul\":3879:3898   */\n      mstore\n        /* \"#utility.yul\":3931:3935   */\n      0x20\n        /* \"#utility.yul\":3926:3929   */\n      dup3\n        /* \"#utility.yul\":3922:3936   */\n      add\n        /* \"#utility.yul\":3907:3936   */\n      swap1\n      pop\n        /* \"#utility.yul\":3773:3942   */\n      swap3\n      swap2\n      pop\n      pop\n      jump\t// out\n        /* \"#utility.yul\":3948:4194   */\n    tag_122:\n        /* \"#utility.yul\":4029:4030   */\n      0x00\n        /* \"#utility.yul\":4039:4152   */\n    tag_200:\n        /* \"#utility.yul\":4053:4059   */\n      dup4\n        /* \"#utility.yul\":4050:4051   */\n      dup2\n        /* \"#utility.yul\":4047:4060   */\n      lt\n        /* \"#utility.yul\":4039:4152   */\n      iszero\n      tag_202\n      jumpi\n        /* \"#utility.yul\":4138:4139   */\n      dup1\n        /* \"#utility.yul\":4133:4136   */\n      dup3\n        /* \"#utility.yul\":4129:4140   */\n      add\n        /* \"#utility.yul\":4123:4141   */\n      mload\n        /* \"#utility.yul\":4119:4120   */\n      dup2\n        /* \"#utility.yul\":4114:4117   */\n      dup5\n        /* \"#utility.yul\":4110:4121   */\n      add\n        /* \"#utility.yul\":4103:4142   */\n      mstore\n        /* \"#utility.yul\":4075:4077   */\n      0x20\n        /* \"#utility.yul\":4072:4073   */\n      dup2\n        /* \"#utility.yul\":4068:4078   */\n      add\n        /* \"#utility.yul\":4063:4078   */\n      swap1\n      pop\n        /* \"#utility.yul\":4039:4152   */\n      jump(tag_200)\n    tag_202:\n        /* \"#utility.yul\":4186:4187   */\n      0x00\n        /* \"#utility.yul\":4177:4183   */\n      dup5\n        /* \"#utility.yul\":4172:4175   */\n      dup5\n        /* \"#utility.yul\":4168:4184   */\n      add\n        /* \"#utility.yul\":4161:4188   */\n      mstore\n        /* \"#utility.yul\":4010:4194   */\n      pop\n        /* \"#utility.yul\":3948:4194   */\n      pop\n      pop\n      pop\n      jump\t// out\n        /* \"#utility.yul\":4200:4302   */\n    tag_123:\n        /* \"#utility.yul\":4241:4247   */\n      0x00\n        /* \"#utility.yul\":4292:4294   */\n      0x1f\n        /* \"#utility.yul\":4288:4295   */\n      not\n        /* \"#utility.yul\":4283:4285   */\n      0x1f\n        /* \"#utility.yul\":4276:4281   */\n      dup4\n        /* \"#utility.yul\":4272:4286   */\n      add\n        /* \"#utility.yul\":4268:4296   */\n      and\n        /* \"#utility.yul\":4258:4296   */\n      swap1\n      pop\n        /* \"#utility.yul\":4200:4302   */\n      swap2\n      swap1\n      pop\n      jump\t// out\n        /* \"#utility.yul\":4308:4685   */\n    tag_124:\n        /* \"#utility.yul\":4396:4399   */\n      0x00\n        /* \"#utility.yul\":4424:4463   */\n      tag_205\n        /* \"#utility.yul\":4457:4462   */\n      dup3\n        /* \"#utility.yul\":4424:4463   */\n      tag_120\n      jump\t// in\n    tag_205:\n        /* \"#utility.yul\":4479:4550   */\n      tag_206\n        /* \"#utility.yul\":4543:4549   */\n      dup2\n        /* \"#utility.yul\":4538:4541   */\n      dup6\n        /* \"#utility.yul\":4479:4550   */\n      tag_121\n      jump\t// in\n    tag_206:\n        /* \"#utility.yul\":4472:4550   */\n      swap4\n      pop\n        /* \"#utility.yul\":4559:4624   */\n      tag_207\n        /* \"#utility.yul\":4617:4623   */\n      dup2\n        /* \"#utility.yul\":4612:4615   */\n      dup6\n        /* \"#utility.yul\":4605:4609   */\n      0x20\n        /* \"#utility.yul\":4598:4603   */\n      dup7\n        /* \"#utility.yul\":4594:4610   */\n      add\n        /* \"#utility.yul\":4559:4624   */\n      tag_122\n      jump\t// in\n    tag_207:\n        /* \"#utility.yul\":4649:4678   */\n      tag_208\n        /* \"#utility.yul\":4671:4677   */\n      dup2\n        /* \"#utility.yul\":4649:4678   */\n      tag_123\n      jump\t// in\n    tag_208:\n        /* \"#utility.yul\":4644:4647   */\n      dup5\n        /* \"#utility.yul\":4640:4679   */\n      add\n        /* \"#utility.yul\":4633:4679   */\n      swap2\n      pop\n        /* \"#utility.yul\":4400:4685   */\n      pop\n        /* \"#utility.yul\":4308:4685   */\n      swap3\n      swap2\n      pop\n      pop\n      jump\t// out\n        /* \"#utility.yul\":4691:5434   */\n    tag_46:\n        /* \"#utility.yul\":4910:4914   */\n      0x00\n        /* \"#utility.yul\":4948:4951   */\n      0xa0\n        /* \"#utility.yul\":4937:4946   */\n      dup3\n        /* \"#utility.yul\":4933:4952   */\n      add\n        /* \"#utility.yul\":4925:4952   */\n      swap1\n      pop\n        /* \"#utility.yul\":4998:5007   */\n      dup2\n        /* \"#utility.yul\":4992:4996   */\n      dup2\n        /* \"#utility.yul\":4988:5008   */\n      sub\n        /* \"#utility.yul\":4984:4985   */\n      0x00\n        /* \"#utility.yul\":4973:4982   */\n      dup4\n        /* \"#utility.yul\":4969:4986   */\n      add\n        /* \"#utility.yul\":4962:5009   */\n      mstore\n        /* \"#utility.yul\":5026:5104   */\n      tag_210\n        /* \"#utility.yul\":5099:5103   */\n      dup2\n        /* \"#utility.yul\":5090:5096   */\n      dup9\n        /* \"#utility.yul\":5026:5104   */\n      tag_124\n      jump\t// in\n    tag_210:\n        /* \"#utility.yul\":5018:5104   */\n      swap1\n      pop\n        /* \"#utility.yul\":5114:5186   */\n      tag_211\n        /* \"#utility.yul\":5182:5184   */\n      0x20\n        /* \"#utility.yul\":5171:5180   */\n      dup4\n        /* \"#utility.yul\":5167:5185   */\n      add\n        /* \"#utility.yul\":5158:5164   */\n      dup8\n        /* \"#utility.yul\":5114:5186   */\n      tag_118\n      jump\t// in\n    tag_211:\n        /* \"#utility.yul\":5196:5268   */\n      tag_212\n        /* \"#utility.yul\":5264:5266   */\n      0x40\n        /* \"#utility.yul\":5253:5262   */\n      dup4\n        /* \"#utility.yul\":5249:5267   */\n      add\n        /* \"#utility.yul\":5240:5246   */\n      dup7\n        /* \"#utility.yul\":5196:5268   */\n      tag_119\n      jump\t// in\n    tag_212:\n        /* \"#utility.yul\":5278:5344   */\n      tag_213\n        /* \"#utility.yul\":5340:5342   */\n      0x60\n        /* \"#utility.yul\":5329:5338   */\n      dup4\n        /* \"#utility.yul\":5325:5343   */\n      add\n        /* \"#utility.yul\":5316:5322   */\n      dup6\n        /* \"#utility.yul\":5278:5344   */\n      tag_117\n      jump\t// in\n    tag_213:\n        /* \"#utility.yul\":5354:5427   */\n      tag_214\n        /* \"#utility.yul\":5422:5425   */\n      0x80\n        /* \"#utility.yul\":5411:5420   */\n      dup4\n        /* \"#utility.yul\":5407:5426   */\n      add\n        /* \"#utility.yul\":5398:5404   */\n      dup5\n        /* \"#utility.yul\":5354:5427   */\n      tag_118\n      jump\t// in\n    tag_214:\n        /* \"#utility.yul\":4691:5434   */\n      swap7\n      swap6\n      pop\n      pop\n      pop\n      pop\n      pop\n      pop\n      jump\t// out\n        /* \"#utility.yul\":5440:5557   */\n    tag_125:\n        /* \"#utility.yul\":5549:5550   */\n      0x00\n        /* \"#utility.yul\":5546:5547   */\n      dup1\n        /* \"#utility.yul\":5539:5551   */\n      revert\n        /* \"#utility.yul\":5563:5680   */\n    tag_126:\n        /* \"#utility.yul\":5672:5673   */\n      0x00\n        /* \"#utility.yul\":5669:5670   */\n      dup1\n        /* \"#utility.yul\":5662:5674   */\n      revert\n        /* \"#utility.yul\":5686:5866   */\n    tag_127:\n        /* \"#utility.yul\":5734:5811   */\n      0x4e487b7100000000000000000000000000000000000000000000000000000000\n        /* \"#utility.yul\":5731:5732   */\n      0x00\n        /* \"#utility.yul\":5724:5812   */\n      mstore\n        /* \"#utility.yul\":5831:5835   */\n      0x41\n        /* \"#utility.yul\":5828:5829   */\n      0x04\n        /* \"#utility.yul\":5821:5836   */\n      mstore\n        /* \"#utility.yul\":5855:5859   */\n      0x24\n        /* \"#utility.yul\":5852:5853   */\n      0x00\n        /* \"#utility.yul\":5845:5860   */\n      revert\n        /* \"#utility.yul\":5872:6153   */\n    tag_128:\n        /* \"#utility.yul\":5955:5982   */\n      tag_219\n        /* \"#utility.yul\":5977:5981   */\n      dup3\n        /* \"#utility.yul\":5955:5982   */\n      tag_123\n      jump\t// in\n    tag_219:\n        /* \"#utility.yul\":5947:5953   */\n      dup2\n        /* \"#utility.yul\":5943:5983   */\n      add\n        /* \"#utility.yul\":6085:6091   */\n      dup2\n        /* \"#utility.yul\":6073:6083   */\n      dup2\n        /* \"#utility.yul\":6070:6092   */\n      lt\n        /* \"#utility.yul\":6049:6067   */\n      0xffffffffffffffff\n        /* \"#utility.yul\":6037:6047   */\n      dup3\n        /* \"#utility.yul\":6034:6068   */\n      gt\n        /* \"#utility.yul\":6031:6093   */\n      or\n        /* \"#utility.yul\":6028:6116   */\n      iszero\n      tag_220\n      jumpi\n        /* \"#utility.yul\":6096:6114   */\n      tag_221\n      tag_127\n      jump\t// in\n    tag_221:\n        /* \"#utility.yul\":6028:6116   */\n    tag_220:\n        /* \"#utility.yul\":6136:6146   */\n      dup1\n        /* \"#utility.yul\":6132:6134   */\n      0x40\n        /* \"#utility.yul\":6125:6147   */\n      mstore\n        /* \"#utility.yul\":5915:6153   */\n      pop\n        /* \"#utility.yul\":5872:6153   */\n      pop\n      pop\n      jump\t// out\n        /* \"#utility.yul\":6159:6288   */\n    tag_129:\n        /* \"#utility.yul\":6193:6199   */\n      0x00\n        /* \"#utility.yul\":6220:6240   */\n      tag_223\n      tag_106\n      jump\t// in\n    tag_223:\n        /* \"#utility.yul\":6210:6240   */\n      swap1\n      pop\n        /* \"#utility.yul\":6249:6282   */\n      tag_224\n        /* \"#utility.yul\":6277:6281   */\n      dup3\n        /* \"#utility.yul\":6269:6275   */\n      dup3\n        /* \"#utility.yul\":6249:6282   */\n      tag_128\n      jump\t// in\n    tag_224:\n        /* \"#utility.yul\":6159:6288   */\n      swap2\n      swap1\n      pop\n      jump\t// out\n        /* \"#utility.yul\":6294:6602   */\n    tag_130:\n        /* \"#utility.yul\":6356:6360   */\n      0x00\n        /* \"#utility.yul\":6446:6464   */\n      0xffffffffffffffff\n        /* \"#utility.yul\":6438:6444   */\n      dup3\n        /* \"#utility.yul\":6435:6465   */\n      gt\n        /* \"#utility.yul\":6432:6488   */\n      iszero\n      tag_226\n      jumpi\n        /* \"#utility.yul\":6468:6486   */\n      tag_227\n      tag_127\n      jump\t// in\n    tag_227:\n        /* \"#utility.yul\":6432:6488   */\n    tag_226:\n        /* \"#utility.yul\":6506:6535   */\n      tag_228\n        /* \"#utility.yul\":6528:6534   */\n      dup3\n        /* \"#utility.yul\":6506:6535   */\n      tag_123\n      jump\t// in\n    tag_228:\n        /* \"#utility.yul\":6498:6535   */\n      swap1\n      pop\n        /* \"#utility.yul\":6590:6594   */\n      0x20\n        /* \"#utility.yul\":6584:6588   */\n      dup2\n        /* \"#utility.yul\":6580:6595   */\n      add\n        /* \"#utility.yul\":6572:6595   */\n      swap1\n      pop\n        /* \"#utility.yul\":6294:6602   */\n      swap2\n      swap1\n      pop\n      jump\t// out\n        /* \"#utility.yul\":6608:6754   */\n    tag_131:\n        /* \"#utility.yul\":6705:6711   */\n      dup3\n        /* \"#utility.yul\":6700:6703   */\n      dup2\n        /* \"#utility.yul\":6695:6698   */\n      dup4\n        /* \"#utility.yul\":6682:6712   */\n      calldatacopy\n        /* \"#utility.yul\":6746:6747   */\n      0x00\n        /* \"#utility.yul\":6737:6743   */\n      dup4\n        /* \"#utility.yul\":6732:6735   */\n      dup4\n        /* \"#utility.yul\":6728:6744   */\n      add\n        /* \"#utility.yul\":6721:6748   */\n      mstore\n        /* \"#utility.yul\":6608:6754   */\n      pop\n      pop\n      pop\n      jump\t// out\n        /* \"#utility.yul\":6760:7185   */\n    tag_132:\n        /* \"#utility.yul\":6838:6843   */\n      0x00\n        /* \"#utility.yul\":6863:6929   */\n      tag_231\n        /* \"#utility.yul\":6879:6928   */\n      tag_232\n        /* \"#utility.yul\":6921:6927   */\n      dup5\n        /* \"#utility.yul\":6879:6928   */\n      tag_130\n      jump\t// in\n    tag_232:\n        /* \"#utility.yul\":6863:6929   */\n      tag_129\n      jump\t// in\n    tag_231:\n        /* \"#utility.yul\":6854:6929   */\n      swap1\n      pop\n        /* \"#utility.yul\":6952:6958   */\n      dup3\n        /* \"#utility.yul\":6945:6950   */\n      dup2\n        /* \"#utility.yul\":6938:6959   */\n      mstore\n        /* \"#utility.yul\":6990:6994   */\n      0x20\n        /* \"#utility.yul\":6983:6988   */\n      dup2\n        /* \"#utility.yul\":6979:6995   */\n      add\n        /* \"#utility.yul\":7028:7031   */\n      dup5\n        /* \"#utility.yul\":7019:7025   */\n      dup5\n        /* \"#utility.yul\":7014:7017   */\n      dup5\n        /* \"#utility.yul\":7010:7026   */\n      add\n        /* \"#utility.yul\":7007:7032   */\n      gt\n        /* \"#utility.yul\":7004:7116   */\n      iszero\n      tag_233\n      jumpi\n        /* \"#utility.yul\":7035:7114   */\n      tag_234\n      tag_126\n      jump\t// in\n    tag_234:\n        /* \"#utility.yul\":7004:7116   */\n    tag_233:\n        /* \"#utility.yul\":7125:7179   */\n      tag_235\n        /* \"#utility.yul\":7172:7178   */\n      dup5\n        /* \"#utility.yul\":7167:7170   */\n      dup3\n        /* \"#utility.yul\":7162:7165   */\n      dup6\n        /* \"#utility.yul\":7125:7179   */\n      tag_131\n      jump\t// in\n    tag_235:\n        /* \"#utility.yul\":6844:7185   */\n      pop\n        /* \"#utility.yul\":6760:7185   */\n      swap4\n      swap3\n      pop\n      pop\n      pop\n      jump\t// out\n        /* \"#utility.yul\":7205:7545   */\n    tag_133:\n        /* \"#utility.yul\":7261:7266   */\n      0x00\n        /* \"#utility.yul\":7310:7313   */\n      dup3\n        /* \"#utility.yul\":7303:7307   */\n      0x1f\n        /* \"#utility.yul\":7295:7301   */\n      dup4\n        /* \"#utility.yul\":7291:7308   */\n      add\n        /* \"#utility.yul\":7287:7314   */\n      slt\n        /* \"#utility.yul\":7277:7399   */\n      tag_237\n      jumpi\n        /* \"#utility.yul\":7318:7397   */\n      tag_238\n      tag_125\n      jump\t// in\n    tag_238:\n        /* \"#utility.yul\":7277:7399   */\n    tag_237:\n        /* \"#utility.yul\":7435:7441   */\n      dup2\n        /* \"#utility.yul\":7422:7442   */\n      calldataload\n        /* \"#utility.yul\":7460:7539   */\n      tag_239\n        /* \"#utility.yul\":7535:7538   */\n      dup5\n        /* \"#utility.yul\":7527:7533   */\n      dup3\n        /* \"#utility.yul\":7520:7524   */\n      0x20\n        /* \"#utility.yul\":7512:7518   */\n      dup7\n        /* \"#utility.yul\":7508:7525   */\n      add\n        /* \"#utility.yul\":7460:7539   */\n      tag_132\n      jump\t// in\n    tag_239:\n        /* \"#utility.yul\":7451:7539   */\n      swap2\n      pop\n        /* \"#utility.yul\":7267:7545   */\n      pop\n        /* \"#utility.yul\":7205:7545   */\n      swap3\n      swap2\n      pop\n      pop\n      jump\t// out\n        /* \"#utility.yul\":7551:8350   */\n    tag_54:\n        /* \"#utility.yul\":7638:7644   */\n      0x00\n        /* \"#utility.yul\":7646:7652   */\n      dup1\n        /* \"#utility.yul\":7654:7660   */\n      0x00\n        /* \"#utility.yul\":7703:7705   */\n      0x60\n        /* \"#utility.yul\":7691:7700   */\n      dup5\n        /* \"#utility.yul\":7682:7689   */\n      dup7\n        /* \"#utility.yul\":7678:7701   */\n      sub\n        /* \"#utility.yul\":7674:7706   */\n      slt\n        /* \"#utility.yul\":7671:7790   */\n      iszero\n      tag_241\n      jumpi\n        /* \"#utility.yul\":7709:7788   */\n      tag_242\n      tag_107\n      jump\t// in\n    tag_242:\n        /* \"#utility.yul\":7671:7790   */\n    tag_241:\n        /* \"#utility.yul\":7857:7858   */\n      0x00\n        /* \"#utility.yul\":7846:7855   */\n      dup5\n        /* \"#utility.yul\":7842:7859   */\n      add\n        /* \"#utility.yul\":7829:7860   */\n      calldataload\n        /* \"#utility.yul\":7887:7905   */\n      0xffffffffffffffff\n        /* \"#utility.yul\":7879:7885   */\n      dup2\n        /* \"#utility.yul\":7876:7906   */\n      gt\n        /* \"#utility.yul\":7873:7990   */\n      iszero\n      tag_243\n      jumpi\n        /* \"#utility.yul\":7909:7988   */\n      tag_244\n      tag_108\n      jump\t// in\n    tag_244:\n        /* \"#utility.yul\":7873:7990   */\n    tag_243:\n        /* \"#utility.yul\":8014:8077   */\n      tag_245\n        /* \"#utility.yul\":8069:8076   */\n      dup7\n        /* \"#utility.yul\":8060:8066   */\n      dup3\n        /* \"#utility.yul\":8049:8058   */\n      dup8\n        /* \"#utility.yul\":8045:8067   */\n      add\n        /* \"#utility.yul\":8014:8077   */\n      tag_133\n      jump\t// in\n    tag_245:\n        /* \"#utility.yul\":8004:8077   */\n      swap4\n      pop\n        /* \"#utility.yul\":7800:8087   */\n      pop\n        /* \"#utility.yul\":8126:8128   */\n      0x20\n        /* \"#utility.yul\":8152:8205   */\n      tag_246\n        /* \"#utility.yul\":8197:8204   */\n      dup7\n        /* \"#utility.yul\":8188:8194   */\n      dup3\n        /* \"#utility.yul\":8177:8186   */\n      dup8\n        /* \"#utility.yul\":8173:8195   */\n      add\n        /* \"#utility.yul\":8152:8205   */\n      tag_111\n      jump\t// in\n    tag_246:\n        /* \"#utility.yul\":8142:8205   */\n      swap3\n      pop\n        /* \"#utility.yul\":8097:8215   */\n      pop\n        /* \"#utility.yul\":8254:8256   */\n      0x40\n        /* \"#utility.yul\":8280:8333   */\n      tag_247\n        /* \"#utility.yul\":8325:8332   */\n      dup7\n        /* \"#utility.yul\":8316:8322   */\n      dup3\n        /* \"#utility.yul\":8305:8314   */\n      dup8\n        /* \"#utility.yul\":8301:8323   */\n      add\n        /* \"#utility.yul\":8280:8333   */\n      tag_115\n      jump\t// in\n    tag_247:\n        /* \"#utility.yul\":8270:8333   */\n      swap2\n      pop\n        /* \"#utility.yul\":8225:8343   */\n      pop\n        /* \"#utility.yul\":7551:8350   */\n      swap3\n      pop\n      swap3\n      pop\n      swap3\n      jump\t// out\n        /* \"#utility.yul\":8356:8536   */\n    tag_71:\n        /* \"#utility.yul\":8404:8481   */\n      0x4e487b7100000000000000000000000000000000000000000000000000000000\n        /* \"#utility.yul\":8401:8402   */\n      0x00\n        /* \"#utility.yul\":8394:8482   */\n      mstore\n        /* \"#utility.yul\":8501:8505   */\n      0x32\n        /* \"#utility.yul\":8498:8499   */\n      0x04\n        /* \"#utility.yul\":8491:8506   */\n      mstore\n        /* \"#utility.yul\":8525:8529   */\n      0x24\n        /* \"#utility.yul\":8522:8523   */\n      0x00\n        /* \"#utility.yul\":8515:8530   */\n      revert\n        /* \"#utility.yul\":8542:8722   */\n    tag_134:\n        /* \"#utility.yul\":8590:8667   */\n      0x4e487b7100000000000000000000000000000000000000000000000000000000\n        /* \"#utility.yul\":8587:8588   */\n      0x00\n        /* \"#utility.yul\":8580:8668   */\n      mstore\n        /* \"#utility.yul\":8687:8691   */\n      0x12\n        /* \"#utility.yul\":8684:8685   */\n      0x04\n        /* \"#utility.yul\":8677:8692   */\n      mstore\n        /* \"#utility.yul\":8711:8715   */\n      0x24\n        /* \"#utility.yul\":8708:8709   */\n      0x00\n        /* \"#utility.yul\":8701:8716   */\n      revert\n        /* \"#utility.yul\":8728:8908   */\n    tag_135:\n        /* \"#utility.yul\":8776:8853   */\n      0x4e487b7100000000000000000000000000000000000000000000000000000000\n        /* \"#utility.yul\":8773:8774   */\n      0x00\n        /* \"#utility.yul\":8766:8854   */\n      mstore\n        /* \"#utility.yul\":8873:8877   */\n      0x11\n        /* \"#utility.yul\":8870:8871   */\n      0x04\n        /* \"#utility.yul\":8863:8878   */\n      mstore\n        /* \"#utility.yul\":8897:8901   */\n      0x24\n        /* \"#utility.yul\":8894:8895   */\n      0x00\n        /* \"#utility.yul\":8887:8902   */\n      revert\n        /* \"#utility.yul\":8914:9099   */\n    tag_74:\n        /* \"#utility.yul\":8954:8955   */\n      0x00\n        /* \"#utility.yul\":8971:8991   */\n      tag_252\n        /* \"#utility.yul\":8989:8990   */\n      dup3\n        /* \"#utility.yul\":8971:8991   */\n      tag_109\n      jump\t// in\n    tag_252:\n        /* \"#utility.yul\":8966:8991   */\n      swap2\n      pop\n        /* \"#utility.yul\":9005:9025   */\n      tag_253\n        /* \"#utility.yul\":9023:9024   */\n      dup4\n        /* \"#utility.yul\":9005:9025   */\n      tag_109\n      jump\t// in\n    tag_253:\n        /* \"#utility.yul\":9000:9025   */\n      swap3\n      pop\n        /* \"#utility.yul\":9044:9045   */\n      dup3\n        /* \"#utility.yul\":9034:9069   */\n      tag_254\n      jumpi\n        /* \"#utility.yul\":9049:9067   */\n      tag_255\n      tag_134\n      jump\t// in\n    tag_255:\n        /* \"#utility.yul\":9034:9069   */\n    tag_254:\n        /* \"#utility.yul\":9091:9092   */\n      dup3\n        /* \"#utility.yul\":9088:9089   */\n      dup3\n        /* \"#utility.yul\":9084:9093   */\n      div\n        /* \"#utility.yul\":9079:9093   */\n      swap1\n      pop\n        /* \"#utility.yul\":8914:9099   */\n      swap3\n      swap2\n      pop\n      pop\n      jump\t// out\n        /* \"#utility.yul\":9105:9285   */\n    tag_136:\n        /* \"#utility.yul\":9153:9230   */\n      0x4e487b7100000000000000000000000000000000000000000000000000000000\n        /* \"#utility.yul\":9150:9151   */\n      0x00\n        /* \"#utility.yul\":9143:9231   */\n      mstore\n        /* \"#utility.yul\":9250:9254   */\n      0x22\n        /* \"#utility.yul\":9247:9248   */\n      0x04\n        /* \"#utility.yul\":9240:9255   */\n      mstore\n        /* \"#utility.yul\":9274:9278   */\n      0x24\n        /* \"#utility.yul\":9271:9272   */\n      0x00\n        /* \"#utility.yul\":9264:9279   */\n      revert\n        /* \"#utility.yul\":9291:9611   */\n    tag_84:\n        /* \"#utility.yul\":9335:9341   */\n      0x00\n        /* \"#utility.yul\":9372:9373   */\n      0x02\n        /* \"#utility.yul\":9366:9370   */\n      dup3\n        /* \"#utility.yul\":9362:9374   */\n      div\n        /* \"#utility.yul\":9352:9374   */\n      swap1\n      pop\n        /* \"#utility.yul\":9419:9420   */\n      0x01\n        /* \"#utility.yul\":9413:9417   */\n      dup3\n        /* \"#utility.yul\":9409:9421   */\n      and\n        /* \"#utility.yul\":9440:9458   */\n      dup1\n        /* \"#utility.yul\":9430:9511   */\n      tag_258\n      jumpi\n        /* \"#utility.yul\":9496:9500   */\n      0x7f\n        /* \"#utility.yul\":9488:9494   */\n      dup3\n        /* \"#utility.yul\":9484:9501   */\n      and\n        /* \"#utility.yul\":9474:9501   */\n      swap2\n      pop\n        /* \"#utility.yul\":9430:9511   */\n    tag_258:\n        /* \"#utility.yul\":9558:9560   */\n      0x20\n        /* \"#utility.yul\":9550:9556   */\n      dup3\n        /* \"#utility.yul\":9547:9561   */\n      lt\n        /* \"#utility.yul\":9527:9545   */\n      dup2\n        /* \"#utility.yul\":9524:9562   */\n      sub\n        /* \"#utility.yul\":9521:9605   */\n      tag_259\n      jumpi\n        /* \"#utility.yul\":9577:9595   */\n      tag_260\n      tag_136\n      jump\t// in\n    tag_260:\n        /* \"#utility.yul\":9521:9605   */\n    tag_259:\n        /* \"#utility.yul\":9342:9611   */\n      pop\n        /* \"#utility.yul\":9291:9611   */\n      swap2\n      swap1\n      pop\n      jump\t// out\n        /* \"#utility.yul\":9617:9758   */\n    tag_137:\n        /* \"#utility.yul\":9666:9670   */\n      0x00\n        /* \"#utility.yul\":9689:9692   */\n      dup2\n        /* \"#utility.yul\":9681:9692   */\n      swap1\n      pop\n        /* \"#utility.yul\":9712:9715   */\n      dup2\n        /* \"#utility.yul\":9709:9710   */\n      0x00\n        /* \"#utility.yul\":9702:9716   */\n      mstore\n        /* \"#utility.yul\":9746:9750   */\n      0x20\n        /* \"#utility.yul\":9743:9744   */\n      0x00\n        /* \"#utility.yul\":9733:9751   */\n      keccak256\n        /* \"#utility.yul\":9725:9751   */\n      swap1\n      pop\n        /* \"#utility.yul\":9617:9758   */\n      swap2\n      swap1\n      pop\n      jump\t// out\n        /* \"#utility.yul\":9764:9857   */\n    tag_138:\n        /* \"#utility.yul\":9801:9807   */\n      0x00\n        /* \"#utility.yul\":9848:9850   */\n      0x20\n        /* \"#utility.yul\":9843:9845   */\n      0x1f\n        /* \"#utility.yul\":9836:9841   */\n      dup4\n        /* \"#utility.yul\":9832:9846   */\n      add\n        /* \"#utility.yul\":9828:9851   */\n      div\n        /* \"#utility.yul\":9818:9851   */\n      swap1\n      pop\n        /* \"#utility.yul\":9764:9857   */\n      swap2\n      swap1\n      pop\n      jump\t// out\n        /* \"#utility.yul\":9863:9970   */\n    tag_139:\n        /* \"#utility.yul\":9907:9915   */\n      0x00\n        /* \"#utility.yul\":9957:9962   */\n      dup3\n        /* \"#utility.yul\":9951:9955   */\n      dup3\n        /* \"#utility.yul\":9947:9963   */\n      shl\n        /* \"#utility.yul\":9926:9963   */\n      swap1\n      pop\n        /* \"#utility.yul\":9863:9970   */\n      swap3\n      swap2\n      pop\n      pop\n      jump\t// out\n        /* \"#utility.yul\":9976:10369   */\n    tag_140:\n        /* \"#utility.yul\":10045:10051   */\n      0x00\n        /* \"#utility.yul\":10095:10096   */\n      0x08\n        /* \"#utility.yul\":10083:10093   */\n      dup4\n        /* \"#utility.yul\":10079:10097   */\n      mul\n        /* \"#utility.yul\":10118:10215   */\n      tag_265\n        /* \"#utility.yul\":10148:10214   */\n      0xffffffffffffffffffffffffffffffffffffffffffffffffffffffffffffffff\n        /* \"#utility.yul\":10137:10146   */\n      dup3\n        /* \"#utility.yul\":10118:10215   */\n      tag_139\n      jump\t// in\n    tag_265:\n        /* \"#utility.yul\":10236:10275   */\n      tag_266\n        /* \"#utility.yul\":10266:10274   */\n      dup7\n        /* \"#utility.yul\":10255:10264   */\n      dup4\n        /* \"#utility.yul\":10236:10275   */\n      tag_139\n      jump\t// in\n    tag_266:\n        /* \"#utility.yul\":10224:10275   */\n      swap6\n      pop\n        /* \"#utility.yul\":10308:10312   */\n      dup1\n        /* \"#utility.yul\":10304:10313   */\n      not\n        /* \"#utility.yul\":10297:10302   */\n      dup5\n        /* \"#utility.yul\":10293:10314   */\n      and\n        /* \"#utility.yul\":10284:10314   */\n      swap4\n      pop\n        /* \"#utility.yul\":10357:10361   */\n      dup1\n        /* \"#utility.yul\":10347:10355   */\n      dup7\n        /* \"#utility.yul\":10343:10362   */\n      and\n        /* \"#utility.yul\":10336:10341   */\n      dup5\n        /* \"#utility.yul\":10333:10363   */\n      or\n        /* \"#utility.yul\":10323:10363   */\n      swap3\n      pop\n        /* \"#utility.yul\":10052:10369   */\n      pop\n      pop\n        /* \"#utility.yul\":9976:10369   */\n      swap4\n      swap3\n      pop\n      pop\n      pop\n      jump\t// out\n        /* \"#utility.yul\":10375:10435   */\n    tag_141:\n        /* \"#utility.yul\":10403:10406   */\n      0x00\n        /* \"#utility.yul\":10424:10429   */\n      dup2\n        /* \"#utility.yul\":10417:10429   */\n      swap1\n      pop\n        /* \"#utility.yul\":10375:10435   */\n      swap2\n      swap1\n      pop\n      jump\t// out\n        /* \"#utility.yul\":10441:10583   */\n    tag_142:\n        /* \"#utility.yul\":10491:10500   */\n      0x00\n        /* \"#utility.yul\":10524:10577   */\n      tag_269\n        /* \"#utility.yul\":10542:10576   */\n      tag_270\n        /* \"#utility.yul\":10551:10575   */\n      tag_271\n        /* \"#utility.yul\":10569:10574   */\n      dup5\n        /* \"#utility.yul\":10551:10575   */\n      tag_109\n      jump\t// in\n    tag_271:\n        /* \"#utility.yul\":10542:10576   */\n      tag_141\n      jump\t// in\n    tag_270:\n        /* \"#utility.yul\":10524:10577   */\n      tag_109\n      jump\t// in\n    tag_269:\n        /* \"#utility.yul\":10511:10577   */\n      swap1\n      pop\n        /* \"#utility.yul\":10441:10583   */\n      swap2\n      swap1\n      pop\n      jump\t// out\n        /* \"#utility.yul\":10589:10664   */\n    tag_143:\n        /* \"#utility.yul\":10632:10635   */\n      0x00\n        /* \"#utility.yul\":10653:10658   */\n      dup2\n        /* \"#utility.yul\":10646:10658   */\n      swap1\n      pop\n        /* \"#utility.yul\":10589:10664   */\n      swap2\n      swap1\n      pop\n      jump\t// out\n        /* \"#utility.yul\":10670:10939   */\n    tag_144:\n        /* \"#utility.yul\":10780:10819   */\n      tag_274\n        /* \"#utility.yul\":10811:10818   */\n      dup4\n        /* \"#utility.yul\":10780:10819   */\n      tag_142\n      jump\t// in\n    tag_274:\n        /* \"#utility.yul\":10841:10932   */\n      tag_275\n        /* \"#utility.yul\":10890:10931   */\n      tag_276\n        /* \"#utility.yul\":10914:10930   */\n      dup3\n        /* \"#utility.yul\":10890:10931   */\n      tag_143\n      jump\t// in\n    tag_276:\n        /* \"#utility.yul\":10882:10888   */\n      dup5\n        /* \"#utility.yul\":10875:10879   */\n      dup5\n        /* \"#utility.yul\":10869:10880   */\n      sload\n        /* \"#utility.yul\":10841:10932   */\n      tag_140\n      jump\t// in\n    tag_275:\n        /* \"#utility.yul\":10835:10839   */\n      dup3\n        /* \"#utility.yul\":10828:10933   */\n      sstore\n        /* \"#utility.yul\":10746:10939   */\n      pop\n        /* \"#utility.yul\":10670:10939   */\n      pop\n      pop\n      pop\n      jump\t// out\n        /* \"#utility.yul\":10945:11018   */\n    tag_145:\n        /* \"#utility.yul\":10990:10993   */\n      0x00\n        /* \"#utility.yul\":10945:11018   */\n      swap1\n      jump\t// out\n        /* \"#utility.yul\":11024:11213   */\n    tag_146:\n        /* \"#utility.yul\":11101:11133   */\n      tag_279\n      tag_145\n      jump\t// in\n    tag_279:\n        /* \"#utility.yul\":11142:11207   */\n      tag_280\n        /* \"#utility.yul\":11200:11206   */\n      dup2\n        /* \"#utility.yul\":11192:11198   */\n      dup5\n        /* \"#utility.yul\":11186:11190   */\n      dup5\n        /* \"#utility.yul\":11142:11207   */\n      tag_144\n      jump\t// in\n    tag_280:\n        /* \"#utility.yul\":11077:11213   */\n      pop\n        /* \"#utility.yul\":11024:11213   */\n      pop\n      pop\n      jump\t// out\n        /* \"#utility.yul\":11219:11405   */\n    tag_147:\n        /* \"#utility.yul\":11279:11399   */\n    tag_282:\n        /* \"#utility.yul\":11296:11299   */\n      dup2\n        /* \"#utility.yul\":11289:11294   */\n      dup2\n        /* \"#utility.yul\":11286:11300   */\n      lt\n        /* \"#utility.yul\":11279:11399   */\n      iszero\n      tag_284\n      jumpi\n        /* \"#utility.yul\":11350:11389   */\n      tag_285\n        /* \"#utility.yul\":11387:11388   */\n      0x00\n        /* \"#utility.yul\":11380:11385   */\n      dup3\n        /* \"#utility.yul\":11350:11389   */\n      tag_146\n      jump\t// in\n    tag_285:\n        /* \"#utility.yul\":11323:11324   */\n      0x01\n        /* \"#utility.yul\":11316:11321   */\n      dup2\n        /* \"#utility.yul\":11312:11325   */\n      add\n        /* \"#utility.yul\":11303:11325   */\n      swap1\n      pop\n        /* \"#utility.yul\":11279:11399   */\n      jump(tag_282)\n    tag_284:\n        /* \"#utility.yul\":11219:11405   */\n      pop\n      pop\n      jump\t// out\n        /* \"#utility.yul\":11411:11954   */\n    tag_148:\n        /* \"#utility.yul\":11512:11514   */\n      0x1f\n        /* \"#utility.yul\":11507:11510   */\n      dup3\n        /* \"#utility.yul\":11504:11515   */\n      gt\n        /* \"#utility.yul\":11501:11947   */\n      iszero\n      tag_287\n      jumpi\n        /* \"#utility.yul\":11546:11584   */\n      tag_288\n        /* \"#utility.yul\":11578:11583   */\n      dup2\n        /* \"#utility.yul\":11546:11584   */\n      tag_137\n      jump\t// in\n    tag_288:\n        /* \"#utility.yul\":11630:11659   */\n      tag_289\n        /* \"#utility.yul\":11648:11658   */\n      dup5\n        /* \"#utility.yul\":11630:11659   */\n      tag_138\n      jump\t// in\n    tag_289:\n        /* \"#utility.yul\":11620:11628   */\n      dup2\n        /* \"#utility.yul\":11616:11660   */\n      add\n        /* \"#utility.yul\":11813:11815   */\n      0x20\n        /* \"#utility.yul\":11801:11811   */\n      dup6\n        /* \"#utility.yul\":11798:11816   */\n      lt\n        /* \"#utility.yul\":11795:11844   */\n      iszero\n      tag_290\n      jumpi\n        /* \"#utility.yul\":11834:11842   */\n      dup2\n        /* \"#utility.yul\":11819:11842   */\n      swap1\n      pop\n        /* \"#utility.yul\":11795:11844   */\n    tag_290:\n        /* \"#utility.yul\":11857:11937   */\n      tag_291\n        /* \"#utility.yul\":11913:11935   */\n      tag_292\n        /* \"#utility.yul\":11931:11934   */\n      dup6\n        /* \"#utility.yul\":11913:11935   */\n      tag_138\n      jump\t// in\n    tag_292:\n        /* \"#utility.yul\":11903:11911   */\n      dup4\n        /* \"#utility.yul\":11899:11936   */\n      add\n        /* \"#utility.yul\":11886:11897   */\n      dup3\n        /* \"#utility.yul\":11857:11937   */\n      tag_147\n      jump\t// in\n    tag_291:\n        /* \"#utility.yul\":11516:11947   */\n      pop\n      pop\n        /* \"#utility.yul\":11501:11947   */\n    tag_287:\n        /* \"#utility.yul\":11411:11954   */\n      pop\n      pop\n      pop\n      jump\t// out\n        /* \"#utility.yul\":11960:12077   */\n    tag_149:\n        /* \"#utility.yul\":12014:12022   */\n      0x00\n        /* \"#utility.yul\":12064:12069   */\n      dup3\n        /* \"#utility.yul\":12058:12062   */\n      dup3\n        /* \"#utility.yul\":12054:12070   */\n      shr\n        /* \"#utility.yul\":12033:12070   */\n      swap1\n      pop\n        /* \"#utility.yul\":11960:12077   */\n      swap3\n      swap2\n      pop\n      pop\n      jump\t// out\n        /* \"#utility.yul\":12083:12252   */\n    tag_150:\n        /* \"#utility.yul\":12127:12133   */\n      0x00\n        /* \"#utility.yul\":12160:12211   */\n      tag_295\n        /* \"#utility.yul\":12208:12209   */\n      0x00\n        /* \"#utility.yul\":12204:12210   */\n      not\n        /* \"#utility.yul\":12196:12201   */\n      dup5\n        /* \"#utility.yul\":12193:12194   */\n      0x08\n        /* \"#utility.yul\":12189:12202   */\n      mul\n        /* \"#utility.yul\":12160:12211   */\n      tag_149\n      jump\t// in\n    tag_295:\n        /* \"#utility.yul\":12156:12212   */\n      not\n        /* \"#utility.yul\":12241:12245   */\n      dup1\n        /* \"#utility.yul\":12235:12239   */\n      dup4\n        /* \"#utility.yul\":12231:12246   */\n      and\n        /* \"#utility.yul\":12221:12246   */\n      swap2\n      pop\n        /* \"#utility.yul\":12134:12252   */\n      pop\n        /* \"#utility.yul\":12083:12252   */\n      swap3\n      swap2\n      pop\n      pop\n      jump\t// out\n        /* \"#utility.yul\":12257:12552   */\n    tag_151:\n        /* \"#utility.yul\":12333:12337   */\n      0x00\n        /* \"#utility.yul\":12479:12508   */\n      tag_297\n        /* \"#utility.yul\":12504:12507   */\n      dup4\n        /* \"#utility.yul\":12498:12502   */\n      dup4\n        /* \"#utility.yul\":12479:12508   */\n      tag_150\n      jump\t// in\n    tag_297:\n        /* \"#utility.yul\":12471:12508   */\n      swap2\n      pop\n        /* \"#utility.yul\":12541:12544   */\n      dup3\n        /* \"#utility.yul\":12538:12539   */\n      0x02\n        /* \"#utility.yul\":12534:12545   */\n      mul\n        /* \"#utility.yul\":12528:12532   */\n      dup3\n        /* \"#utility.yul\":12525:12546   */\n      or\n        /* \"#utility.yul\":12517:12546   */\n      swap1\n      pop\n        /* \"#utility.yul\":12257:12552   */\n      swap3\n      swap2\n      pop\n      pop\n      jump\t// out\n        /* \"#utility.yul\":12557:13952   */\n    tag_94:\n        /* \"#utility.yul\":12674:12711   */\n      tag_299\n        /* \"#utility.yul\":12707:12710   */\n      dup3\n        /* \"#utility.yul\":12674:12711   */\n      tag_120\n      jump\t// in\n    tag_299:\n        /* \"#utility.yul\":12776:12794   */\n      0xffffffffffffffff\n        /* \"#utility.yul\":12768:12774   */\n      dup2\n        /* \"#utility.yul\":12765:12795   */\n      gt\n        /* \"#utility.yul\":12762:12818   */\n      iszero\n      tag_300\n      jumpi\n        /* \"#utility.yul\":12798:12816   */\n      tag_301\n      tag_127\n      jump\t// in\n    tag_301:\n        /* \"#utility.yul\":12762:12818   */\n    tag_300:\n        /* \"#utility.yul\":12842:12880   */\n      tag_302\n        /* \"#utility.yul\":12874:12878   */\n      dup3\n        /* \"#utility.yul\":12868:12879   */\n      sload\n        /* \"#utility.yul\":12842:12880   */\n      tag_84\n      jump\t// in\n    tag_302:\n        /* \"#utility.yul\":12927:12994   */\n      tag_303\n        /* \"#utility.yul\":12987:12993   */\n      dup3\n        /* \"#utility.yul\":12979:12985   */\n      dup3\n        /* \"#utility.yul\":12973:12977   */\n      dup6\n        /* \"#utility.yul\":12927:12994   */\n      tag_148\n      jump\t// in\n    tag_303:\n        /* \"#utility.yul\":13021:13022   */\n      0x00\n        /* \"#utility.yul\":13045:13049   */\n      0x20\n        /* \"#utility.yul\":13032:13049   */\n      swap1\n      pop\n        /* \"#utility.yul\":13077:13079   */\n      0x1f\n        /* \"#utility.yul\":13069:13075   */\n      dup4\n        /* \"#utility.yul\":13066:13080   */\n      gt\n        /* \"#utility.yul\":13094:13095   */\n      0x01\n        /* \"#utility.yul\":13089:13707   */\n      dup2\n      eq\n      tag_305\n      jumpi\n        /* \"#utility.yul\":13751:13752   */\n      0x00\n        /* \"#utility.yul\":13768:13774   */\n      dup5\n        /* \"#utility.yul\":13765:13842   */\n      iszero\n      tag_306\n      jumpi\n        /* \"#utility.yul\":13817:13826   */\n      dup3\n        /* \"#utility.yul\":13812:13815   */\n      dup8\n        /* \"#utility.yul\":13808:13827   */\n      add\n        /* \"#utility.yul\":13802:13828   */\n      mload\n        /* \"#utility.yul\":13793:13828   */\n      swap1\n      pop\n        /* \"#utility.yul\":13765:13842   */\n    tag_306:\n        /* \"#utility.yul\":13868:13935   */\n      tag_307\n        /* \"#utility.yul\":13928:13934   */\n      dup6\n        /* \"#utility.yul\":13921:13926   */\n      dup3\n        /* \"#utility.yul\":13868:13935   */\n      tag_151\n      jump\t// in\n    tag_307:\n        /* \"#utility.yul\":13862:13866   */\n      dup7\n        /* \"#utility.yul\":13855:13936   */\n      sstore\n        /* \"#utility.yul\":13724:13946   */\n      pop\n        /* \"#utility.yul\":13059:13946   */\n      jump(tag_304)\n        /* \"#utility.yul\":13089:13707   */\n    tag_305:\n        /* \"#utility.yul\":13141:13145   */\n      0x1f\n        /* \"#utility.yul\":13137:13146   */\n      not\n        /* \"#utility.yul\":13129:13135   */\n      dup5\n        /* \"#utility.yul\":13125:13147   */\n      and\n        /* \"#utility.yul\":13175:13212   */\n      tag_308\n        /* \"#utility.yul\":13207:13211   */\n      dup7\n        /* \"#utility.yul\":13175:13212   */\n      tag_137\n      jump\t// in\n    tag_308:\n        /* \"#utility.yul\":13234:13235   */\n      0x00\n        /* \"#utility.yul\":13248:13456   */\n    tag_309:\n        /* \"#utility.yul\":13262:13269   */\n      dup3\n        /* \"#utility.yul\":13259:13260   */\n      dup2\n        /* \"#utility.yul\":13256:13270   */\n      lt\n        /* \"#utility.yul\":13248:13456   */\n      iszero\n      tag_311\n      jumpi\n        /* \"#utility.yul\":13341:13350   */\n      dup5\n        /* \"#utility.yul\":13336:13339   */\n      dup10\n        /* \"#utility.yul\":13332:13351   */\n      add\n        /* \"#utility.yul\":13326:13352   */\n      mload\n        /* \"#utility.yul\":13318:13324   */\n      dup3\n        /* \"#utility.yul\":13311:13353   */\n      sstore\n        /* \"#utility.yul\":13392:13393   */\n      0x01\n        /* \"#utility.yul\":13384:13390   */\n      dup3\n        /* \"#utility.yul\":13380:13394   */\n      add\n        /* \"#utility.yul\":13370:13394   */\n      swap2\n      pop\n        /* \"#utility.yul\":13439:13441   */\n      0x20\n        /* \"#utility.yul\":13428:13437   */\n      dup6\n        /* \"#utility.yul\":13424:13442   */\n      add\n        /* \"#utility.yul\":13411:13442   */\n      swap5\n      pop\n        /* \"#utility.yul\":13285:13289   */\n      0x20\n        /* \"#utility.yul\":13282:13283   */\n      dup2\n        /* \"#utility.yul\":13278:13290   */\n      add\n        /* \"#utility.yul\":13273:13290   */\n      swap1\n      pop\n        /* \"#utility.yul\":13248:13456   */\n      jump(tag_309)\n    tag_311:\n        /* \"#utility.yul\":13484:13490   */\n      dup7\n        /* \"#utility.yul\":13475:13482   */\n      dup4\n        /* \"#utility.yul\":13472:13491   */\n      lt\n        /* \"#utility.yul\":13469:13648   */\n      iszero\n      tag_312\n      jumpi\n        /* \"#utility.yul\":13542:13551   */\n      dup5\n        /* \"#utility.yul\":13537:13540   */\n      dup10\n        /* \"#utility.yul\":13533:13552   */\n      add\n        /* \"#utility.yul\":13527:13553   */\n      mload\n        /* \"#utility.yul\":13585:13633   */\n      tag_313\n        /* \"#utility.yul\":13627:13631   */\n      0x1f\n        /* \"#utility.yul\":13619:13625   */\n      dup10\n        /* \"#utility.yul\":13615:13632   */\n      and\n        /* \"#utility.yul\":13604:13613   */\n      dup3\n        /* \"#utility.yul\":13585:13633   */\n      tag_150\n      jump\t// in\n    tag_313:\n        /* \"#utility.yul\":13577:13583   */\n      dup4\n        /* \"#utility.yul\":13570:13634   */\n      sstore\n        /* \"#utility.yul\":13492:13648   */\n      pop\n        /* \"#utility.yul\":13469:13648   */\n    tag_312:\n        /* \"#utility.yul\":13694:13695   */\n      0x01\n        /* \"#utility.yul\":13690:13691   */\n      0x02\n        /* \"#utility.yul\":13682:13688   */\n      dup9\n        /* \"#utility.yul\":13678:13692   */\n      mul\n        /* \"#utility.yul\":13674:13696   */\n      add\n        /* \"#utility.yul\":13668:13672   */\n      dup9\n        /* \"#utility.yul\":13661:13697   */\n      sstore\n        /* \"#utility.yul\":13096:13707   */\n      pop\n      pop\n      pop\n        /* \"#utility.yul\":13059:13946   */\n    tag_304:\n      pop\n        /* \"#utility.yul\":12649:13952   */\n      pop\n      pop\n      pop\n        /* \"#utility.yul\":12557:13952   */\n      pop\n      pop\n      jump\t// out\n        /* \"#utility.yul\":13958:14191   */\n    tag_98:\n        /* \"#utility.yul\":13997:14000   */\n      0x00\n        /* \"#utility.yul\":14020:14044   */\n      tag_315\n        /* \"#utility.yul\":14038:14043   */\n      dup3\n        /* \"#utility.yul\":14020:14044   */\n      tag_109\n      jump\t// in\n    tag_315:\n        /* \"#utility.yul\":14011:14044   */\n      swap2\n      pop\n        /* \"#utility.yul\":14066:14132   */\n      0xffffffffffffffffffffffffffffffffffffffffffffffffffffffffffffffff\n        /* \"#utility.yul\":14059:14064   */\n      dup3\n        /* \"#utility.yul\":14056:14133   */\n      sub\n        /* \"#utility.yul\":14053:14156   */\n      tag_316\n      jumpi\n        /* \"#utility.yul\":14136:14154   */\n      tag_317\n      tag_135\n      jump\t// in\n    tag_317:\n        /* \"#utility.yul\":14053:14156   */\n    tag_316:\n        /* \"#utility.yul\":14183:14184   */\n      0x01\n        /* \"#utility.yul\":14176:14181   */\n      dup3\n        /* \"#utility.yul\":14172:14185   */\n      add\n        /* \"#utility.yul\":14165:14185   */\n      swap1\n      pop\n        /* \"#utility.yul\":13958:14191   */\n      swap2\n      swap1\n      pop\n      jump\t// out\n\n    auxdata: 0xa2646970667358221220180c0682731f8591b355b453ba3432905f6d9a028b9f79702f9ddce98fb69e1864736f6c63430008120033\n}\n","bytecode":{"linkReferences":{},"object":"60806040523480156200001157600080fd5b50604051620012483803806200124883398181016040528101906200003791906200012c565b80600160006101000a81548173ffffffffffffffffffffffffffffffffffffffff021916908373ffffffffffffffffffffffffffffffffffffffff16021790555081600281905550505062000173565b600080fd5b6000819050919050565b620000a1816200008c565b8114620000ad57600080fd5b50565b600081519050620000c18162000096565b92915050565b600073ffffffffffffffffffffffffffffffffffffffff82169050919050565b6000620000f482620000c7565b9050919050565b6200010681620000e7565b81146200011257600080fd5b50565b6000815190506200012681620000fb565b92915050565b6000806040838503121562000146576200014562000087565b5b60006200015685828601620000b0565b9250506020620001698582860162000115565b9150509250929050565b6110c580620001836000396000f3fe60806040526004361061009c5760003560e01c806381d12c581161006457806381d12c581461018c57806382fde093146101cd5780638a9cfd55146101f8578063937e09b114610221578063d7bb99ba1461024c578063d7d1bbdb146102565761009c565b806303441006146100a15780630a144391146100ca5780633410452a146101075780634051ddac14610132578063481c6a7514610161575b600080fd5b3480156100ad57600080fd5b506100c860048036038101906100c39190610888565b61027f565b005b3480156100d657600080fd5b506100f160048036038101906100ec9190610913565b6103c8565b6040516100fe919061095b565b60405180910390f35b34801561011357600080fd5b5061011c6103e8565b6040516101299190610985565b60405180910390f35b34801561013e57600080fd5b506101476103f4565b6040516101589594939291906109af565b60405180910390f35b34801561016d57600080fd5b5061017661043d565b6040516101839190610a02565b60405180910390f35b34801561019857600080fd5b506101b360048036038101906101ae9190610888565b610463565b6040516101c4959493929190610aad565b60405180910390f35b3480156101d957600080fd5b506101e261055e565b6040516101ef9190610985565b60405180910390f35b34801561020457600080fd5b5061021f600480360381019061021a9190610c3c565b610564565b005b34801561022d57600080fd5b5061023661066c565b6040516102439190610985565b60405180910390f35b610254610672565b005b34801561026257600080fd5b5061027d60048036038101906102789190610888565b6106f2565b005b600160009054906101000a900473ffffffffffffffffffffffffffffffffffffffff1673ffffffffffffffffffffffffffffffffffffffff163373ffffffffffffffffffffffffffffffffffffffff16146102d957600080fd5b60008082815481106102ee576102ed610cab565b5b90600052602060002090600502019050600260045461030d9190610d38565b81600301541161031c57600080fd5b8060020160149054906101000a900460ff161561033857600080fd5b8060020160009054906101000a900473ffffffffffffffffffffffffffffffffffffffff1673ffffffffffffffffffffffffffffffffffffffff166108fc82600101549081150290604051600060405180830381858888f193505050501580156103a6573d6000803e3d6000fd5b5060018160020160146101000a81548160ff0219169083151502179055505050565b60036020528060005260406000206000915054906101000a900460ff1681565b60008080549050905090565b600080600080600060025447600080549050600454600160009054906101000a900473ffffffffffffffffffffffffffffffffffffffff16945094509450945094509091929394565b600160009054906101000a900473ffffffffffffffffffffffffffffffffffffffff1681565b6000818154811061047357600080fd5b906000526020600020906005020160009150905080600001805461049690610d98565b80601f01602080910402602001604051908101604052809291908181526020018280546104c290610d98565b801561050f5780601f106104e45761010080835404028352916020019161050f565b820191906000526020600020905b8154815290600101906020018083116104f257829003601f168201915b5050505050908060010154908060020160009054906101000a900473ffffffffffffffffffffffffffffffffffffffff16908060020160149054906101000a900460ff16908060030154905085565b60045481565b600160009054906101000a900473ffffffffffffffffffffffffffffffffffffffff1673ffffffffffffffffffffffffffffffffffffffff163373ffffffffffffffffffffffffffffffffffffffff16146105be57600080fd5b6000806001816001815401808255809150500390600052602060002090600502019050838160000190816105f29190610f75565b50828160010181905550818160020160006101000a81548173ffffffffffffffffffffffffffffffffffffffff021916908373ffffffffffffffffffffffffffffffffffffffff16021790555060008160020160146101000a81548160ff0219169083151502179055506000816003018190555050505050565b60025481565b600254341161068057600080fd5b6001600360003373ffffffffffffffffffffffffffffffffffffffff1673ffffffffffffffffffffffffffffffffffffffff16815260200190815260200160002060006101000a81548160ff021916908315150217905550600460008154809291906106eb90611047565b9190505550565b600080828154811061070757610706610cab565b5b90600052602060002090600502019050600360003373ffffffffffffffffffffffffffffffffffffffff1673ffffffffffffffffffffffffffffffffffffffff16815260200190815260200160002060009054906101000a900460ff1661076d57600080fd5b8060040160003373ffffffffffffffffffffffffffffffffffffffff1673ffffffffffffffffffffffffffffffffffffffff16815260200190815260200160002060009054906101000a900460ff16156107c657600080fd5b60018160040160003373ffffffffffffffffffffffffffffffffffffffff1673ffffffffffffffffffffffffffffffffffffffff16815260200190815260200160002060006101000a81548160ff02191690831515021790555080600301600081548092919061083590611047565b91905055505050565b6000604051905090565b600080fd5b600080fd5b6000819050919050565b61086581610852565b811461087057600080fd5b50565b6000813590506108828161085c565b92915050565b60006020828403121561089e5761089d610848565b5b60006108ac84828501610873565b91505092915050565b600073ffffffffffffffffffffffffffffffffffffffff82169050919050565b60006108e0826108b5565b9050919050565b6108f0816108d5565b81146108fb57600080fd5b50565b60008135905061090d816108e7565b92915050565b60006020828403121561092957610928610848565b5b6000610937848285016108fe565b91505092915050565b60008115159050919050565b61095581610940565b82525050565b6000602082019050610970600083018461094c565b92915050565b61097f81610852565b82525050565b600060208201905061099a6000830184610976565b92915050565b6109a9816108d5565b82525050565b600060a0820190506109c46000830188610976565b6109d16020830187610976565b6109de6040830186610976565b6109eb6060830185610976565b6109f860808301846109a0565b9695505050505050565b6000602082019050610a1760008301846109a0565b92915050565b600081519050919050565b600082825260208201905092915050565b60005b83811015610a57578082015181840152602081019050610a3c565b60008484015250505050565b6000601f19601f8301169050919050565b6000610a7f82610a1d565b610a898185610a28565b9350610a99818560208601610a39565b610aa281610a63565b840191505092915050565b600060a0820190508181036000830152610ac78188610a74565b9050610ad66020830187610976565b610ae360408301866109a0565b610af0606083018561094c565b610afd6080830184610976565b9695505050505050565b600080fd5b600080fd5b7f4e487b7100000000000000000000000000000000000000000000000000000000600052604160045260246000fd5b610b4982610a63565b810181811067ffffffffffffffff82111715610b6857610b67610b11565b5b80604052505050565b6000610b7b61083e565b9050610b878282610b40565b919050565b600067ffffffffffffffff821115610ba757610ba6610b11565b5b610bb082610a63565b9050602081019050919050565b82818337600083830152505050565b6000610bdf610bda84610b8c565b610b71565b905082815260208101848484011115610bfb57610bfa610b0c565b5b610c06848285610bbd565b509392505050565b600082601f830112610c2357610c22610b07565b5b8135610c33848260208601610bcc565b91505092915050565b600080600060608486031215610c5557610c54610848565b5b600084013567ffffffffffffffff811115610c7357610c7261084d565b5b610c7f86828701610c0e565b9350506020610c9086828701610873565b9250506040610ca1868287016108fe565b9150509250925092565b7f4e487b7100000000000000000000000000000000000000000000000000000000600052603260045260246000fd5b7f4e487b7100000000000000000000000000000000000000000000000000000000600052601260045260246000fd5b7f4e487b7100000000000000000000000000000000000000000000000000000000600052601160045260246000fd5b6000610d4382610852565b9150610d4e83610852565b925082610d5e57610d5d610cda565b5b828204905092915050565b7f4e487b7100000000000000000000000000000000000000000000000000000000600052602260045260246000fd5b60006002820490506001821680610db057607f821691505b602082108103610dc357610dc2610d69565b5b50919050565b60008190508160005260206000209050919050565b60006020601f8301049050919050565b600082821b905092915050565b600060088302610e2b7fffffffffffffffffffffffffffffffffffffffffffffffffffffffffffffffff82610dee565b610e358683610dee565b95508019841693508086168417925050509392505050565b6000819050919050565b6000610e72610e6d610e6884610852565b610e4d565b610852565b9050919050565b6000819050919050565b610e8c83610e57565b610ea0610e9882610e79565b848454610dfb565b825550505050565b600090565b610eb5610ea8565b610ec0818484610e83565b505050565b5b81811015610ee457610ed9600082610ead565b600181019050610ec6565b5050565b601f821115610f2957610efa81610dc9565b610f0384610dde565b81016020851015610f12578190505b610f26610f1e85610dde565b830182610ec5565b50505b505050565b600082821c905092915050565b6000610f4c60001984600802610f2e565b1980831691505092915050565b6000610f658383610f3b565b9150826002028217905092915050565b610f7e82610a1d565b67ffffffffffffffff811115610f9757610f96610b11565b5b610fa18254610d98565b610fac828285610ee8565b600060209050601f831160018114610fdf5760008415610fcd578287015190505b610fd78582610f59565b86555061103f565b601f198416610fed86610dc9565b60005b8281101561101557848901518255600182019150602085019450602081019050610ff0565b86831015611032578489015161102e601f891682610f3b565b8355505b6001600288020188555050505b505050505050565b600061105282610852565b91507fffffffffffffffffffffffffffffffffffffffffffffffffffffffffffffffff820361108457611083610d09565b5b60018201905091905056fea2646970667358221220180c0682731f8591b355b453ba3432905f6d9a028b9f79702f9ddce98fb69e1864736f6c63430008120033","opcodes":"PUSH1 0x80 PUSH1 0x40 MSTORE CALLVALUE DUP1 ISZERO PUSH3 0x11 JUMPI PUSH1 0x0 DUP1 REVERT JUMPDEST POP PUSH1 0x40 MLOAD PUSH3 0x1248 CODESIZE SUB DUP1 PUSH3 0x1248 DUP4 CODECOPY DUP2 DUP2 ADD PUSH1 0x40 MSTORE DUP2 ADD SWAP1 PUSH3 0x37 SWAP2 SWAP1 PUSH3 0x12C JUMP JUMPDEST DUP1 PUSH1 0x1 PUSH1 0x0 PUSH2 0x100 EXP DUP2 SLOAD DUP2 PUSH20 0xFFFFFFFFFFFFFFFFFFFFFFFFFFFFFFFFFFFFFFFF MUL NOT AND SWAP1 DUP4 PUSH20 0xFFFFFFFFFFFFFFFFFFFFFFFFFFFFFFFFFFFFFFFF AND MUL OR SWAP1 SSTORE POP DUP2 PUSH1 0x2 DUP2 SWAP1 SSTORE POP POP POP PUSH3 0x173 JUMP JUMPDEST PUSH1 0x0 DUP1 REVERT JUMPDEST PUSH1 0x0 DUP2 SWAP1 POP SWAP2 SWAP1 POP JUMP JUMPDEST PUSH3 0xA1 DUP2 PUSH3 0x8C JUMP JUMPDEST DUP2 EQ PUSH3 0xAD JUMPI PUSH1 0x0 DUP1 REVERT JUMPDEST POP JUMP JUMPDEST PUSH1 0x0 DUP2 MLOAD SWAP1 POP PUSH3 0xC1 DUP2 PUSH3 0x96 JUMP JUMPDEST SWAP3 SWAP2 POP POP JUMP JUMPDEST PUSH1 0x0 PUSH20 0xFFFFFFFFFFFFFFFFFFFFFFFFFFFFFFFFFFFFFFFF DUP3 AND SWAP1 POP SWAP2 SWAP1 POP JUMP JUMPDEST PUSH1 0x0 PUSH3 0xF4 DUP3 PUSH3 0xC7 JUMP JUMPDEST SWAP1 POP SWAP2 SWAP1 POP JUMP JUMPDEST PUSH3 0x106 DUP2 PUSH3 0xE7 JUMP JUMPDEST DUP2 EQ PUSH3 0x112 JUMPI PUSH1 0x0 DUP1 REVERT JUMPDEST POP JUMP JUMPDEST PUSH1 0x0 DUP2 MLOAD SWAP1 POP PUSH3 0x126 DUP2 PUSH3 0xFB JUMP JUMPDEST SWAP3 SWAP2 POP POP JUMP JUMPDEST PUSH1 0x0 DUP1 PUSH1 0x40 DUP4 DUP6 SUB SLT ISZERO PUSH3 0x146 JUMPI PUSH3 0x145 PUSH3 0x87 JUMP JUMPDEST JUMPDEST PUSH1 0x0 PUSH3 0x156 DUP6 DUP3 DUP7 ADD PUSH3 0xB0 JUMP JUMPDEST SWAP3 POP POP PUSH1 0x20 PUSH3 0x169 DUP6 DUP3 DUP7 ADD PUSH3 0x115 JUMP JUMPDEST SWAP2 POP POP SWAP3 POP SWAP3 SWAP1 POP JUMP JUMPDEST PUSH2 0x10C5 DUP1 PUSH3 0x183 PUSH1 0x0 CODECOPY PUSH1 0x0 RETURN INVALID PUSH1 0x80 PUSH1 0x40 MSTORE PUSH1 0x4 CALLDATASIZE LT PUSH2 0x9C JUMPI PUSH1 0x0 CALLDATALOAD PUSH1 0xE0 SHR DUP1 PUSH4 0x81D12C58 GT PUSH2 0x64 JUMPI DUP1 PUSH4 0x81D12C58 EQ PUSH2 0x18C JUMPI DUP1 PUSH4 0x82FDE093 EQ PUSH2 0x1CD JUMPI DUP1 PUSH4 0x8A9CFD55 EQ PUSH2 0x1F8 JUMPI DUP1 PUSH4 0x937E09B1 EQ PUSH2 0x221 JUMPI DUP1 PUSH4 0xD7BB99BA EQ PUSH2 0x24C JUMPI DUP1 PUSH4 0xD7D1BBDB EQ PUSH2 0x256 JUMPI PUSH2 0x9C JUMP JUMPDEST DUP1 PUSH4 0x3441006 EQ PUSH2 0xA1 JUMPI DUP1 PUSH4 0xA144391 EQ PUSH2 0xCA JUMPI DUP1 PUSH4 0x3410452A EQ PUSH2 0x107 JUMPI DUP1 PUSH4 0x4051DDAC EQ PUSH2 0x132 JUMPI DUP1 PUSH4 0x481C6A75 EQ PUSH2 0x161 JUMPI JUMPDEST PUSH1 0x0 DUP1 REVERT JUMPDEST CALLVALUE DUP1 ISZERO PUSH2 0xAD JUMPI PUSH1 0x0 DUP1 REVERT JUMPDEST POP PUSH2 0xC8 PUSH1 0x4 DUP1 CALLDATASIZE SUB DUP2 ADD SWAP1 PUSH2 0xC3 SWAP2 SWAP1 PUSH2 0x888 JUMP JUMPDEST PUSH2 0x27F JUMP JUMPDEST STOP JUMPDEST CALLVALUE DUP1 ISZERO PUSH2 0xD6 JUMPI PUSH1 0x0 DUP1 REVERT JUMPDEST POP PUSH2 0xF1 PUSH1 0x4 DUP1 CALLDATASIZE SUB DUP2 ADD SWAP1 PUSH2 0xEC SWAP2 SWAP1 PUSH2 0x913 JUMP JUMPDEST PUSH2 0x3C8 JUMP JUMPDEST PUSH1 0x40 MLOAD PUSH2 0xFE SWAP2 SWAP1 PUSH2 0x95B JUMP JUMPDEST PUSH1 0x40 MLOAD DUP1 SWAP2 SUB SWAP1 RETURN JUMPDEST CALLVALUE DUP1 ISZERO PUSH2 0x113 JUMPI PUSH1 0x0 DUP1 REVERT JUMPDEST POP PUSH2 0x11C PUSH2 0x3E8 JUMP JUMPDEST PUSH1 0x40 MLOAD PUSH2 0x129 SWAP2 SWAP1 PUSH2 0x985 JUMP JUMPDEST PUSH1 0x40 MLOAD DUP1 SWAP2 SUB SWAP1 RETURN JUMPDEST CALLVALUE DUP1 ISZERO PUSH2 0x13E JUMPI PUSH1 0x0 DUP1 REVERT JUMPDEST POP PUSH2 0x147 PUSH2 0x3F4 JUMP JUMPDEST PUSH1 0x40 MLOAD PUSH2 0x158 SWAP6 SWAP5 SWAP4 SWAP3 SWAP2 SWAP1 PUSH2 0x9AF JUMP JUMPDEST PUSH1 0x40 MLOAD DUP1 SWAP2 SUB SWAP1 RETURN JUMPDEST CALLVALUE DUP1 ISZERO PUSH2 0x16D JUMPI PUSH1 0x0 DUP1 REVERT JUMPDEST POP PUSH2 0x176 PUSH2 0x43D JUMP JUMPDEST PUSH1 0x40 MLOAD PUSH2 0x183 SWAP2 SWAP1 PUSH2 0xA02 JUMP JUMPDEST PUSH1 0x40 MLOAD DUP1 SWAP2 SUB SWAP1 RETURN JUMPDEST CALLVALUE DUP1 ISZERO PUSH2 0x198 JUMPI PUSH1 0x0 DUP1 REVERT JUMPDEST POP PUSH2 0x1B3 PUSH1 0x4 DUP1 CALLDATASIZE SUB DUP2 ADD SWAP1 PUSH2 0x1AE SWAP2 SWAP1 PUSH2 0x888 JUMP JUMPDEST PUSH2 0x463 JUMP JUMPDEST PUSH1 0x40 MLOAD PUSH2 0x1C4 SWAP6 SWAP5 SWAP4 SWAP3 SWAP2 SWAP1 PUSH2 0xAAD JUMP JUMPDEST PUSH1 0x40 MLOAD DUP1 SWAP2 SUB SWAP1 RETURN JUMPDEST CALLVALUE DUP1 ISZERO PUSH2 0x1D9 JUMPI PUSH1 0x0 DUP1 REVERT JUMPDEST POP PUSH2 0x1E2 PUSH2 0x55E JUMP JUMPDEST PUSH1 0x40 MLOAD PUSH2 0x1EF SWAP2 SWAP1 PUSH2 0x985 JUMP JUMPDEST PUSH1 0x40 MLOAD DUP1 SWAP2 SUB SWAP1 RETURN JUMPDEST CALLVALUE DUP1 ISZERO PUSH2 0x204 JUMPI PUSH1 0x0 DUP1 REVERT JUMPDEST POP PUSH2 0x21F PUSH1 0x4 DUP1 CALLDATASIZE SUB DUP2 ADD SWAP1 PUSH2 0x21A SWAP2 SWAP1 PUSH2 0xC3C JUMP JUMPDEST PUSH2 0x564 JUMP JUMPDEST STOP JUMPDEST CALLVALUE DUP1 ISZERO PUSH2 0x22D JUMPI PUSH1 0x0 DUP1 REVERT JUMPDEST POP PUSH2 0x236 PUSH2 0x66C JUMP JUMPDEST PUSH1 0x40 MLOAD PUSH2 0x243 SWAP2 SWAP1 PUSH2 0x985 JUMP JUMPDEST PUSH1 0x40 MLOAD DUP1 SWAP2 SUB SWAP1 RETURN JUMPDEST PUSH2 0x254 PUSH2 0x672 JUMP JUMPDEST STOP JUMPDEST CALLVALUE DUP1 ISZERO PUSH2 0x262 JUMPI PUSH1 0x0 DUP1 REVERT JUMPDEST POP PUSH2 0x27D PUSH1 0x4 DUP1 CALLDATASIZE SUB DUP2 ADD SWAP1 PUSH2 0x278 SWAP2 SWAP1 PUSH2 0x888 JUMP JUMPDEST PUSH2 0x6F2 JUMP JUMPDEST STOP JUMPDEST PUSH1 0x1 PUSH1 0x0 SWAP1 SLOAD SWAP1 PUSH2 0x100 EXP SWAP1 DIV PUSH20 0xFFFFFFFFFFFFFFFFFFFFFFFFFFFFFFFFFFFFFFFF AND PUSH20 0xFFFFFFFFFFFFFFFFFFFFFFFFFFFFFFFFFFFFFFFF AND CALLER PUSH20 0xFFFFFFFFFFFFFFFFFFFFFFFFFFFFFFFFFFFFFFFF AND EQ PUSH2 0x2D9 JUMPI PUSH1 0x0 DUP1 REVERT JUMPDEST PUSH1 0x0 DUP1 DUP3 DUP2 SLOAD DUP2 LT PUSH2 0x2EE JUMPI PUSH2 0x2ED PUSH2 0xCAB JUMP JUMPDEST JUMPDEST SWAP1 PUSH1 0x0 MSTORE PUSH1 0x20 PUSH1 0x0 KECCAK256 SWAP1 PUSH1 0x5 MUL ADD SWAP1 POP PUSH1 0x2 PUSH1 0x4 SLOAD PUSH2 0x30D SWAP2 SWAP1 PUSH2 0xD38 JUMP JUMPDEST DUP2 PUSH1 0x3 ADD SLOAD GT PUSH2 0x31C JUMPI PUSH1 0x0 DUP1 REVERT JUMPDEST DUP1 PUSH1 0x2 ADD PUSH1 0x14 SWAP1 SLOAD SWAP1 PUSH2 0x100 EXP SWAP1 DIV PUSH1 0xFF AND ISZERO PUSH2 0x338 JUMPI PUSH1 0x0 DUP1 REVERT JUMPDEST DUP1 PUSH1 0x2 ADD PUSH1 0x0 SWAP1 SLOAD SWAP1 PUSH2 0x100 EXP SWAP1 DIV PUSH20 0xFFFFFFFFFFFFFFFFFFFFFFFFFFFFFFFFFFFFFFFF AND PUSH20 0xFFFFFFFFFFFFFFFFFFFFFFFFFFFFFFFFFFFFFFFF AND PUSH2 0x8FC DUP3 PUSH1 0x1 ADD SLOAD SWAP1 DUP2 ISZERO MUL SWAP1 PUSH1 0x40 MLOAD PUSH1 0x0 PUSH1 0x40 MLOAD DUP1 DUP4 SUB DUP2 DUP6 DUP9 DUP9 CALL SWAP4 POP POP POP POP ISZERO DUP1 ISZERO PUSH2 0x3A6 JUMPI RETURNDATASIZE PUSH1 0x0 DUP1 RETURNDATACOPY RETURNDATASIZE PUSH1 0x0 REVERT JUMPDEST POP PUSH1 0x1 DUP2 PUSH1 0x2 ADD PUSH1 0x14 PUSH2 0x100 EXP DUP2 SLOAD DUP2 PUSH1 0xFF MUL NOT AND SWAP1 DUP4 ISZERO ISZERO MUL OR SWAP1 SSTORE POP POP POP JUMP JUMPDEST PUSH1 0x3 PUSH1 0x20 MSTORE DUP1 PUSH1 0x0 MSTORE PUSH1 0x40 PUSH1 0x0 KECCAK256 PUSH1 0x0 SWAP2 POP SLOAD SWAP1 PUSH2 0x100 EXP SWAP1 DIV PUSH1 0xFF AND DUP2 JUMP JUMPDEST PUSH1 0x0 DUP1 DUP1 SLOAD SWAP1 POP SWAP1 POP SWAP1 JUMP JUMPDEST PUSH1 0x0 DUP1 PUSH1 0x0 DUP1 PUSH1 0x0 PUSH1 0x2 SLOAD SELFBALANCE PUSH1 0x0 DUP1 SLOAD SWAP1 POP PUSH1 0x4 SLOAD PUSH1 0x1 PUSH1 0x0 SWAP1 SLOAD SWAP1 PUSH2 0x100 EXP SWAP1 DIV PUSH20 0xFFFFFFFFFFFFFFFFFFFFFFFFFFFFFFFFFFFFFFFF AND SWAP5 POP SWAP5 POP SWAP5 POP SWAP5 POP SWAP5 POP SWAP1 SWAP2 SWAP3 SWAP4 SWAP5 JUMP JUMPDEST PUSH1 0x1 PUSH1 0x0 SWAP1 SLOAD SWAP1 PUSH2 0x100 EXP SWAP1 DIV PUSH20 0xFFFFFFFFFFFFFFFFFFFFFFFFFFFFFFFFFFFFFFFF AND DUP2 JUMP JUMPDEST PUSH1 0x0 DUP2 DUP2 SLOAD DUP2 LT PUSH2 0x473 JUMPI PUSH1 0x0 DUP1 REVERT JUMPDEST SWAP1 PUSH1 0x0 MSTORE PUSH1 0x20 PUSH1 0x0 KECCAK256 SWAP1 PUSH1 0x5 MUL ADD PUSH1 0x0 SWAP2 POP SWAP1 POP DUP1 PUSH1 0x0 ADD DUP1 SLOAD PUSH2 0x496 SWAP1 PUSH2 0xD98 JUMP JUMPDEST DUP1 PUSH1 0x1F ADD PUSH1 0x20 DUP1 SWAP2 DIV MUL PUSH1 0x20 ADD PUSH1 0x40 MLOAD SWAP1 DUP2 ADD PUSH1 0x40 MSTORE DUP1 SWAP3 SWAP2 SWAP1 DUP2 DUP2 MSTORE PUSH1 0x20 ADD DUP3 DUP1 SLOAD PUSH2 0x4C2 SWAP1 PUSH2 0xD98 JUMP JUMPDEST DUP1 ISZERO PUSH2 0x50F JUMPI DUP1 PUSH1 0x1F LT PUSH2 0x4E4 JUMPI PUSH2 0x100 DUP1 DUP4 SLOAD DIV MUL DUP4 MSTORE SWAP2 PUSH1 0x20 ADD SWAP2 PUSH2 0x50F JUMP JUMPDEST DUP3 ADD SWAP2 SWAP1 PUSH1 0x0 MSTORE PUSH1 0x20 PUSH1 0x0 KECCAK256 SWAP1 JUMPDEST DUP2 SLOAD DUP2 MSTORE SWAP1 PUSH1 0x1 ADD SWAP1 PUSH1 0x20 ADD DUP1 DUP4 GT PUSH2 0x4F2 JUMPI DUP3 SWAP1 SUB PUSH1 0x1F AND DUP3 ADD SWAP2 JUMPDEST POP POP POP POP POP SWAP1 DUP1 PUSH1 0x1 ADD SLOAD SWAP1 DUP1 PUSH1 0x2 ADD PUSH1 0x0 SWAP1 SLOAD SWAP1 PUSH2 0x100 EXP SWAP1 DIV PUSH20 0xFFFFFFFFFFFFFFFFFFFFFFFFFFFFFFFFFFFFFFFF AND SWAP1 DUP1 PUSH1 0x2 ADD PUSH1 0x14 SWAP1 SLOAD SWAP1 PUSH2 0x100 EXP SWAP1 DIV PUSH1 0xFF AND SWAP1 DUP1 PUSH1 0x3 ADD SLOAD SWAP1 POP DUP6 JUMP JUMPDEST PUSH1 0x4 SLOAD DUP2 JUMP JUMPDEST PUSH1 0x1 PUSH1 0x0 SWAP1 SLOAD SWAP1 PUSH2 0x100 EXP SWAP1 DIV PUSH20 0xFFFFFFFFFFFFFFFFFFFFFFFFFFFFFFFFFFFFFFFF AND PUSH20 0xFFFFFFFFFFFFFFFFFFFFFFFFFFFFFFFFFFFFFFFF AND CALLER PUSH20 0xFFFFFFFFFFFFFFFFFFFFFFFFFFFFFFFFFFFFFFFF AND EQ PUSH2 0x5BE JUMPI PUSH1 0x0 DUP1 REVERT JUMPDEST PUSH1 0x0 DUP1 PUSH1 0x1 DUP2 PUSH1 0x1 DUP2 SLOAD ADD DUP1 DUP3 SSTORE DUP1 SWAP2 POP POP SUB SWAP1 PUSH1 0x0 MSTORE PUSH1 0x20 PUSH1 0x0 KECCAK256 SWAP1 PUSH1 0x5 MUL ADD SWAP1 POP DUP4 DUP2 PUSH1 0x0 ADD SWAP1 DUP2 PUSH2 0x5F2 SWAP2 SWAP1 PUSH2 0xF75 JUMP JUMPDEST POP DUP3 DUP2 PUSH1 0x1 ADD DUP2 SWAP1 SSTORE POP DUP2 DUP2 PUSH1 0x2 ADD PUSH1 0x0 PUSH2 0x100 EXP DUP2 SLOAD DUP2 PUSH20 0xFFFFFFFFFFFFFFFFFFFFFFFFFFFFFFFFFFFFFFFF MUL NOT AND SWAP1 DUP4 PUSH20 0xFFFFFFFFFFFFFFFFFFFFFFFFFFFFFFFFFFFFFFFF AND MUL OR SWAP1 SSTORE POP PUSH1 0x0 DUP2 PUSH1 0x2 ADD PUSH1 0x14 PUSH2 0x100 EXP DUP2 SLOAD DUP2 PUSH1 0xFF MUL NOT AND SWAP1 DUP4 ISZERO ISZERO MUL OR SWAP1 SSTORE POP PUSH1 0x0 DUP2 PUSH1 0x3 ADD DUP2 SWAP1 SSTORE POP POP POP POP POP JUMP JUMPDEST PUSH1 0x2 SLOAD DUP2 JUMP JUMPDEST PUSH1 0x2 SLOAD CALLVALUE GT PUSH2 0x680 JUMPI PUSH1 0x0 DUP1 REVERT JUMPDEST PUSH1 0x1 PUSH1 0x3 PUSH1 0x0 CALLER PUSH20 0xFFFFFFFFFFFFFFFFFFFFFFFFFFFFFFFFFFFFFFFF AND PUSH20 0xFFFFFFFFFFFFFFFFFFFFFFFFFFFFFFFFFFFFFFFF AND DUP2 MSTORE PUSH1 0x20 ADD SWAP1 DUP2 MSTORE PUSH1 0x20 ADD PUSH1 0x0 KECCAK256 PUSH1 0x0 PUSH2 0x100 EXP DUP2 SLOAD DUP2 PUSH1 0xFF MUL NOT AND SWAP1 DUP4 ISZERO ISZERO MUL OR SWAP1 SSTORE POP PUSH1 0x4 PUSH1 0x0 DUP2 SLOAD DUP1 SWAP3 SWAP2 SWAP1 PUSH2 0x6EB SWAP1 PUSH2 0x1047 JUMP JUMPDEST SWAP2 SWAP1 POP SSTORE POP JUMP JUMPDEST PUSH1 0x0 DUP1 DUP3 DUP2 SLOAD DUP2 LT PUSH2 0x707 JUMPI PUSH2 0x706 PUSH2 0xCAB JUMP JUMPDEST JUMPDEST SWAP1 PUSH1 0x0 MSTORE PUSH1 0x20 PUSH1 0x0 KECCAK256 SWAP1 PUSH1 0x5 MUL ADD SWAP1 POP PUSH1 0x3 PUSH1 0x0 CALLER PUSH20 0xFFFFFFFFFFFFFFFFFFFFFFFFFFFFFFFFFFFFFFFF AND PUSH20 0xFFFFFFFFFFFFFFFFFFFFFFFFFFFFFFFFFFFFFFFF AND DUP2 MSTORE PUSH1 0x20 ADD SWAP1 DUP2 MSTORE PUSH1 0x20 ADD PUSH1 0x0 KECCAK256 PUSH1 0x0 SWAP1 SLOAD SWAP1 PUSH2 0x100 EXP SWAP1 DIV PUSH1 0xFF AND PUSH2 0x76D JUMPI PUSH1 0x0 DUP1 REVERT JUMPDEST DUP1 PUSH1 0x4 ADD PUSH1 0x0 CALLER PUSH20 0xFFFFFFFFFFFFFFFFFFFFFFFFFFFFFFFFFFFFFFFF AND PUSH20 0xFFFFFFFFFFFFFFFFFFFFFFFFFFFFFFFFFFFFFFFF AND DUP2 MSTORE PUSH1 0x20 ADD SWAP1 DUP2 MSTORE PUSH1 0x20 ADD PUSH1 0x0 KECCAK256 PUSH1 0x0 SWAP1 SLOAD SWAP1 PUSH2 0x100 EXP SWAP1 DIV PUSH1 0xFF AND ISZERO PUSH2 0x7C6 JUMPI PUSH1 0x0 DUP1 REVERT JUMPDEST PUSH1 0x1 DUP2 PUSH1 0x4 ADD PUSH1 0x0 CALLER PUSH20 0xFFFFFFFFFFFFFFFFFFFFFFFFFFFFFFFFFFFFFFFF AND PUSH20 0xFFFFFFFFFFFFFFFFFFFFFFFFFFFFFFFFFFFFFFFF AND DUP2 MSTORE PUSH1 0x20 ADD SWAP1 DUP2 MSTORE PUSH1 0x20 ADD PUSH1 0x0 KECCAK256 PUSH1 0x0 PUSH2 0x100 EXP DUP2 SLOAD DUP2 PUSH1 0xFF MUL NOT AND SWAP1 DUP4 ISZERO ISZERO MUL OR SWAP1 SSTORE POP DUP1 PUSH1 0x3 ADD PUSH1 0x0 DUP2 SLOAD DUP1 SWAP3 SWAP2 SWAP1 PUSH2 0x835 SWAP1 PUSH2 0x1047 JUMP JUMPDEST SWAP2 SWAP1 POP SSTORE POP POP POP JUMP JUMPDEST PUSH1 0x0 PUSH1 0x40 MLOAD SWAP1 POP SWAP1 JUMP JUMPDEST PUSH1 0x0 DUP1 REVERT JUMPDEST PUSH1 0x0 DUP1 REVERT JUMPDEST PUSH1 0x0 DUP2 SWAP1 POP SWAP2 SWAP1 POP JUMP JUMPDEST PUSH2 0x865 DUP2 PUSH2 0x852 JUMP JUMPDEST DUP2 EQ PUSH2 0x870 JUMPI PUSH1 0x0 DUP1 REVERT JUMPDEST POP JUMP JUMPDEST PUSH1 0x0 DUP2 CALLDATALOAD SWAP1 POP PUSH2 0x882 DUP2 PUSH2 0x85C JUMP JUMPDEST SWAP3 SWAP2 POP POP JUMP JUMPDEST PUSH1 0x0 PUSH1 0x20 DUP3 DUP5 SUB SLT ISZERO PUSH2 0x89E JUMPI PUSH2 0x89D PUSH2 0x848 JUMP JUMPDEST JUMPDEST PUSH1 0x0 PUSH2 0x8AC DUP5 DUP3 DUP6 ADD PUSH2 0x873 JUMP JUMPDEST SWAP2 POP POP SWAP3 SWAP2 POP POP JUMP JUMPDEST PUSH1 0x0 PUSH20 0xFFFFFFFFFFFFFFFFFFFFFFFFFFFFFFFFFFFFFFFF DUP3 AND SWAP1 POP SWAP2 SWAP1 POP JUMP JUMPDEST PUSH1 0x0 PUSH2 0x8E0 DUP3 PUSH2 0x8B5 JUMP JUMPDEST SWAP1 POP SWAP2 SWAP1 POP JUMP JUMPDEST PUSH2 0x8F0 DUP2 PUSH2 0x8D5 JUMP JUMPDEST DUP2 EQ PUSH2 0x8FB JUMPI PUSH1 0x0 DUP1 REVERT JUMPDEST POP JUMP JUMPDEST PUSH1 0x0 DUP2 CALLDATALOAD SWAP1 POP PUSH2 0x90D DUP2 PUSH2 0x8E7 JUMP JUMPDEST SWAP3 SWAP2 POP POP JUMP JUMPDEST PUSH1 0x0 PUSH1 0x20 DUP3 DUP5 SUB SLT ISZERO PUSH2 0x929 JUMPI PUSH2 0x928 PUSH2 0x848 JUMP JUMPDEST JUMPDEST PUSH1 0x0 PUSH2 0x937 DUP5 DUP3 DUP6 ADD PUSH2 0x8FE JUMP JUMPDEST SWAP2 POP POP SWAP3 SWAP2 POP POP JUMP JUMPDEST PUSH1 0x0 DUP2 ISZERO ISZERO SWAP1 POP SWAP2 SWAP1 POP JUMP JUMPDEST PUSH2 0x955 DUP2 PUSH2 0x940 JUMP JUMPDEST DUP3 MSTORE POP POP JUMP JUMPDEST PUSH1 0x0 PUSH1 0x20 DUP3 ADD SWAP1 POP PUSH2 0x970 PUSH1 0x0 DUP4 ADD DUP5 PUSH2 0x94C JUMP JUMPDEST SWAP3 SWAP2 POP POP JUMP JUMPDEST PUSH2 0x97F DUP2 PUSH2 0x852 JUMP JUMPDEST DUP3 MSTORE POP POP JUMP JUMPDEST PUSH1 0x0 PUSH1 0x20 DUP3 ADD SWAP1 POP PUSH2 0x99A PUSH1 0x0 DUP4 ADD DUP5 PUSH2 0x976 JUMP JUMPDEST SWAP3 SWAP2 POP POP JUMP JUMPDEST PUSH2 0x9A9 DUP2 PUSH2 0x8D5 JUMP JUMPDEST DUP3 MSTORE POP POP JUMP JUMPDEST PUSH1 0x0 PUSH1 0xA0 DUP3 ADD SWAP1 POP PUSH2 0x9C4 PUSH1 0x0 DUP4 ADD DUP9 PUSH2 0x976 JUMP JUMPDEST PUSH2 0x9D1 PUSH1 0x20 DUP4 ADD DUP8 PUSH2 0x976 JUMP JUMPDEST PUSH2 0x9DE PUSH1 0x40 DUP4 ADD DUP7 PUSH2 0x976 JUMP JUMPDEST PUSH2 0x9EB PUSH1 0x60 DUP4 ADD DUP6 PUSH2 0x976 JUMP JUMPDEST PUSH2 0x9F8 PUSH1 0x80 DUP4 ADD DUP5 PUSH2 0x9A0 JUMP JUMPDEST SWAP7 SWAP6 POP POP POP POP POP POP JUMP JUMPDEST PUSH1 0x0 PUSH1 0x20 DUP3 ADD SWAP1 POP PUSH2 0xA17 PUSH1 0x0 DUP4 ADD DUP5 PUSH2 0x9A0 JUMP JUMPDEST SWAP3 SWAP2 POP POP JUMP JUMPDEST PUSH1 0x0 DUP2 MLOAD SWAP1 POP SWAP2 SWAP1 POP JUMP JUMPDEST PUSH1 0x0 DUP3 DUP3 MSTORE PUSH1 0x20 DUP3 ADD SWAP1 POP SWAP3 SWAP2 POP POP JUMP JUMPDEST PUSH1 0x0 JUMPDEST DUP4 DUP2 LT ISZERO PUSH2 0xA57 JUMPI DUP1 DUP3 ADD MLOAD DUP2 DUP5 ADD MSTORE PUSH1 0x20 DUP2 ADD SWAP1 POP PUSH2 0xA3C JUMP JUMPDEST PUSH1 0x0 DUP5 DUP5 ADD MSTORE POP POP POP POP JUMP JUMPDEST PUSH1 0x0 PUSH1 0x1F NOT PUSH1 0x1F DUP4 ADD AND SWAP1 POP SWAP2 SWAP1 POP JUMP JUMPDEST PUSH1 0x0 PUSH2 0xA7F DUP3 PUSH2 0xA1D JUMP JUMPDEST PUSH2 0xA89 DUP2 DUP6 PUSH2 0xA28 JUMP JUMPDEST SWAP4 POP PUSH2 0xA99 DUP2 DUP6 PUSH1 0x20 DUP7 ADD PUSH2 0xA39 JUMP JUMPDEST PUSH2 0xAA2 DUP2 PUSH2 0xA63 JUMP JUMPDEST DUP5 ADD SWAP2 POP POP SWAP3 SWAP2 POP POP JUMP JUMPDEST PUSH1 0x0 PUSH1 0xA0 DUP3 ADD SWAP1 POP DUP2 DUP2 SUB PUSH1 0x0 DUP4 ADD MSTORE PUSH2 0xAC7 DUP2 DUP9 PUSH2 0xA74 JUMP JUMPDEST SWAP1 POP PUSH2 0xAD6 PUSH1 0x20 DUP4 ADD DUP8 PUSH2 0x976 JUMP JUMPDEST PUSH2 0xAE3 PUSH1 0x40 DUP4 ADD DUP7 PUSH2 0x9A0 JUMP JUMPDEST PUSH2 0xAF0 PUSH1 0x60 DUP4 ADD DUP6 PUSH2 0x94C JUMP JUMPDEST PUSH2 0xAFD PUSH1 0x80 DUP4 ADD DUP5 PUSH2 0x976 JUMP JUMPDEST SWAP7 SWAP6 POP POP POP POP POP POP JUMP JUMPDEST PUSH1 0x0 DUP1 REVERT JUMPDEST PUSH1 0x0 DUP1 REVERT JUMPDEST PUSH32 0x4E487B7100000000000000000000000000000000000000000000000000000000 PUSH1 0x0 MSTORE PUSH1 0x41 PUSH1 0x4 MSTORE PUSH1 0x24 PUSH1 0x0 REVERT JUMPDEST PUSH2 0xB49 DUP3 PUSH2 0xA63 JUMP JUMPDEST DUP2 ADD DUP2 DUP2 LT PUSH8 0xFFFFFFFFFFFFFFFF DUP3 GT OR ISZERO PUSH2 0xB68 JUMPI PUSH2 0xB67 PUSH2 0xB11 JUMP JUMPDEST JUMPDEST DUP1 PUSH1 0x40 MSTORE POP POP POP JUMP JUMPDEST PUSH1 0x0 PUSH2 0xB7B PUSH2 0x83E JUMP JUMPDEST SWAP1 POP PUSH2 0xB87 DUP3 DUP3 PUSH2 0xB40 JUMP JUMPDEST SWAP2 SWAP1 POP JUMP JUMPDEST PUSH1 0x0 PUSH8 0xFFFFFFFFFFFFFFFF DUP3 GT ISZERO PUSH2 0xBA7 JUMPI PUSH2 0xBA6 PUSH2 0xB11 JUMP JUMPDEST JUMPDEST PUSH2 0xBB0 DUP3 PUSH2 0xA63 JUMP JUMPDEST SWAP1 POP PUSH1 0x20 DUP2 ADD SWAP1 POP SWAP2 SWAP1 POP JUMP JUMPDEST DUP3 DUP2 DUP4 CALLDATACOPY PUSH1 0x0 DUP4 DUP4 ADD MSTORE POP POP POP JUMP JUMPDEST PUSH1 0x0 PUSH2 0xBDF PUSH2 0xBDA DUP5 PUSH2 0xB8C JUMP JUMPDEST PUSH2 0xB71 JUMP JUMPDEST SWAP1 POP DUP3 DUP2 MSTORE PUSH1 0x20 DUP2 ADD DUP5 DUP5 DUP5 ADD GT ISZERO PUSH2 0xBFB JUMPI PUSH2 0xBFA PUSH2 0xB0C JUMP JUMPDEST JUMPDEST PUSH2 0xC06 DUP5 DUP3 DUP6 PUSH2 0xBBD JUMP JUMPDEST POP SWAP4 SWAP3 POP POP POP JUMP JUMPDEST PUSH1 0x0 DUP3 PUSH1 0x1F DUP4 ADD SLT PUSH2 0xC23 JUMPI PUSH2 0xC22 PUSH2 0xB07 JUMP JUMPDEST JUMPDEST DUP2 CALLDATALOAD PUSH2 0xC33 DUP5 DUP3 PUSH1 0x20 DUP7 ADD PUSH2 0xBCC JUMP JUMPDEST SWAP2 POP POP SWAP3 SWAP2 POP POP JUMP JUMPDEST PUSH1 0x0 DUP1 PUSH1 0x0 PUSH1 0x60 DUP5 DUP7 SUB SLT ISZERO PUSH2 0xC55 JUMPI PUSH2 0xC54 PUSH2 0x848 JUMP JUMPDEST JUMPDEST PUSH1 0x0 DUP5 ADD CALLDATALOAD PUSH8 0xFFFFFFFFFFFFFFFF DUP2 GT ISZERO PUSH2 0xC73 JUMPI PUSH2 0xC72 PUSH2 0x84D JUMP JUMPDEST JUMPDEST PUSH2 0xC7F DUP7 DUP3 DUP8 ADD PUSH2 0xC0E JUMP JUMPDEST SWAP4 POP POP PUSH1 0x20 PUSH2 0xC90 DUP7 DUP3 DUP8 ADD PUSH2 0x873 JUMP JUMPDEST SWAP3 POP POP PUSH1 0x40 PUSH2 0xCA1 DUP7 DUP3 DUP8 ADD PUSH2 0x8FE JUMP JUMPDEST SWAP2 POP POP SWAP3 POP SWAP3 POP SWAP3 JUMP JUMPDEST PUSH32 0x4E487B7100000000000000000000000000000000000000000000000000000000 PUSH1 0x0 MSTORE PUSH1 0x32 PUSH1 0x4 MSTORE PUSH1 0x24 PUSH1 0x0 REVERT JUMPDEST PUSH32 0x4E487B7100000000000000000000000000000000000000000000000000000000 PUSH1 0x0 MSTORE PUSH1 0x12 PUSH1 0x4 MSTORE PUSH1 0x24 PUSH1 0x0 REVERT JUMPDEST PUSH32 0x4E487B7100000000000000000000000000000000000000000000000000000000 PUSH1 0x0 MSTORE PUSH1 0x11 PUSH1 0x4 MSTORE PUSH1 0x24 PUSH1 0x0 REVERT JUMPDEST PUSH1 0x0 PUSH2 0xD43 DUP3 PUSH2 0x852 JUMP JUMPDEST SWAP2 POP PUSH2 0xD4E DUP4 PUSH2 0x852 JUMP JUMPDEST SWAP3 POP DUP3 PUSH2 0xD5E JUMPI PUSH2 0xD5D PUSH2 0xCDA JUMP JUMPDEST JUMPDEST DUP3 DUP3 DIV SWAP1 POP SWAP3 SWAP2 POP POP JUMP JUMPDEST PUSH32 0x4E487B7100000000000000000000000000000000000000000000000000000000 PUSH1 0x0 MSTORE PUSH1 0x22 PUSH1 0x4 MSTORE PUSH1 0x24 PUSH1 0x0 REVERT JUMPDEST PUSH1 0x0 PUSH1 0x2 DUP3 DIV SWAP1 POP PUSH1 0x1 DUP3 AND DUP1 PUSH2 0xDB0 JUMPI PUSH1 0x7F DUP3 AND SWAP2 POP JUMPDEST PUSH1 0x20 DUP3 LT DUP2 SUB PUSH2 0xDC3 JUMPI PUSH2 0xDC2 PUSH2 0xD69 JUMP JUMPDEST JUMPDEST POP SWAP2 SWAP1 POP JUMP JUMPDEST PUSH1 0x0 DUP2 SWAP1 POP DUP2 PUSH1 0x0 MSTORE PUSH1 0x20 PUSH1 0x0 KECCAK256 SWAP1 POP SWAP2 SWAP1 POP JUMP JUMPDEST PUSH1 0x0 PUSH1 0x20 PUSH1 0x1F DUP4 ADD DIV SWAP1 POP SWAP2 SWAP1 POP JUMP JUMPDEST PUSH1 0x0 DUP3 DUP3 SHL SWAP1 POP SWAP3 SWAP2 POP POP JUMP JUMPDEST PUSH1 0x0 PUSH1 0x8 DUP4 MUL PUSH2 0xE2B PUSH32 0xFFFFFFFFFFFFFFFFFFFFFFFFFFFFFFFFFFFFFFFFFFFFFFFFFFFFFFFFFFFFFFFF DUP3 PUSH2 0xDEE JUMP JUMPDEST PUSH2 0xE35 DUP7 DUP4 PUSH2 0xDEE JUMP JUMPDEST SWAP6 POP DUP1 NOT DUP5 AND SWAP4 POP DUP1 DUP7 AND DUP5 OR SWAP3 POP POP POP SWAP4 SWAP3 POP POP POP JUMP JUMPDEST PUSH1 0x0 DUP2 SWAP1 POP SWAP2 SWAP1 POP JUMP JUMPDEST PUSH1 0x0 PUSH2 0xE72 PUSH2 0xE6D PUSH2 0xE68 DUP5 PUSH2 0x852 JUMP JUMPDEST PUSH2 0xE4D JUMP JUMPDEST PUSH2 0x852 JUMP JUMPDEST SWAP1 POP SWAP2 SWAP1 POP JUMP JUMPDEST PUSH1 0x0 DUP2 SWAP1 POP SWAP2 SWAP1 POP JUMP JUMPDEST PUSH2 0xE8C DUP4 PUSH2 0xE57 JUMP JUMPDEST PUSH2 0xEA0 PUSH2 0xE98 DUP3 PUSH2 0xE79 JUMP JUMPDEST DUP5 DUP5 SLOAD PUSH2 0xDFB JUMP JUMPDEST DUP3 SSTORE POP POP POP POP JUMP JUMPDEST PUSH1 0x0 SWAP1 JUMP JUMPDEST PUSH2 0xEB5 PUSH2 0xEA8 JUMP JUMPDEST PUSH2 0xEC0 DUP2 DUP5 DUP5 PUSH2 0xE83 JUMP JUMPDEST POP POP POP JUMP JUMPDEST JUMPDEST DUP2 DUP2 LT ISZERO PUSH2 0xEE4 JUMPI PUSH2 0xED9 PUSH1 0x0 DUP3 PUSH2 0xEAD JUMP JUMPDEST PUSH1 0x1 DUP2 ADD SWAP1 POP PUSH2 0xEC6 JUMP JUMPDEST POP POP JUMP JUMPDEST PUSH1 0x1F DUP3 GT ISZERO PUSH2 0xF29 JUMPI PUSH2 0xEFA DUP2 PUSH2 0xDC9 JUMP JUMPDEST PUSH2 0xF03 DUP5 PUSH2 0xDDE JUMP JUMPDEST DUP2 ADD PUSH1 0x20 DUP6 LT ISZERO PUSH2 0xF12 JUMPI DUP2 SWAP1 POP JUMPDEST PUSH2 0xF26 PUSH2 0xF1E DUP6 PUSH2 0xDDE JUMP JUMPDEST DUP4 ADD DUP3 PUSH2 0xEC5 JUMP JUMPDEST POP POP JUMPDEST POP POP POP JUMP JUMPDEST PUSH1 0x0 DUP3 DUP3 SHR SWAP1 POP SWAP3 SWAP2 POP POP JUMP JUMPDEST PUSH1 0x0 PUSH2 0xF4C PUSH1 0x0 NOT DUP5 PUSH1 0x8 MUL PUSH2 0xF2E JUMP JUMPDEST NOT DUP1 DUP4 AND SWAP2 POP POP SWAP3 SWAP2 POP POP JUMP JUMPDEST PUSH1 0x0 PUSH2 0xF65 DUP4 DUP4 PUSH2 0xF3B JUMP JUMPDEST SWAP2 POP DUP3 PUSH1 0x2 MUL DUP3 OR SWAP1 POP SWAP3 SWAP2 POP POP JUMP JUMPDEST PUSH2 0xF7E DUP3 PUSH2 0xA1D JUMP JUMPDEST PUSH8 0xFFFFFFFFFFFFFFFF DUP2 GT ISZERO PUSH2 0xF97 JUMPI PUSH2 0xF96 PUSH2 0xB11 JUMP JUMPDEST JUMPDEST PUSH2 0xFA1 DUP3 SLOAD PUSH2 0xD98 JUMP JUMPDEST PUSH2 0xFAC DUP3 DUP3 DUP6 PUSH2 0xEE8 JUMP JUMPDEST PUSH1 0x0 PUSH1 0x20 SWAP1 POP PUSH1 0x1F DUP4 GT PUSH1 0x1 DUP2 EQ PUSH2 0xFDF JUMPI PUSH1 0x0 DUP5 ISZERO PUSH2 0xFCD JUMPI DUP3 DUP8 ADD MLOAD SWAP1 POP JUMPDEST PUSH2 0xFD7 DUP6 DUP3 PUSH2 0xF59 JUMP JUMPDEST DUP7 SSTORE POP PUSH2 0x103F JUMP JUMPDEST PUSH1 0x1F NOT DUP5 AND PUSH2 0xFED DUP7 PUSH2 0xDC9 JUMP JUMPDEST PUSH1 0x0 JUMPDEST DUP3 DUP2 LT ISZERO PUSH2 0x1015 JUMPI DUP5 DUP10 ADD MLOAD DUP3 SSTORE PUSH1 0x1 DUP3 ADD SWAP2 POP PUSH1 0x20 DUP6 ADD SWAP5 POP PUSH1 0x20 DUP2 ADD SWAP1 POP PUSH2 0xFF0 JUMP JUMPDEST DUP7 DUP4 LT ISZERO PUSH2 0x1032 JUMPI DUP5 DUP10 ADD MLOAD PUSH2 0x102E PUSH1 0x1F DUP10 AND DUP3 PUSH2 0xF3B JUMP JUMPDEST DUP4 SSTORE POP JUMPDEST PUSH1 0x1 PUSH1 0x2 DUP9 MUL ADD DUP9 SSTORE POP POP POP JUMPDEST POP POP POP POP POP POP JUMP JUMPDEST PUSH1 0x0 PUSH2 0x1052 DUP3 PUSH2 0x852 JUMP JUMPDEST SWAP2 POP PUSH32 0xFFFFFFFFFFFFFFFFFFFFFFFFFFFFFFFFFFFFFFFFFFFFFFFFFFFFFFFFFFFFFFFF DUP3 SUB PUSH2 0x1084 JUMPI PUSH2 0x1083 PUSH2 0xD09 JUMP JUMPDEST JUMPDEST PUSH1 0x1 DUP3 ADD SWAP1 POP SWAP2 SWAP1 POP JUMP INVALID LOG2 PUSH5 0x6970667358 0x22 SLT KECCAK256 XOR 0xC MOD DUP3 PUSH20 0x1F8591B355B453BA3432905F6D9A028B9F79702F SWAP14 0xDC 0xE9 DUP16 0xB6 SWAP15 XOR PUSH5 0x736F6C6343 STOP ADDMOD SLT STOP CALLER "},"gasEstimates":{"creation":{"codeDepositCost":"858600","executionCost":"infinite","totalCost":"infinite"},"external":{"approveRequest(uint256)":"infinite","approvers(address)":"2868","approversCount()":"2451","contribute()":"51043","createRequest(string,uint256,address)":"infinite","finalizeRequest(uint256)":"infinite","getRequestsCount()":"2490","getSummary()":"infinite","manager()":"2603","minimumContribution()":"2495","requests(uint256)":"infinite"}},"methodIdentifiers":{"approveRequest(uint256)":"d7d1bbdb","approvers(address)":"0a144391","approversCount()":"82fde093","contribute()":"d7bb99ba","createRequest(string,uint256,address)":"8a9cfd55","finalizeRequest(uint256)":"03441006","getRequestsCount()":"3410452a","getSummary()":"4051ddac","manager()":"481c6a75","minimumContribution()":"937e09b1","requests(uint256)":"81d12c58"}},"storageLayout":{"storage":[{"astId":59,"contract":"Campaign.sol:Campaign","label":"requests","offset":0,"slot":"0","type":"t_array(t_struct(Request)55_storage)dyn_storage"},{"astId":61,"contract":"Campaign.sol:Campaign","label":"manager","offset":0,"slot":"1","type":"t_address"},{"astId":63,"contract":"Campaign.sol:Campaign","label":"minimumContribution","offset":0,"slot":"2","type":"t_uint256"},{"astId":67,"contract":"Campaign.sol:Campaign","label":"approvers","offset":0,"slot":"3","type":"t_mapping(t_address,t_bool)"},{"astId":69,"contract":"Campaign.sol:Campaign","label":"approversCount","offset":0,"slot":"4","type":"t_uint256"}],"types":{"t_address":{"encoding":"inplace","label":"address","numberOfBytes":"20"},"t_array(t_struct(Request)55_storage)dyn_storage":{"base":"t_struct(Request)55_storage","encoding":"dynamic_array","label":"struct Campaign.Request[]","numberOfBytes":"32"},"t_bool":{"encoding":"inplace","label":"bool","numberOfBytes":"1"},"t_mapping(t_address,t_bool)":{"encoding":"mapping","key":"t_address","label":"mapping(address => bool)","numberOfBytes":"32","value":"t_bool"},"t_string_storage":{"encoding":"bytes","label":"string","numberOfBytes":"32"},"t_struct(Request)55_storage":{"encoding":"inplace","label":"struct Campaign.Request","members":[{"astId":42,"contract":"Campaign.sol:Campaign","label":"description","offset":0,"slot":"0","type":"t_string_storage"},{"astId":44,"contract":"Campaign.sol:Campaign","label":"value","offset":0,"slot":"1","type":"t_uint256"},{"astId":46,"contract":"Campaign.sol:Campaign","label":"recipient","offset":0,"slot":"2","type":"t_address"},{"astId":48,"contract":"Campaign.sol:Campaign","label":"complete","offset":20,"slot":"2","type":"t_bool"},{"astId":50,"contract":"Campaign.sol:Campaign","label":"approvalCount","offset":0,"slot":"3","type":"t_uint256"},{"astId":54,"contract":"Campaign.sol:Campaign","label":"approvals","offset":0,"slot":"4","type":"t_mapping(t_address,t_bool)"}],"numberOfBytes":"160"},"t_uint256":{"encoding":"inplace","label":"uint256","numberOfBytes":"32"}}},"userdoc":{"kind":"user","methods":{},"version":1}}