{
    "contractName": "Lottery",
    "abi": [
        {
            "inputs": [],
            "stateMutability": "nonpayable",
            "type": "constructor"
        },
        {
            "anonymous": false,
            "inputs": [
                {
                    "indexed": true,
                    "internalType": "address",
                    "name": "player_adr",
                    "type": "address"
                }
            ],
            "name": "New_Player",
            "type": "event"
        },
        {
            "inputs": [],
            "name": "Last_Winner_Adr",
            "outputs": [
                {
                    "internalType": "address",
                    "name": "",
                    "type": "address"
                }
            ],
            "stateMutability": "view",
            "type": "function"
        },
        {
            "inputs": [],
            "name": "Lottery_Owner",
            "outputs": [
                {
                    "internalType": "address payable",
                    "name": "",
                    "type": "address"
                }
            ],
            "stateMutability": "view",
            "type": "function"
        },
        {
            "inputs": [
                {
                    "internalType": "uint256",
                    "name": "",
                    "type": "uint256"
                }
            ],
            "name": "Players",
            "outputs": [
                {
                    "internalType": "address",
                    "name": "player_adr",
                    "type": "address"
                },
                {
                    "internalType": "uint8",
                    "name": "ticket_type",
                    "type": "uint8"
                }
            ],
            "stateMutability": "view",
            "type": "function"
        },
        {
            "inputs": [],
            "name": "Total_Full_Ticket",
            "outputs": [
                {
                    "internalType": "uint256",
                    "name": "",
                    "type": "uint256"
                }
            ],
            "stateMutability": "view",
            "type": "function"
        },
        {
            "inputs": [],
            "name": "Total_Half_Ticket",
            "outputs": [
                {
                    "internalType": "uint256",
                    "name": "",
                    "type": "uint256"
                }
            ],
            "stateMutability": "view",
            "type": "function"
        },
        {
            "inputs": [],
            "name": "Total_Quarter_Ticket",
            "outputs": [
                {
                    "internalType": "uint256",
                    "name": "",
                    "type": "uint256"
                }
            ],
            "stateMutability": "view",
            "type": "function"
        },
        {
            "inputs": [
                {
                    "internalType": "uint8",
                    "name": "_ticket_type",
                    "type": "uint8"
                }
            ],
            "name": "buy_a_ticket",
            "outputs": [],
            "stateMutability": "payable",
            "type": "function"
        },
        {
            "inputs": [],
            "name": "get_balance",
            "outputs": [
                {
                    "internalType": "uint256",
                    "name": "",
                    "type": "uint256"
                }
            ],
            "stateMutability": "view",
            "type": "function"
        },
        {
            "inputs": [],
            "name": "get_total_tickets",
            "outputs": [
                {
                    "internalType": "uint256",
                    "name": "",
                    "type": "uint256"
                }
            ],
            "stateMutability": "view",
            "type": "function"
        },
        {
            "inputs": [],
            "name": "selectWinner",
            "outputs": [
                {
                    "internalType": "address",
                    "name": "",
                    "type": "address"
                }
            ],
            "stateMutability": "nonpayable",
            "type": "function"
        }
    ],
    "bytecode": "608060405234801561001057600080fd5b50600080546001600160a01b03191633179055610840806100326000396000f3fe6080604052600436106100915760003560e01c806348ef3f031161005957806348ef3f03146101375780639628c4db14610178578063c1cfb99a1461018d578063c97bdfc7146101a0578063d9403411146101b657600080fd5b806313e67c161461009657806315d82b56146100d357806321f88d0d146100f757806333a99e041461010d57806347c3b2a114610122575b600080fd5b3480156100a257600080fd5b506000546100b6906001600160a01b031681565b6040516001600160a01b0390911681526020015b60405180910390f35b3480156100df57600080fd5b506100e960065481565b6040519081526020016100ca565b34801561010357600080fd5b506100e960045481565b34801561011957600080fd5b506100b66101d6565b610135610130366004610725565b610259565b005b34801561014357600080fd5b5061015761015236600461074f565b61044e565b604080516001600160a01b03909316835260ff9091166020830152016100ca565b34801561018457600080fd5b506003546100e9565b34801561019957600080fd5b50476100e9565b3480156101ac57600080fd5b506100e960055481565b3480156101c257600080fd5b506007546100b6906001600160a01b031681565b600080546001600160a01b031633146101ee57600080fd5b60006101f8610483565b905060006001828154811061020f5761020f610768565b6000918252602090912001546001600160a01b0316905061023081836104cc565b610238610666565b600780546001600160a01b0319166001600160a01b03831617905592915050565b6000546001600160a01b0316330361027057600080fd5b6064600354111561028057600080fd5b6701bc16d674ec800034101561029557600080fd5b33600090815260026020526040902054600360ff909116106102b657600080fd5b60031960ff8216016102f0576701bc16d674ec800034146102d657600080fd5b600480549060006102e683610794565b9190505550610350565b60011960ff821601610320576703782dace9d90000341461031057600080fd5b600580549060006102e683610794565b60001960ff821601610091576706f05b59d3b20000341461034057600080fd5b600680549060006102e683610794565b6003805490600061036083610794565b90915550506040805180820182523380825260ff8085166020808501919091526000928352600290529281208054929392909216919061039f836107ad565b82546101009290920a60ff818102199093169183160217909155600180548082018255600091825284517fb10e2d527612073b26eecdfd717e6a320cf44b4afac2b0732d9fcbe2b7fa0cf6909101805460208701516001600160a01b039093166001600160a81b031990911617600160a01b9290941691909102929092179091556040513392507fe17070207590318f4029d437f287da9c88484afc028459a6da4d99cfe9d19b829190a25050565b6001818154811061045e57600080fd5b6000918252602090912001546001600160a01b0381169150600160a01b900460ff1682565b600060035442446040516020016104a4929190918252602082015260400190565b6040516020818303038152906040528051906020012060001c6104c791906107e2565b905090565b6000546001600160a01b031633146104e357600080fd5b600460ff16600182815481106104fb576104fb610768565b600091825260209091200154600160a01b900460ff160361055f576001600160a01b0382166108fc6004475b61053191906107f6565b6040518115909202916000818181858888f19350505050158015610559573d6000803e3d6000fd5b5061061c565b600260ff166001828154811061057757610577610768565b600091825260209091200154600160a01b900460ff16036105a7576001600160a01b0382166108fc600247610527565b600160ff16600182815481106105bf576105bf610768565b600091825260209091200154600160a01b900460ff160361061c576001600160a01b0382166108fc6105f26001476107f6565b6040518115909202916000818181858888f1935050505015801561061a573d6000803e3d6000fd5b505b4760000361062957600080fd5b6000546001600160a01b03166108fc476040518115909202916000818181858888f19350505050158015610661573d6000803e3d6000fd5b505050565b6000546001600160a01b0316331461067d57600080fd5b60015460005b8181101561070d5760026000600183815481106106a2576106a2610768565b60009182526020808320909101546001600160a01b031683528201929092526040019020805460ff1916905560018054829081106106e2576106e2610768565b600091825260209091200180546001600160a81b03191690558061070581610794565b915050610683565b50506000600381905560048190556005819055600655565b60006020828403121561073757600080fd5b813560ff8116811461074857600080fd5b9392505050565b60006020828403121561076157600080fd5b5035919050565b634e487b7160e01b600052603260045260246000fd5b634e487b7160e01b600052601160045260246000fd5b6000600182016107a6576107a661077e565b5060010190565b600060ff821660ff81036107c3576107c361077e565b60010192915050565b634e487b7160e01b600052601260045260246000fd5b6000826107f1576107f16107cc565b500690565b600082610805576108056107cc565b50049056fea26469706673582212204c49bc68554331c677bcb991721de6fd932969bc3c13eadabfa034f75618720964736f6c63430008110033",
    "sourcePath": "c:/Users/aliih/Desktop/ihsan/BlockChain/Projects/Lottery/contracts/Lottery.sol",
    "compiler": {
        "name": "solc",
        "version": "0.8.17+commit.8df45f5f"
    },
    "functionHashes": {
        "Last_Winner_Adr()": "d9403411",
        "Lottery_Owner()": "13e67c16",
        "Players(uint256)": "48ef3f03",
        "Total_Full_Ticket()": "15d82b56",
        "Total_Half_Ticket()": "c97bdfc7",
        "Total_Quarter_Ticket()": "21f88d0d",
        "buy_a_ticket(uint8)": "47c3b2a1",
        "get_balance()": "c1cfb99a",
        "get_total_tickets()": "9628c4db",
        "selectWinner()": "33a99e04"
    },
    "gasEstimates": {
        "creation": {
            "codeDepositCost": "422400",
            "executionCost": "24690",
            "totalCost": "447090"
        },
        "external": {
            "Last_Winner_Adr()": "2414",
            "Lottery_Owner()": "2327",
            "Players(uint256)": "4667",
            "Total_Full_Ticket()": "2318",
            "Total_Half_Ticket()": "2361",
            "Total_Quarter_Ticket()": "2340",
            "buy_a_ticket(uint8)": "infinite",
            "get_balance()": "238",
            "get_total_tickets()": "2314",
            "selectWinner()": "infinite"
        },
        "internal": {
            "random()": "infinite",
            "restart_lottery()": "infinite",
            "transfer_reward(address payable,uint256)": "infinite"
        }
    }
}