{"abi":[{"inputs":[],"stateMutability":"nonpayable","type":"constructor"},{"inputs":[{"internalType":"address","name":"sender","type":"address"},{"internalType":"string","name":"errMsg","type":"string"}],"name":"InvalidMsg","type":"error"},{"anonymous":false,"inputs":[{"indexed":true,"internalType":"address","name":"sender","type":"address"},{"indexed":true,"internalType":"uint256","name":"id","type":"uint256"},{"components":[{"internalType":"string","name":"ListText","type":"string"},{"internalType":"enum TodoContract.ListSituation","name":"isComplete","type":"uint8"},{"internalType":"uint256","name":"id","type":"uint256"}],"indexed":false,"internalType":"struct TodoContract.TodoList","name":"todo","type":"tuple"}],"name":"editedTodoList","type":"event"},{"inputs":[{"internalType":"string","name":"ListMsg","type":"string"},{"internalType":"uint256","name":"id","type":"uint256"}],"name":"addItemtoList","outputs":[],"stateMutability":"nonpayable","type":"function"},{"inputs":[{"internalType":"address","name":"adr","type":"address"},{"internalType":"uint256","name":"index","type":"uint256"}],"name":"checkTodoListItem","outputs":[],"stateMutability":"nonpayable","type":"function"},{"inputs":[{"internalType":"address","name":"adr","type":"address"},{"internalType":"uint256","name":"index","type":"uint256"}],"name":"getTodo","outputs":[{"components":[{"internalType":"string","name":"ListText","type":"string"},{"internalType":"enum TodoContract.ListSituation","name":"isComplete","type":"uint8"},{"internalType":"uint256","name":"id","type":"uint256"}],"internalType":"struct TodoContract.TodoList","name":"","type":"tuple"}],"stateMutability":"view","type":"function"}],"devdoc":{"kind":"dev","methods":{},"version":1},"evm":{"assembly":"    /* \"Todo.sol\":65:1422  contract TodoContract {... */\n  mstore(0x40, 0x80)\n    /* \"Todo.sol\":495:524  constructor(){... */\n  callvalue\n  dup1\n  iszero\n  tag_1\n  jumpi\n  0x00\n  dup1\n  revert\ntag_1:\n  pop\n    /* \"Todo.sol\":65:1422  contract TodoContract {... */\n  dataSize(sub_0)\n  dup1\n  dataOffset(sub_0)\n  0x00\n  codecopy\n  0x00\n  return\nstop\n\nsub_0: assembly {\n        /* \"Todo.sol\":65:1422  contract TodoContract {... */\n      mstore(0x40, 0x80)\n      callvalue\n      dup1\n      iszero\n      tag_1\n      jumpi\n      0x00\n      dup1\n      revert\n    tag_1:\n      pop\n      jumpi(tag_2, lt(calldatasize, 0x04))\n      shr(0xe0, calldataload(0x00))\n      dup1\n      0x3fb20178\n      eq\n      tag_3\n      jumpi\n      dup1\n      0x6b43dabd\n      eq\n      tag_4\n      jumpi\n      dup1\n      0x985ecf6d\n      eq\n      tag_5\n      jumpi\n    tag_2:\n      0x00\n      dup1\n      revert\n        /* \"Todo.sol\":1293:1414  function getTodo(address adr, uint index) view public returns(TodoList memory){... */\n    tag_3:\n      tag_6\n      0x04\n      dup1\n      calldatasize\n      sub\n      dup2\n      add\n      swap1\n      tag_7\n      swap2\n      swap1\n      tag_8\n      jump\t// in\n    tag_7:\n      tag_9\n      jump\t// in\n    tag_6:\n      mload(0x40)\n      tag_10\n      swap2\n      swap1\n      tag_11\n      jump\t// in\n    tag_10:\n      mload(0x40)\n      dup1\n      swap2\n      sub\n      swap1\n      return\n        /* \"Todo.sol\":736:1087  function addItemtoList(string calldata ListMsg, uint id)  public checkMsgisValid(ListMsg){... */\n    tag_4:\n      tag_12\n      0x04\n      dup1\n      calldatasize\n      sub\n      dup2\n      add\n      swap1\n      tag_13\n      swap2\n      swap1\n      tag_14\n      jump\t// in\n    tag_13:\n      tag_15\n      jump\t// in\n    tag_12:\n      stop\n        /* \"Todo.sol\":1095:1283  function checkTodoListItem(address adr, uint index) public{... */\n    tag_5:\n      tag_16\n      0x04\n      dup1\n      calldatasize\n      sub\n      dup2\n      add\n      swap1\n      tag_17\n      swap2\n      swap1\n      tag_8\n      jump\t// in\n    tag_17:\n      tag_18\n      jump\t// in\n    tag_16:\n      stop\n        /* \"Todo.sol\":1293:1414  function getTodo(address adr, uint index) view public returns(TodoList memory){... */\n    tag_9:\n        /* \"Todo.sol\":1355:1370  TodoList memory */\n      tag_19\n      tag_20\n      jump\t// in\n    tag_19:\n        /* \"Todo.sol\":1389:1394  Todos */\n      0x00\n        /* \"Todo.sol\":1389:1399  Todos[adr] */\n      dup1\n        /* \"Todo.sol\":1395:1398  adr */\n      dup5\n        /* \"Todo.sol\":1389:1399  Todos[adr] */\n      0xffffffffffffffffffffffffffffffffffffffff\n      and\n      0xffffffffffffffffffffffffffffffffffffffff\n      and\n      dup2\n      mstore\n      0x20\n      add\n      swap1\n      dup2\n      mstore\n      0x20\n      add\n      0x00\n      keccak256\n        /* \"Todo.sol\":1389:1406  Todos[adr][index] */\n      0x00\n        /* \"Todo.sol\":1400:1405  index */\n      dup4\n        /* \"Todo.sol\":1389:1406  Todos[adr][index] */\n      dup2\n      mstore\n      0x20\n      add\n      swap1\n      dup2\n      mstore\n      0x20\n      add\n      0x00\n      keccak256\n        /* \"Todo.sol\":1382:1406  return Todos[adr][index] */\n      mload(0x40)\n      dup1\n      0x60\n      add\n      0x40\n      mstore\n      swap1\n      dup2\n      0x00\n      dup3\n      add\n      dup1\n      sload\n      tag_22\n      swap1\n      tag_23\n      jump\t// in\n    tag_22:\n      dup1\n      0x1f\n      add\n      0x20\n      dup1\n      swap2\n      div\n      mul\n      0x20\n      add\n      mload(0x40)\n      swap1\n      dup2\n      add\n      0x40\n      mstore\n      dup1\n      swap3\n      swap2\n      swap1\n      dup2\n      dup2\n      mstore\n      0x20\n      add\n      dup3\n      dup1\n      sload\n      tag_24\n      swap1\n      tag_23\n      jump\t// in\n    tag_24:\n      dup1\n      iszero\n      tag_25\n      jumpi\n      dup1\n      0x1f\n      lt\n      tag_26\n      jumpi\n      0x0100\n      dup1\n      dup4\n      sload\n      div\n      mul\n      dup4\n      mstore\n      swap2\n      0x20\n      add\n      swap2\n      jump(tag_25)\n    tag_26:\n      dup3\n      add\n      swap2\n      swap1\n      0x00\n      mstore\n      keccak256(0x00, 0x20)\n      swap1\n    tag_27:\n      dup2\n      sload\n      dup2\n      mstore\n      swap1\n      0x01\n      add\n      swap1\n      0x20\n      add\n      dup1\n      dup4\n      gt\n      tag_27\n      jumpi\n      dup3\n      swap1\n      sub\n      0x1f\n      and\n      dup3\n      add\n      swap2\n    tag_25:\n      pop\n      pop\n      pop\n      pop\n      pop\n      dup2\n      mstore\n      0x20\n      add\n      0x01\n      dup3\n      add\n      0x00\n      swap1\n      sload\n      swap1\n      0x0100\n      exp\n      swap1\n      div\n      0xff\n      and\n      0x01\n      dup2\n      gt\n      iszero\n      tag_28\n      jumpi\n      tag_29\n      tag_30\n      jump\t// in\n    tag_29:\n    tag_28:\n      0x01\n      dup2\n      gt\n      iszero\n      tag_31\n      jumpi\n      tag_32\n      tag_30\n      jump\t// in\n    tag_32:\n    tag_31:\n      dup2\n      mstore\n      0x20\n      add\n      0x02\n      dup3\n      add\n      sload\n      dup2\n      mstore\n      pop\n      pop\n      swap1\n      pop\n        /* \"Todo.sol\":1293:1414  function getTodo(address adr, uint index) view public returns(TodoList memory){... */\n      swap3\n      swap2\n      pop\n      pop\n      jump\t// out\n        /* \"Todo.sol\":736:1087  function addItemtoList(string calldata ListMsg, uint id)  public checkMsgisValid(ListMsg){... */\n    tag_15:\n        /* \"Todo.sol\":817:824  ListMsg */\n      dup3\n      dup3\n        /* \"Todo.sol\":616:617  0 */\n      0x00\n        /* \"Todo.sol\":600:604  _msg */\n      dup3\n      dup3\n        /* \"Todo.sol\":594:612  bytes(_msg).length */\n      swap1\n      pop\n        /* \"Todo.sol\":594:617  bytes(_msg).length == 0 */\n      sub\n        /* \"Todo.sol\":591:698  if(bytes(_msg).length == 0){... */\n      tag_34\n      jumpi\n        /* \"Todo.sol\":651:661  msg.sender */\n      caller\n        /* \"Todo.sol\":640:686  InvalidMsg(msg.sender, \"Invalid List Message\") */\n      mload(0x40)\n      0x8e16983600000000000000000000000000000000000000000000000000000000\n      dup2\n      mstore\n      0x04\n      add\n      tag_35\n      swap2\n      swap1\n      tag_36\n      jump\t// in\n    tag_35:\n      mload(0x40)\n      dup1\n      swap2\n      sub\n      swap1\n      revert\n        /* \"Todo.sol\":591:698  if(bytes(_msg).length == 0){... */\n    tag_34:\n        /* \"Todo.sol\":836:856  TodoList memory todo */\n      0x00\n        /* \"Todo.sol\":859:980  TodoList({... */\n      mload(0x40)\n      dup1\n      0x60\n      add\n      0x40\n      mstore\n      dup1\n        /* \"Todo.sol\":892:899  ListMsg */\n      dup8\n      dup8\n        /* \"Todo.sol\":859:980  TodoList({... */\n      dup1\n      dup1\n      0x1f\n      add\n      0x20\n      dup1\n      swap2\n      div\n      mul\n      0x20\n      add\n      mload(0x40)\n      swap1\n      dup2\n      add\n      0x40\n      mstore\n      dup1\n      swap4\n      swap3\n      swap2\n      swap1\n      dup2\n      dup2\n      mstore\n      0x20\n      add\n      dup4\n      dup4\n      dup1\n      dup3\n      dup5\n      calldatacopy\n      0x00\n      dup2\n      dup5\n      add\n      mstore\n      not(0x1f)\n      0x1f\n      dup3\n      add\n      and\n      swap1\n      pop\n      dup1\n      dup4\n      add\n      swap3\n      pop\n      pop\n      pop\n      pop\n      pop\n      pop\n      pop\n      dup2\n      mstore\n      0x20\n      add\n        /* \"Todo.sol\":926:947  ListSituation.unCheck */\n      0x00\n        /* \"Todo.sol\":859:980  TodoList({... */\n      0x01\n      dup2\n      gt\n      iszero\n      tag_38\n      jumpi\n      tag_39\n      tag_30\n      jump\t// in\n    tag_39:\n    tag_38:\n      dup2\n      mstore\n      0x20\n      add\n        /* \"Todo.sol\":966:968  id */\n      dup6\n        /* \"Todo.sol\":859:980  TodoList({... */\n      dup2\n      mstore\n      pop\n        /* \"Todo.sol\":836:980  TodoList memory todo = TodoList({... */\n      swap1\n      pop\n        /* \"Todo.sol\":1017:1021  todo */\n      dup1\n        /* \"Todo.sol\":993:998  Todos */\n      0x00\n        /* \"Todo.sol\":993:1010  Todos[msg.sender] */\n      dup1\n        /* \"Todo.sol\":999:1009  msg.sender */\n      caller\n        /* \"Todo.sol\":993:1010  Todos[msg.sender] */\n      0xffffffffffffffffffffffffffffffffffffffff\n      and\n      0xffffffffffffffffffffffffffffffffffffffff\n      and\n      dup2\n      mstore\n      0x20\n      add\n      swap1\n      dup2\n      mstore\n      0x20\n      add\n      0x00\n      keccak256\n        /* \"Todo.sol\":993:1014  Todos[msg.sender][id] */\n      0x00\n        /* \"Todo.sol\":1011:1013  id */\n      dup7\n        /* \"Todo.sol\":993:1014  Todos[msg.sender][id] */\n      dup2\n      mstore\n      0x20\n      add\n      swap1\n      dup2\n      mstore\n      0x20\n      add\n      0x00\n      keccak256\n        /* \"Todo.sol\":993:1021  Todos[msg.sender][id] = todo */\n      0x00\n      dup3\n      add\n      mload\n      dup2\n      0x00\n      add\n      swap1\n      dup2\n      tag_40\n      swap2\n      swap1\n      tag_41\n      jump\t// in\n    tag_40:\n      pop\n      0x20\n      dup3\n      add\n      mload\n      dup2\n      0x01\n      add\n      exp(0x0100, 0x00)\n      dup2\n      sload\n      dup2\n      0xff\n      mul\n      not\n      and\n      swap1\n      dup4\n      0x01\n      dup2\n      gt\n      iszero\n      tag_42\n      jumpi\n      tag_43\n      tag_30\n      jump\t// in\n    tag_43:\n    tag_42:\n      mul\n      or\n      swap1\n      sstore\n      pop\n      0x40\n      dup3\n      add\n      mload\n      dup2\n      0x02\n      add\n      sstore\n      swap1\n      pop\n      pop\n        /* \"Todo.sol\":1063:1065  id */\n      dup4\n        /* \"Todo.sol\":1052:1062  msg.sender */\n      caller\n        /* \"Todo.sol\":1037:1071  editedTodoList(msg.sender,id,todo) */\n      0xffffffffffffffffffffffffffffffffffffffff\n      and\n      0x81cd882d95810081c71089a23eb32af1727f51692315846a8634bd9a187c431c\n        /* \"Todo.sol\":1066:1070  todo */\n      dup4\n        /* \"Todo.sol\":1037:1071  editedTodoList(msg.sender,id,todo) */\n      mload(0x40)\n      tag_44\n      swap2\n      swap1\n      tag_11\n      jump\t// in\n    tag_44:\n      mload(0x40)\n      dup1\n      swap2\n      sub\n      swap1\n      log3\n        /* \"Todo.sol\":825:1087  {... */\n      pop\n        /* \"Todo.sol\":736:1087  function addItemtoList(string calldata ListMsg, uint id)  public checkMsgisValid(ListMsg){... */\n      pop\n      pop\n      pop\n      pop\n      pop\n      jump\t// out\n        /* \"Todo.sol\":1095:1283  function checkTodoListItem(address adr, uint index) public{... */\n    tag_18:\n        /* \"Todo.sol\":1196:1215  ListSituation.Check */\n      0x01\n        /* \"Todo.sol\":1165:1170  Todos */\n      0x00\n        /* \"Todo.sol\":1165:1175  Todos[adr] */\n      dup1\n        /* \"Todo.sol\":1171:1174  adr */\n      dup5\n        /* \"Todo.sol\":1165:1175  Todos[adr] */\n      0xffffffffffffffffffffffffffffffffffffffff\n      and\n      0xffffffffffffffffffffffffffffffffffffffff\n      and\n      dup2\n      mstore\n      0x20\n      add\n      swap1\n      dup2\n      mstore\n      0x20\n      add\n      0x00\n      keccak256\n        /* \"Todo.sol\":1165:1182  Todos[adr][index] */\n      0x00\n        /* \"Todo.sol\":1176:1181  index */\n      dup4\n        /* \"Todo.sol\":1165:1182  Todos[adr][index] */\n      dup2\n      mstore\n      0x20\n      add\n      swap1\n      dup2\n      mstore\n      0x20\n      add\n      0x00\n      keccak256\n        /* \"Todo.sol\":1165:1193  Todos[adr][index].isComplete */\n      0x01\n      add\n      0x00\n        /* \"Todo.sol\":1165:1215  Todos[adr][index].isComplete = ListSituation.Check */\n      0x0100\n      exp\n      dup2\n      sload\n      dup2\n      0xff\n      mul\n      not\n      and\n      swap1\n      dup4\n      0x01\n      dup2\n      gt\n      iszero\n      tag_46\n      jumpi\n      tag_47\n      tag_30\n      jump\t// in\n    tag_47:\n    tag_46:\n      mul\n      or\n      swap1\n      sstore\n      pop\n        /* \"Todo.sol\":1251:1256  index */\n      dup1\n        /* \"Todo.sol\":1247:1250  adr */\n      dup3\n        /* \"Todo.sol\":1232:1275  editedTodoList(adr,index,Todos[adr][index]) */\n      0xffffffffffffffffffffffffffffffffffffffff\n      and\n      0x81cd882d95810081c71089a23eb32af1727f51692315846a8634bd9a187c431c\n        /* \"Todo.sol\":1257:1262  Todos */\n      0x00\n        /* \"Todo.sol\":1257:1267  Todos[adr] */\n      dup1\n        /* \"Todo.sol\":1263:1266  adr */\n      dup7\n        /* \"Todo.sol\":1257:1267  Todos[adr] */\n      0xffffffffffffffffffffffffffffffffffffffff\n      and\n      0xffffffffffffffffffffffffffffffffffffffff\n      and\n      dup2\n      mstore\n      0x20\n      add\n      swap1\n      dup2\n      mstore\n      0x20\n      add\n      0x00\n      keccak256\n        /* \"Todo.sol\":1257:1274  Todos[adr][index] */\n      0x00\n        /* \"Todo.sol\":1268:1273  index */\n      dup6\n        /* \"Todo.sol\":1257:1274  Todos[adr][index] */\n      dup2\n      mstore\n      0x20\n      add\n      swap1\n      dup2\n      mstore\n      0x20\n      add\n      0x00\n      keccak256\n        /* \"Todo.sol\":1232:1275  editedTodoList(adr,index,Todos[adr][index]) */\n      mload(0x40)\n      tag_48\n      swap2\n      swap1\n      tag_49\n      jump\t// in\n    tag_48:\n      mload(0x40)\n      dup1\n      swap2\n      sub\n      swap1\n      log3\n        /* \"Todo.sol\":1095:1283  function checkTodoListItem(address adr, uint index) public{... */\n      pop\n      pop\n      jump\t// out\n    tag_20:\n      mload(0x40)\n      dup1\n      0x60\n      add\n      0x40\n      mstore\n      dup1\n      0x60\n      dup2\n      mstore\n      0x20\n      add\n      0x00\n      0x01\n      dup2\n      gt\n      iszero\n      tag_50\n      jumpi\n      tag_51\n      tag_30\n      jump\t// in\n    tag_51:\n    tag_50:\n      dup2\n      mstore\n      0x20\n      add\n      0x00\n      dup2\n      mstore\n      pop\n      swap1\n      jump\t// out\n        /* \"#utility.yul\":88:205   */\n    tag_53:\n        /* \"#utility.yul\":197:198   */\n      0x00\n        /* \"#utility.yul\":194:195   */\n      dup1\n        /* \"#utility.yul\":187:199   */\n      revert\n        /* \"#utility.yul\":211:328   */\n    tag_54:\n        /* \"#utility.yul\":320:321   */\n      0x00\n        /* \"#utility.yul\":317:318   */\n      dup1\n        /* \"#utility.yul\":310:322   */\n      revert\n        /* \"#utility.yul\":334:460   */\n    tag_55:\n        /* \"#utility.yul\":371:378   */\n      0x00\n        /* \"#utility.yul\":411:453   */\n      0xffffffffffffffffffffffffffffffffffffffff\n        /* \"#utility.yul\":404:409   */\n      dup3\n        /* \"#utility.yul\":400:454   */\n      and\n        /* \"#utility.yul\":389:454   */\n      swap1\n      pop\n        /* \"#utility.yul\":334:460   */\n      swap2\n      swap1\n      pop\n      jump\t// out\n        /* \"#utility.yul\":466:562   */\n    tag_56:\n        /* \"#utility.yul\":503:510   */\n      0x00\n        /* \"#utility.yul\":532:556   */\n      tag_111\n        /* \"#utility.yul\":550:555   */\n      dup3\n        /* \"#utility.yul\":532:556   */\n      tag_55\n      jump\t// in\n    tag_111:\n        /* \"#utility.yul\":521:556   */\n      swap1\n      pop\n        /* \"#utility.yul\":466:562   */\n      swap2\n      swap1\n      pop\n      jump\t// out\n        /* \"#utility.yul\":568:690   */\n    tag_57:\n        /* \"#utility.yul\":641:665   */\n      tag_113\n        /* \"#utility.yul\":659:664   */\n      dup2\n        /* \"#utility.yul\":641:665   */\n      tag_56\n      jump\t// in\n    tag_113:\n        /* \"#utility.yul\":634:639   */\n      dup2\n        /* \"#utility.yul\":631:666   */\n      eq\n        /* \"#utility.yul\":621:684   */\n      tag_114\n      jumpi\n        /* \"#utility.yul\":680:681   */\n      0x00\n        /* \"#utility.yul\":677:678   */\n      dup1\n        /* \"#utility.yul\":670:682   */\n      revert\n        /* \"#utility.yul\":621:684   */\n    tag_114:\n        /* \"#utility.yul\":568:690   */\n      pop\n      jump\t// out\n        /* \"#utility.yul\":696:835   */\n    tag_58:\n        /* \"#utility.yul\":742:747   */\n      0x00\n        /* \"#utility.yul\":780:786   */\n      dup2\n        /* \"#utility.yul\":767:787   */\n      calldataload\n        /* \"#utility.yul\":758:787   */\n      swap1\n      pop\n        /* \"#utility.yul\":796:829   */\n      tag_116\n        /* \"#utility.yul\":823:828   */\n      dup2\n        /* \"#utility.yul\":796:829   */\n      tag_57\n      jump\t// in\n    tag_116:\n        /* \"#utility.yul\":696:835   */\n      swap3\n      swap2\n      pop\n      pop\n      jump\t// out\n        /* \"#utility.yul\":841:918   */\n    tag_59:\n        /* \"#utility.yul\":878:885   */\n      0x00\n        /* \"#utility.yul\":907:912   */\n      dup2\n        /* \"#utility.yul\":896:912   */\n      swap1\n      pop\n        /* \"#utility.yul\":841:918   */\n      swap2\n      swap1\n      pop\n      jump\t// out\n        /* \"#utility.yul\":924:1046   */\n    tag_60:\n        /* \"#utility.yul\":997:1021   */\n      tag_119\n        /* \"#utility.yul\":1015:1020   */\n      dup2\n        /* \"#utility.yul\":997:1021   */\n      tag_59\n      jump\t// in\n    tag_119:\n        /* \"#utility.yul\":990:995   */\n      dup2\n        /* \"#utility.yul\":987:1022   */\n      eq\n        /* \"#utility.yul\":977:1040   */\n      tag_120\n      jumpi\n        /* \"#utility.yul\":1036:1037   */\n      0x00\n        /* \"#utility.yul\":1033:1034   */\n      dup1\n        /* \"#utility.yul\":1026:1038   */\n      revert\n        /* \"#utility.yul\":977:1040   */\n    tag_120:\n        /* \"#utility.yul\":924:1046   */\n      pop\n      jump\t// out\n        /* \"#utility.yul\":1052:1191   */\n    tag_61:\n        /* \"#utility.yul\":1098:1103   */\n      0x00\n        /* \"#utility.yul\":1136:1142   */\n      dup2\n        /* \"#utility.yul\":1123:1143   */\n      calldataload\n        /* \"#utility.yul\":1114:1143   */\n      swap1\n      pop\n        /* \"#utility.yul\":1152:1185   */\n      tag_122\n        /* \"#utility.yul\":1179:1184   */\n      dup2\n        /* \"#utility.yul\":1152:1185   */\n      tag_60\n      jump\t// in\n    tag_122:\n        /* \"#utility.yul\":1052:1191   */\n      swap3\n      swap2\n      pop\n      pop\n      jump\t// out\n        /* \"#utility.yul\":1197:1671   */\n    tag_8:\n        /* \"#utility.yul\":1265:1271   */\n      0x00\n        /* \"#utility.yul\":1273:1279   */\n      dup1\n        /* \"#utility.yul\":1322:1324   */\n      0x40\n        /* \"#utility.yul\":1310:1319   */\n      dup4\n        /* \"#utility.yul\":1301:1308   */\n      dup6\n        /* \"#utility.yul\":1297:1320   */\n      sub\n        /* \"#utility.yul\":1293:1325   */\n      slt\n        /* \"#utility.yul\":1290:1409   */\n      iszero\n      tag_124\n      jumpi\n        /* \"#utility.yul\":1328:1407   */\n      tag_125\n      tag_53\n      jump\t// in\n    tag_125:\n        /* \"#utility.yul\":1290:1409   */\n    tag_124:\n        /* \"#utility.yul\":1448:1449   */\n      0x00\n        /* \"#utility.yul\":1473:1526   */\n      tag_126\n        /* \"#utility.yul\":1518:1525   */\n      dup6\n        /* \"#utility.yul\":1509:1515   */\n      dup3\n        /* \"#utility.yul\":1498:1507   */\n      dup7\n        /* \"#utility.yul\":1494:1516   */\n      add\n        /* \"#utility.yul\":1473:1526   */\n      tag_58\n      jump\t// in\n    tag_126:\n        /* \"#utility.yul\":1463:1526   */\n      swap3\n      pop\n        /* \"#utility.yul\":1419:1536   */\n      pop\n        /* \"#utility.yul\":1575:1577   */\n      0x20\n        /* \"#utility.yul\":1601:1654   */\n      tag_127\n        /* \"#utility.yul\":1646:1653   */\n      dup6\n        /* \"#utility.yul\":1637:1643   */\n      dup3\n        /* \"#utility.yul\":1626:1635   */\n      dup7\n        /* \"#utility.yul\":1622:1644   */\n      add\n        /* \"#utility.yul\":1601:1654   */\n      tag_61\n      jump\t// in\n    tag_127:\n        /* \"#utility.yul\":1591:1654   */\n      swap2\n      pop\n        /* \"#utility.yul\":1546:1664   */\n      pop\n        /* \"#utility.yul\":1197:1671   */\n      swap3\n      pop\n      swap3\n      swap1\n      pop\n      jump\t// out\n        /* \"#utility.yul\":1677:1776   */\n    tag_62:\n        /* \"#utility.yul\":1729:1735   */\n      0x00\n        /* \"#utility.yul\":1763:1768   */\n      dup2\n        /* \"#utility.yul\":1757:1769   */\n      mload\n        /* \"#utility.yul\":1747:1769   */\n      swap1\n      pop\n        /* \"#utility.yul\":1677:1776   */\n      swap2\n      swap1\n      pop\n      jump\t// out\n        /* \"#utility.yul\":1782:1941   */\n    tag_63:\n        /* \"#utility.yul\":1856:1867   */\n      0x00\n        /* \"#utility.yul\":1890:1896   */\n      dup3\n        /* \"#utility.yul\":1885:1888   */\n      dup3\n        /* \"#utility.yul\":1878:1897   */\n      mstore\n        /* \"#utility.yul\":1930:1934   */\n      0x20\n        /* \"#utility.yul\":1925:1928   */\n      dup3\n        /* \"#utility.yul\":1921:1935   */\n      add\n        /* \"#utility.yul\":1906:1935   */\n      swap1\n      pop\n        /* \"#utility.yul\":1782:1941   */\n      swap3\n      swap2\n      pop\n      pop\n      jump\t// out\n        /* \"#utility.yul\":1947:2193   */\n    tag_64:\n        /* \"#utility.yul\":2028:2029   */\n      0x00\n        /* \"#utility.yul\":2038:2151   */\n    tag_131:\n        /* \"#utility.yul\":2052:2058   */\n      dup4\n        /* \"#utility.yul\":2049:2050   */\n      dup2\n        /* \"#utility.yul\":2046:2059   */\n      lt\n        /* \"#utility.yul\":2038:2151   */\n      iszero\n      tag_133\n      jumpi\n        /* \"#utility.yul\":2137:2138   */\n      dup1\n        /* \"#utility.yul\":2132:2135   */\n      dup3\n        /* \"#utility.yul\":2128:2139   */\n      add\n        /* \"#utility.yul\":2122:2140   */\n      mload\n        /* \"#utility.yul\":2118:2119   */\n      dup2\n        /* \"#utility.yul\":2113:2116   */\n      dup5\n        /* \"#utility.yul\":2109:2120   */\n      add\n        /* \"#utility.yul\":2102:2141   */\n      mstore\n        /* \"#utility.yul\":2074:2076   */\n      0x20\n        /* \"#utility.yul\":2071:2072   */\n      dup2\n        /* \"#utility.yul\":2067:2077   */\n      add\n        /* \"#utility.yul\":2062:2077   */\n      swap1\n      pop\n        /* \"#utility.yul\":2038:2151   */\n      jump(tag_131)\n    tag_133:\n        /* \"#utility.yul\":2185:2186   */\n      0x00\n        /* \"#utility.yul\":2176:2182   */\n      dup5\n        /* \"#utility.yul\":2171:2174   */\n      dup5\n        /* \"#utility.yul\":2167:2183   */\n      add\n        /* \"#utility.yul\":2160:2187   */\n      mstore\n        /* \"#utility.yul\":2009:2193   */\n      pop\n        /* \"#utility.yul\":1947:2193   */\n      pop\n      pop\n      pop\n      jump\t// out\n        /* \"#utility.yul\":2199:2301   */\n    tag_65:\n        /* \"#utility.yul\":2240:2246   */\n      0x00\n        /* \"#utility.yul\":2291:2293   */\n      0x1f\n        /* \"#utility.yul\":2287:2294   */\n      not\n        /* \"#utility.yul\":2282:2284   */\n      0x1f\n        /* \"#utility.yul\":2275:2280   */\n      dup4\n        /* \"#utility.yul\":2271:2285   */\n      add\n        /* \"#utility.yul\":2267:2295   */\n      and\n        /* \"#utility.yul\":2257:2295   */\n      swap1\n      pop\n        /* \"#utility.yul\":2199:2301   */\n      swap2\n      swap1\n      pop\n      jump\t// out\n        /* \"#utility.yul\":2307:2664   */\n    tag_66:\n        /* \"#utility.yul\":2385:2388   */\n      0x00\n        /* \"#utility.yul\":2413:2452   */\n      tag_136\n        /* \"#utility.yul\":2446:2451   */\n      dup3\n        /* \"#utility.yul\":2413:2452   */\n      tag_62\n      jump\t// in\n    tag_136:\n        /* \"#utility.yul\":2468:2529   */\n      tag_137\n        /* \"#utility.yul\":2522:2528   */\n      dup2\n        /* \"#utility.yul\":2517:2520   */\n      dup6\n        /* \"#utility.yul\":2468:2529   */\n      tag_63\n      jump\t// in\n    tag_137:\n        /* \"#utility.yul\":2461:2529   */\n      swap4\n      pop\n        /* \"#utility.yul\":2538:2603   */\n      tag_138\n        /* \"#utility.yul\":2596:2602   */\n      dup2\n        /* \"#utility.yul\":2591:2594   */\n      dup6\n        /* \"#utility.yul\":2584:2588   */\n      0x20\n        /* \"#utility.yul\":2577:2582   */\n      dup7\n        /* \"#utility.yul\":2573:2589   */\n      add\n        /* \"#utility.yul\":2538:2603   */\n      tag_64\n      jump\t// in\n    tag_138:\n        /* \"#utility.yul\":2628:2657   */\n      tag_139\n        /* \"#utility.yul\":2650:2656   */\n      dup2\n        /* \"#utility.yul\":2628:2657   */\n      tag_65\n      jump\t// in\n    tag_139:\n        /* \"#utility.yul\":2623:2626   */\n      dup5\n        /* \"#utility.yul\":2619:2658   */\n      add\n        /* \"#utility.yul\":2612:2658   */\n      swap2\n      pop\n        /* \"#utility.yul\":2389:2664   */\n      pop\n        /* \"#utility.yul\":2307:2664   */\n      swap3\n      swap2\n      pop\n      pop\n      jump\t// out\n        /* \"#utility.yul\":2670:2850   */\n    tag_30:\n        /* \"#utility.yul\":2718:2795   */\n      0x4e487b7100000000000000000000000000000000000000000000000000000000\n        /* \"#utility.yul\":2715:2716   */\n      0x00\n        /* \"#utility.yul\":2708:2796   */\n      mstore\n        /* \"#utility.yul\":2815:2819   */\n      0x21\n        /* \"#utility.yul\":2812:2813   */\n      0x04\n        /* \"#utility.yul\":2805:2820   */\n      mstore\n        /* \"#utility.yul\":2839:2843   */\n      0x24\n        /* \"#utility.yul\":2836:2837   */\n      0x00\n        /* \"#utility.yul\":2829:2844   */\n      revert\n        /* \"#utility.yul\":2856:2977   */\n    tag_67:\n        /* \"#utility.yul\":2945:2946   */\n      0x02\n        /* \"#utility.yul\":2938:2943   */\n      dup2\n        /* \"#utility.yul\":2935:2947   */\n      lt\n        /* \"#utility.yul\":2925:2971   */\n      tag_142\n      jumpi\n        /* \"#utility.yul\":2951:2969   */\n      tag_143\n      tag_30\n      jump\t// in\n    tag_143:\n        /* \"#utility.yul\":2925:2971   */\n    tag_142:\n        /* \"#utility.yul\":2856:2977   */\n      pop\n      jump\t// out\n        /* \"#utility.yul\":2983:3126   */\n    tag_68:\n        /* \"#utility.yul\":3036:3043   */\n      0x00\n        /* \"#utility.yul\":3065:3070   */\n      dup2\n        /* \"#utility.yul\":3054:3070   */\n      swap1\n      pop\n        /* \"#utility.yul\":3071:3120   */\n      tag_145\n        /* \"#utility.yul\":3114:3119   */\n      dup3\n        /* \"#utility.yul\":3071:3120   */\n      tag_67\n      jump\t// in\n    tag_145:\n        /* \"#utility.yul\":2983:3126   */\n      swap2\n      swap1\n      pop\n      jump\t// out\n        /* \"#utility.yul\":3132:3275   */\n    tag_69:\n        /* \"#utility.yul\":3196:3205   */\n      0x00\n        /* \"#utility.yul\":3229:3269   */\n      tag_147\n        /* \"#utility.yul\":3263:3268   */\n      dup3\n        /* \"#utility.yul\":3229:3269   */\n      tag_68\n      jump\t// in\n    tag_147:\n        /* \"#utility.yul\":3216:3269   */\n      swap1\n      pop\n        /* \"#utility.yul\":3132:3275   */\n      swap2\n      swap1\n      pop\n      jump\t// out\n        /* \"#utility.yul\":3281:3430   */\n    tag_70:\n        /* \"#utility.yul\":3372:3423   */\n      tag_149\n        /* \"#utility.yul\":3417:3422   */\n      dup2\n        /* \"#utility.yul\":3372:3423   */\n      tag_69\n      jump\t// in\n    tag_149:\n        /* \"#utility.yul\":3367:3370   */\n      dup3\n        /* \"#utility.yul\":3360:3424   */\n      mstore\n        /* \"#utility.yul\":3281:3430   */\n      pop\n      pop\n      jump\t// out\n        /* \"#utility.yul\":3436:3544   */\n    tag_71:\n        /* \"#utility.yul\":3513:3537   */\n      tag_151\n        /* \"#utility.yul\":3531:3536   */\n      dup2\n        /* \"#utility.yul\":3513:3537   */\n      tag_59\n      jump\t// in\n    tag_151:\n        /* \"#utility.yul\":3508:3511   */\n      dup3\n        /* \"#utility.yul\":3501:3538   */\n      mstore\n        /* \"#utility.yul\":3436:3544   */\n      pop\n      pop\n      jump\t// out\n        /* \"#utility.yul\":3618:4418   */\n    tag_72:\n        /* \"#utility.yul\":3735:3738   */\n      0x00\n        /* \"#utility.yul\":3771:3775   */\n      0x60\n        /* \"#utility.yul\":3766:3769   */\n      dup4\n        /* \"#utility.yul\":3762:3776   */\n      add\n        /* \"#utility.yul\":3862:3866   */\n      0x00\n        /* \"#utility.yul\":3855:3860   */\n      dup4\n        /* \"#utility.yul\":3851:3867   */\n      add\n        /* \"#utility.yul\":3845:3868   */\n      mload\n        /* \"#utility.yul\":3915:3918   */\n      dup5\n        /* \"#utility.yul\":3909:3913   */\n      dup3\n        /* \"#utility.yul\":3905:3919   */\n      sub\n        /* \"#utility.yul\":3898:3902   */\n      0x00\n        /* \"#utility.yul\":3893:3896   */\n      dup7\n        /* \"#utility.yul\":3889:3903   */\n      add\n        /* \"#utility.yul\":3882:3920   */\n      mstore\n        /* \"#utility.yul\":3941:4014   */\n      tag_153\n        /* \"#utility.yul\":4009:4013   */\n      dup3\n        /* \"#utility.yul\":3995:4007   */\n      dup3\n        /* \"#utility.yul\":3941:4014   */\n      tag_66\n      jump\t// in\n    tag_153:\n        /* \"#utility.yul\":3933:4014   */\n      swap2\n      pop\n        /* \"#utility.yul\":3786:4025   */\n      pop\n        /* \"#utility.yul\":4113:4117   */\n      0x20\n        /* \"#utility.yul\":4106:4111   */\n      dup4\n        /* \"#utility.yul\":4102:4118   */\n      add\n        /* \"#utility.yul\":4096:4119   */\n      mload\n        /* \"#utility.yul\":4132:4209   */\n      tag_154\n        /* \"#utility.yul\":4203:4207   */\n      0x20\n        /* \"#utility.yul\":4198:4201   */\n      dup7\n        /* \"#utility.yul\":4194:4208   */\n      add\n        /* \"#utility.yul\":4180:4192   */\n      dup3\n        /* \"#utility.yul\":4132:4209   */\n      tag_70\n      jump\t// in\n    tag_154:\n        /* \"#utility.yul\":4035:4219   */\n      pop\n        /* \"#utility.yul\":4299:4303   */\n      0x40\n        /* \"#utility.yul\":4292:4297   */\n      dup4\n        /* \"#utility.yul\":4288:4304   */\n      add\n        /* \"#utility.yul\":4282:4305   */\n      mload\n        /* \"#utility.yul\":4318:4381   */\n      tag_155\n        /* \"#utility.yul\":4375:4379   */\n      0x40\n        /* \"#utility.yul\":4370:4373   */\n      dup7\n        /* \"#utility.yul\":4366:4380   */\n      add\n        /* \"#utility.yul\":4352:4364   */\n      dup3\n        /* \"#utility.yul\":4318:4381   */\n      tag_71\n      jump\t// in\n    tag_155:\n        /* \"#utility.yul\":4229:4391   */\n      pop\n        /* \"#utility.yul\":4408:4412   */\n      dup1\n        /* \"#utility.yul\":4401:4412   */\n      swap2\n      pop\n        /* \"#utility.yul\":3740:4418   */\n      pop\n        /* \"#utility.yul\":3618:4418   */\n      swap3\n      swap2\n      pop\n      pop\n      jump\t// out\n        /* \"#utility.yul\":4424:4793   */\n    tag_11:\n        /* \"#utility.yul\":4565:4569   */\n      0x00\n        /* \"#utility.yul\":4603:4605   */\n      0x20\n        /* \"#utility.yul\":4592:4601   */\n      dup3\n        /* \"#utility.yul\":4588:4606   */\n      add\n        /* \"#utility.yul\":4580:4606   */\n      swap1\n      pop\n        /* \"#utility.yul\":4652:4661   */\n      dup2\n        /* \"#utility.yul\":4646:4650   */\n      dup2\n        /* \"#utility.yul\":4642:4662   */\n      sub\n        /* \"#utility.yul\":4638:4639   */\n      0x00\n        /* \"#utility.yul\":4627:4636   */\n      dup4\n        /* \"#utility.yul\":4623:4640   */\n      add\n        /* \"#utility.yul\":4616:4663   */\n      mstore\n        /* \"#utility.yul\":4680:4786   */\n      tag_157\n        /* \"#utility.yul\":4781:4785   */\n      dup2\n        /* \"#utility.yul\":4772:4778   */\n      dup5\n        /* \"#utility.yul\":4680:4786   */\n      tag_72\n      jump\t// in\n    tag_157:\n        /* \"#utility.yul\":4672:4786   */\n      swap1\n      pop\n        /* \"#utility.yul\":4424:4793   */\n      swap3\n      swap2\n      pop\n      pop\n      jump\t// out\n        /* \"#utility.yul\":4799:4916   */\n    tag_73:\n        /* \"#utility.yul\":4908:4909   */\n      0x00\n        /* \"#utility.yul\":4905:4906   */\n      dup1\n        /* \"#utility.yul\":4898:4910   */\n      revert\n        /* \"#utility.yul\":4922:5039   */\n    tag_74:\n        /* \"#utility.yul\":5031:5032   */\n      0x00\n        /* \"#utility.yul\":5028:5029   */\n      dup1\n        /* \"#utility.yul\":5021:5033   */\n      revert\n        /* \"#utility.yul\":5045:5162   */\n    tag_75:\n        /* \"#utility.yul\":5154:5155   */\n      0x00\n        /* \"#utility.yul\":5151:5152   */\n      dup1\n        /* \"#utility.yul\":5144:5156   */\n      revert\n        /* \"#utility.yul\":5182:5735   */\n    tag_76:\n        /* \"#utility.yul\":5240:5248   */\n      0x00\n        /* \"#utility.yul\":5250:5256   */\n      dup1\n        /* \"#utility.yul\":5300:5303   */\n      dup4\n        /* \"#utility.yul\":5293:5297   */\n      0x1f\n        /* \"#utility.yul\":5285:5291   */\n      dup5\n        /* \"#utility.yul\":5281:5298   */\n      add\n        /* \"#utility.yul\":5277:5304   */\n      slt\n        /* \"#utility.yul\":5267:5389   */\n      tag_162\n      jumpi\n        /* \"#utility.yul\":5308:5387   */\n      tag_163\n      tag_73\n      jump\t// in\n    tag_163:\n        /* \"#utility.yul\":5267:5389   */\n    tag_162:\n        /* \"#utility.yul\":5421:5427   */\n      dup3\n        /* \"#utility.yul\":5408:5428   */\n      calldataload\n        /* \"#utility.yul\":5398:5428   */\n      swap1\n      pop\n        /* \"#utility.yul\":5451:5469   */\n      0xffffffffffffffff\n        /* \"#utility.yul\":5443:5449   */\n      dup2\n        /* \"#utility.yul\":5440:5470   */\n      gt\n        /* \"#utility.yul\":5437:5554   */\n      iszero\n      tag_164\n      jumpi\n        /* \"#utility.yul\":5473:5552   */\n      tag_165\n      tag_74\n      jump\t// in\n    tag_165:\n        /* \"#utility.yul\":5437:5554   */\n    tag_164:\n        /* \"#utility.yul\":5587:5591   */\n      0x20\n        /* \"#utility.yul\":5579:5585   */\n      dup4\n        /* \"#utility.yul\":5575:5592   */\n      add\n        /* \"#utility.yul\":5563:5592   */\n      swap2\n      pop\n        /* \"#utility.yul\":5641:5644   */\n      dup4\n        /* \"#utility.yul\":5633:5637   */\n      0x01\n        /* \"#utility.yul\":5625:5631   */\n      dup3\n        /* \"#utility.yul\":5621:5638   */\n      mul\n        /* \"#utility.yul\":5611:5619   */\n      dup4\n        /* \"#utility.yul\":5607:5639   */\n      add\n        /* \"#utility.yul\":5604:5645   */\n      gt\n        /* \"#utility.yul\":5601:5729   */\n      iszero\n      tag_166\n      jumpi\n        /* \"#utility.yul\":5648:5727   */\n      tag_167\n      tag_75\n      jump\t// in\n    tag_167:\n        /* \"#utility.yul\":5601:5729   */\n    tag_166:\n        /* \"#utility.yul\":5182:5735   */\n      swap3\n      pop\n      swap3\n      swap1\n      pop\n      jump\t// out\n        /* \"#utility.yul\":5741:6415   */\n    tag_14:\n        /* \"#utility.yul\":5821:5827   */\n      0x00\n        /* \"#utility.yul\":5829:5835   */\n      dup1\n        /* \"#utility.yul\":5837:5843   */\n      0x00\n        /* \"#utility.yul\":5886:5888   */\n      0x40\n        /* \"#utility.yul\":5874:5883   */\n      dup5\n        /* \"#utility.yul\":5865:5872   */\n      dup7\n        /* \"#utility.yul\":5861:5884   */\n      sub\n        /* \"#utility.yul\":5857:5889   */\n      slt\n        /* \"#utility.yul\":5854:5973   */\n      iszero\n      tag_169\n      jumpi\n        /* \"#utility.yul\":5892:5971   */\n      tag_170\n      tag_53\n      jump\t// in\n    tag_170:\n        /* \"#utility.yul\":5854:5973   */\n    tag_169:\n        /* \"#utility.yul\":6040:6041   */\n      0x00\n        /* \"#utility.yul\":6029:6038   */\n      dup5\n        /* \"#utility.yul\":6025:6042   */\n      add\n        /* \"#utility.yul\":6012:6043   */\n      calldataload\n        /* \"#utility.yul\":6070:6088   */\n      0xffffffffffffffff\n        /* \"#utility.yul\":6062:6068   */\n      dup2\n        /* \"#utility.yul\":6059:6089   */\n      gt\n        /* \"#utility.yul\":6056:6173   */\n      iszero\n      tag_171\n      jumpi\n        /* \"#utility.yul\":6092:6171   */\n      tag_172\n      tag_54\n      jump\t// in\n    tag_172:\n        /* \"#utility.yul\":6056:6173   */\n    tag_171:\n        /* \"#utility.yul\":6205:6270   */\n      tag_173\n        /* \"#utility.yul\":6262:6269   */\n      dup7\n        /* \"#utility.yul\":6253:6259   */\n      dup3\n        /* \"#utility.yul\":6242:6251   */\n      dup8\n        /* \"#utility.yul\":6238:6260   */\n      add\n        /* \"#utility.yul\":6205:6270   */\n      tag_76\n      jump\t// in\n    tag_173:\n        /* \"#utility.yul\":6187:6270   */\n      swap4\n      pop\n      swap4\n      pop\n        /* \"#utility.yul\":5983:6280   */\n      pop\n        /* \"#utility.yul\":6319:6321   */\n      0x20\n        /* \"#utility.yul\":6345:6398   */\n      tag_174\n        /* \"#utility.yul\":6390:6397   */\n      dup7\n        /* \"#utility.yul\":6381:6387   */\n      dup3\n        /* \"#utility.yul\":6370:6379   */\n      dup8\n        /* \"#utility.yul\":6366:6388   */\n      add\n        /* \"#utility.yul\":6345:6398   */\n      tag_61\n      jump\t// in\n    tag_174:\n        /* \"#utility.yul\":6335:6398   */\n      swap2\n      pop\n        /* \"#utility.yul\":6290:6408   */\n      pop\n        /* \"#utility.yul\":5741:6415   */\n      swap3\n      pop\n      swap3\n      pop\n      swap3\n      jump\t// out\n        /* \"#utility.yul\":6421:6601   */\n    tag_77:\n        /* \"#utility.yul\":6469:6546   */\n      0x4e487b7100000000000000000000000000000000000000000000000000000000\n        /* \"#utility.yul\":6466:6467   */\n      0x00\n        /* \"#utility.yul\":6459:6547   */\n      mstore\n        /* \"#utility.yul\":6566:6570   */\n      0x22\n        /* \"#utility.yul\":6563:6564   */\n      0x04\n        /* \"#utility.yul\":6556:6571   */\n      mstore\n        /* \"#utility.yul\":6590:6594   */\n      0x24\n        /* \"#utility.yul\":6587:6588   */\n      0x00\n        /* \"#utility.yul\":6580:6595   */\n      revert\n        /* \"#utility.yul\":6607:6927   */\n    tag_23:\n        /* \"#utility.yul\":6651:6657   */\n      0x00\n        /* \"#utility.yul\":6688:6689   */\n      0x02\n        /* \"#utility.yul\":6682:6686   */\n      dup3\n        /* \"#utility.yul\":6678:6690   */\n      div\n        /* \"#utility.yul\":6668:6690   */\n      swap1\n      pop\n        /* \"#utility.yul\":6735:6736   */\n      0x01\n        /* \"#utility.yul\":6729:6733   */\n      dup3\n        /* \"#utility.yul\":6725:6737   */\n      and\n        /* \"#utility.yul\":6756:6774   */\n      dup1\n        /* \"#utility.yul\":6746:6827   */\n      tag_177\n      jumpi\n        /* \"#utility.yul\":6812:6816   */\n      0x7f\n        /* \"#utility.yul\":6804:6810   */\n      dup3\n        /* \"#utility.yul\":6800:6817   */\n      and\n        /* \"#utility.yul\":6790:6817   */\n      swap2\n      pop\n        /* \"#utility.yul\":6746:6827   */\n    tag_177:\n        /* \"#utility.yul\":6874:6876   */\n      0x20\n        /* \"#utility.yul\":6866:6872   */\n      dup3\n        /* \"#utility.yul\":6863:6877   */\n      lt\n        /* \"#utility.yul\":6843:6861   */\n      dup2\n        /* \"#utility.yul\":6840:6878   */\n      sub\n        /* \"#utility.yul\":6837:6921   */\n      tag_178\n      jumpi\n        /* \"#utility.yul\":6893:6911   */\n      tag_179\n      tag_77\n      jump\t// in\n    tag_179:\n        /* \"#utility.yul\":6837:6921   */\n    tag_178:\n        /* \"#utility.yul\":6658:6927   */\n      pop\n        /* \"#utility.yul\":6607:6927   */\n      swap2\n      swap1\n      pop\n      jump\t// out\n        /* \"#utility.yul\":6933:7051   */\n    tag_78:\n        /* \"#utility.yul\":7020:7044   */\n      tag_181\n        /* \"#utility.yul\":7038:7043   */\n      dup2\n        /* \"#utility.yul\":7020:7044   */\n      tag_56\n      jump\t// in\n    tag_181:\n        /* \"#utility.yul\":7015:7018   */\n      dup3\n        /* \"#utility.yul\":7008:7045   */\n      mstore\n        /* \"#utility.yul\":6933:7051   */\n      pop\n      pop\n      jump\t// out\n        /* \"#utility.yul\":7057:7226   */\n    tag_79:\n        /* \"#utility.yul\":7141:7152   */\n      0x00\n        /* \"#utility.yul\":7175:7181   */\n      dup3\n        /* \"#utility.yul\":7170:7173   */\n      dup3\n        /* \"#utility.yul\":7163:7182   */\n      mstore\n        /* \"#utility.yul\":7215:7219   */\n      0x20\n        /* \"#utility.yul\":7210:7213   */\n      dup3\n        /* \"#utility.yul\":7206:7220   */\n      add\n        /* \"#utility.yul\":7191:7220   */\n      swap1\n      pop\n        /* \"#utility.yul\":7057:7226   */\n      swap3\n      swap2\n      pop\n      pop\n      jump\t// out\n        /* \"#utility.yul\":7232:7402   */\n    tag_80:\n        /* \"#utility.yul\":7372:7394   */\n      0x496e76616c6964204c697374204d657373616765000000000000000000000000\n        /* \"#utility.yul\":7368:7369   */\n      0x00\n        /* \"#utility.yul\":7360:7366   */\n      dup3\n        /* \"#utility.yul\":7356:7370   */\n      add\n        /* \"#utility.yul\":7349:7395   */\n      mstore\n        /* \"#utility.yul\":7232:7402   */\n      pop\n      jump\t// out\n        /* \"#utility.yul\":7408:7774   */\n    tag_81:\n        /* \"#utility.yul\":7550:7553   */\n      0x00\n        /* \"#utility.yul\":7571:7638   */\n      tag_185\n        /* \"#utility.yul\":7635:7637   */\n      0x14\n        /* \"#utility.yul\":7630:7633   */\n      dup4\n        /* \"#utility.yul\":7571:7638   */\n      tag_79\n      jump\t// in\n    tag_185:\n        /* \"#utility.yul\":7564:7638   */\n      swap2\n      pop\n        /* \"#utility.yul\":7647:7740   */\n      tag_186\n        /* \"#utility.yul\":7736:7739   */\n      dup3\n        /* \"#utility.yul\":7647:7740   */\n      tag_80\n      jump\t// in\n    tag_186:\n        /* \"#utility.yul\":7765:7767   */\n      0x20\n        /* \"#utility.yul\":7760:7763   */\n      dup3\n        /* \"#utility.yul\":7756:7768   */\n      add\n        /* \"#utility.yul\":7749:7768   */\n      swap1\n      pop\n        /* \"#utility.yul\":7408:7774   */\n      swap2\n      swap1\n      pop\n      jump\t// out\n        /* \"#utility.yul\":7780:8309   */\n    tag_36:\n        /* \"#utility.yul\":7974:7978   */\n      0x00\n        /* \"#utility.yul\":8012:8014   */\n      0x40\n        /* \"#utility.yul\":8001:8010   */\n      dup3\n        /* \"#utility.yul\":7997:8015   */\n      add\n        /* \"#utility.yul\":7989:8015   */\n      swap1\n      pop\n        /* \"#utility.yul\":8025:8096   */\n      tag_188\n        /* \"#utility.yul\":8093:8094   */\n      0x00\n        /* \"#utility.yul\":8082:8091   */\n      dup4\n        /* \"#utility.yul\":8078:8095   */\n      add\n        /* \"#utility.yul\":8069:8075   */\n      dup5\n        /* \"#utility.yul\":8025:8096   */\n      tag_78\n      jump\t// in\n    tag_188:\n        /* \"#utility.yul\":8143:8152   */\n      dup2\n        /* \"#utility.yul\":8137:8141   */\n      dup2\n        /* \"#utility.yul\":8133:8153   */\n      sub\n        /* \"#utility.yul\":8128:8130   */\n      0x20\n        /* \"#utility.yul\":8117:8126   */\n      dup4\n        /* \"#utility.yul\":8113:8131   */\n      add\n        /* \"#utility.yul\":8106:8154   */\n      mstore\n        /* \"#utility.yul\":8171:8302   */\n      tag_189\n        /* \"#utility.yul\":8297:8301   */\n      dup2\n        /* \"#utility.yul\":8171:8302   */\n      tag_81\n      jump\t// in\n    tag_189:\n        /* \"#utility.yul\":8163:8302   */\n      swap1\n      pop\n        /* \"#utility.yul\":7780:8309   */\n      swap3\n      swap2\n      pop\n      pop\n      jump\t// out\n        /* \"#utility.yul\":8315:8495   */\n    tag_82:\n        /* \"#utility.yul\":8363:8440   */\n      0x4e487b7100000000000000000000000000000000000000000000000000000000\n        /* \"#utility.yul\":8360:8361   */\n      0x00\n        /* \"#utility.yul\":8353:8441   */\n      mstore\n        /* \"#utility.yul\":8460:8464   */\n      0x41\n        /* \"#utility.yul\":8457:8458   */\n      0x04\n        /* \"#utility.yul\":8450:8465   */\n      mstore\n        /* \"#utility.yul\":8484:8488   */\n      0x24\n        /* \"#utility.yul\":8481:8482   */\n      0x00\n        /* \"#utility.yul\":8474:8489   */\n      revert\n        /* \"#utility.yul\":8501:8642   */\n    tag_83:\n        /* \"#utility.yul\":8550:8554   */\n      0x00\n        /* \"#utility.yul\":8573:8576   */\n      dup2\n        /* \"#utility.yul\":8565:8576   */\n      swap1\n      pop\n        /* \"#utility.yul\":8596:8599   */\n      dup2\n        /* \"#utility.yul\":8593:8594   */\n      0x00\n        /* \"#utility.yul\":8586:8600   */\n      mstore\n        /* \"#utility.yul\":8630:8634   */\n      0x20\n        /* \"#utility.yul\":8627:8628   */\n      0x00\n        /* \"#utility.yul\":8617:8635   */\n      keccak256\n        /* \"#utility.yul\":8609:8635   */\n      swap1\n      pop\n        /* \"#utility.yul\":8501:8642   */\n      swap2\n      swap1\n      pop\n      jump\t// out\n        /* \"#utility.yul\":8648:8741   */\n    tag_84:\n        /* \"#utility.yul\":8685:8691   */\n      0x00\n        /* \"#utility.yul\":8732:8734   */\n      0x20\n        /* \"#utility.yul\":8727:8729   */\n      0x1f\n        /* \"#utility.yul\":8720:8725   */\n      dup4\n        /* \"#utility.yul\":8716:8730   */\n      add\n        /* \"#utility.yul\":8712:8735   */\n      div\n        /* \"#utility.yul\":8702:8735   */\n      swap1\n      pop\n        /* \"#utility.yul\":8648:8741   */\n      swap2\n      swap1\n      pop\n      jump\t// out\n        /* \"#utility.yul\":8747:8854   */\n    tag_85:\n        /* \"#utility.yul\":8791:8799   */\n      0x00\n        /* \"#utility.yul\":8841:8846   */\n      dup3\n        /* \"#utility.yul\":8835:8839   */\n      dup3\n        /* \"#utility.yul\":8831:8847   */\n      shl\n        /* \"#utility.yul\":8810:8847   */\n      swap1\n      pop\n        /* \"#utility.yul\":8747:8854   */\n      swap3\n      swap2\n      pop\n      pop\n      jump\t// out\n        /* \"#utility.yul\":8860:9253   */\n    tag_86:\n        /* \"#utility.yul\":8929:8935   */\n      0x00\n        /* \"#utility.yul\":8979:8980   */\n      0x08\n        /* \"#utility.yul\":8967:8977   */\n      dup4\n        /* \"#utility.yul\":8963:8981   */\n      mul\n        /* \"#utility.yul\":9002:9099   */\n      tag_195\n        /* \"#utility.yul\":9032:9098   */\n      0xffffffffffffffffffffffffffffffffffffffffffffffffffffffffffffffff\n        /* \"#utility.yul\":9021:9030   */\n      dup3\n        /* \"#utility.yul\":9002:9099   */\n      tag_85\n      jump\t// in\n    tag_195:\n        /* \"#utility.yul\":9120:9159   */\n      tag_196\n        /* \"#utility.yul\":9150:9158   */\n      dup7\n        /* \"#utility.yul\":9139:9148   */\n      dup4\n        /* \"#utility.yul\":9120:9159   */\n      tag_85\n      jump\t// in\n    tag_196:\n        /* \"#utility.yul\":9108:9159   */\n      swap6\n      pop\n        /* \"#utility.yul\":9192:9196   */\n      dup1\n        /* \"#utility.yul\":9188:9197   */\n      not\n        /* \"#utility.yul\":9181:9186   */\n      dup5\n        /* \"#utility.yul\":9177:9198   */\n      and\n        /* \"#utility.yul\":9168:9198   */\n      swap4\n      pop\n        /* \"#utility.yul\":9241:9245   */\n      dup1\n        /* \"#utility.yul\":9231:9239   */\n      dup7\n        /* \"#utility.yul\":9227:9246   */\n      and\n        /* \"#utility.yul\":9220:9225   */\n      dup5\n        /* \"#utility.yul\":9217:9247   */\n      or\n        /* \"#utility.yul\":9207:9247   */\n      swap3\n      pop\n        /* \"#utility.yul\":8936:9253   */\n      pop\n      pop\n        /* \"#utility.yul\":8860:9253   */\n      swap4\n      swap3\n      pop\n      pop\n      pop\n      jump\t// out\n        /* \"#utility.yul\":9259:9319   */\n    tag_87:\n        /* \"#utility.yul\":9287:9290   */\n      0x00\n        /* \"#utility.yul\":9308:9313   */\n      dup2\n        /* \"#utility.yul\":9301:9313   */\n      swap1\n      pop\n        /* \"#utility.yul\":9259:9319   */\n      swap2\n      swap1\n      pop\n      jump\t// out\n        /* \"#utility.yul\":9325:9467   */\n    tag_88:\n        /* \"#utility.yul\":9375:9384   */\n      0x00\n        /* \"#utility.yul\":9408:9461   */\n      tag_199\n        /* \"#utility.yul\":9426:9460   */\n      tag_200\n        /* \"#utility.yul\":9435:9459   */\n      tag_201\n        /* \"#utility.yul\":9453:9458   */\n      dup5\n        /* \"#utility.yul\":9435:9459   */\n      tag_59\n      jump\t// in\n    tag_201:\n        /* \"#utility.yul\":9426:9460   */\n      tag_87\n      jump\t// in\n    tag_200:\n        /* \"#utility.yul\":9408:9461   */\n      tag_59\n      jump\t// in\n    tag_199:\n        /* \"#utility.yul\":9395:9461   */\n      swap1\n      pop\n        /* \"#utility.yul\":9325:9467   */\n      swap2\n      swap1\n      pop\n      jump\t// out\n        /* \"#utility.yul\":9473:9548   */\n    tag_89:\n        /* \"#utility.yul\":9516:9519   */\n      0x00\n        /* \"#utility.yul\":9537:9542   */\n      dup2\n        /* \"#utility.yul\":9530:9542   */\n      swap1\n      pop\n        /* \"#utility.yul\":9473:9548   */\n      swap2\n      swap1\n      pop\n      jump\t// out\n        /* \"#utility.yul\":9554:9823   */\n    tag_90:\n        /* \"#utility.yul\":9664:9703   */\n      tag_204\n        /* \"#utility.yul\":9695:9702   */\n      dup4\n        /* \"#utility.yul\":9664:9703   */\n      tag_88\n      jump\t// in\n    tag_204:\n        /* \"#utility.yul\":9725:9816   */\n      tag_205\n        /* \"#utility.yul\":9774:9815   */\n      tag_206\n        /* \"#utility.yul\":9798:9814   */\n      dup3\n        /* \"#utility.yul\":9774:9815   */\n      tag_89\n      jump\t// in\n    tag_206:\n        /* \"#utility.yul\":9766:9772   */\n      dup5\n        /* \"#utility.yul\":9759:9763   */\n      dup5\n        /* \"#utility.yul\":9753:9764   */\n      sload\n        /* \"#utility.yul\":9725:9816   */\n      tag_86\n      jump\t// in\n    tag_205:\n        /* \"#utility.yul\":9719:9723   */\n      dup3\n        /* \"#utility.yul\":9712:9817   */\n      sstore\n        /* \"#utility.yul\":9630:9823   */\n      pop\n        /* \"#utility.yul\":9554:9823   */\n      pop\n      pop\n      pop\n      jump\t// out\n        /* \"#utility.yul\":9829:9902   */\n    tag_91:\n        /* \"#utility.yul\":9874:9877   */\n      0x00\n        /* \"#utility.yul\":9829:9902   */\n      swap1\n      jump\t// out\n        /* \"#utility.yul\":9908:10097   */\n    tag_92:\n        /* \"#utility.yul\":9985:10017   */\n      tag_209\n      tag_91\n      jump\t// in\n    tag_209:\n        /* \"#utility.yul\":10026:10091   */\n      tag_210\n        /* \"#utility.yul\":10084:10090   */\n      dup2\n        /* \"#utility.yul\":10076:10082   */\n      dup5\n        /* \"#utility.yul\":10070:10074   */\n      dup5\n        /* \"#utility.yul\":10026:10091   */\n      tag_90\n      jump\t// in\n    tag_210:\n        /* \"#utility.yul\":9961:10097   */\n      pop\n        /* \"#utility.yul\":9908:10097   */\n      pop\n      pop\n      jump\t// out\n        /* \"#utility.yul\":10103:10289   */\n    tag_93:\n        /* \"#utility.yul\":10163:10283   */\n    tag_212:\n        /* \"#utility.yul\":10180:10183   */\n      dup2\n        /* \"#utility.yul\":10173:10178   */\n      dup2\n        /* \"#utility.yul\":10170:10184   */\n      lt\n        /* \"#utility.yul\":10163:10283   */\n      iszero\n      tag_214\n      jumpi\n        /* \"#utility.yul\":10234:10273   */\n      tag_215\n        /* \"#utility.yul\":10271:10272   */\n      0x00\n        /* \"#utility.yul\":10264:10269   */\n      dup3\n        /* \"#utility.yul\":10234:10273   */\n      tag_92\n      jump\t// in\n    tag_215:\n        /* \"#utility.yul\":10207:10208   */\n      0x01\n        /* \"#utility.yul\":10200:10205   */\n      dup2\n        /* \"#utility.yul\":10196:10209   */\n      add\n        /* \"#utility.yul\":10187:10209   */\n      swap1\n      pop\n        /* \"#utility.yul\":10163:10283   */\n      jump(tag_212)\n    tag_214:\n        /* \"#utility.yul\":10103:10289   */\n      pop\n      pop\n      jump\t// out\n        /* \"#utility.yul\":10295:10838   */\n    tag_94:\n        /* \"#utility.yul\":10396:10398   */\n      0x1f\n        /* \"#utility.yul\":10391:10394   */\n      dup3\n        /* \"#utility.yul\":10388:10399   */\n      gt\n        /* \"#utility.yul\":10385:10831   */\n      iszero\n      tag_217\n      jumpi\n        /* \"#utility.yul\":10430:10468   */\n      tag_218\n        /* \"#utility.yul\":10462:10467   */\n      dup2\n        /* \"#utility.yul\":10430:10468   */\n      tag_83\n      jump\t// in\n    tag_218:\n        /* \"#utility.yul\":10514:10543   */\n      tag_219\n        /* \"#utility.yul\":10532:10542   */\n      dup5\n        /* \"#utility.yul\":10514:10543   */\n      tag_84\n      jump\t// in\n    tag_219:\n        /* \"#utility.yul\":10504:10512   */\n      dup2\n        /* \"#utility.yul\":10500:10544   */\n      add\n        /* \"#utility.yul\":10697:10699   */\n      0x20\n        /* \"#utility.yul\":10685:10695   */\n      dup6\n        /* \"#utility.yul\":10682:10700   */\n      lt\n        /* \"#utility.yul\":10679:10728   */\n      iszero\n      tag_220\n      jumpi\n        /* \"#utility.yul\":10718:10726   */\n      dup2\n        /* \"#utility.yul\":10703:10726   */\n      swap1\n      pop\n        /* \"#utility.yul\":10679:10728   */\n    tag_220:\n        /* \"#utility.yul\":10741:10821   */\n      tag_221\n        /* \"#utility.yul\":10797:10819   */\n      tag_222\n        /* \"#utility.yul\":10815:10818   */\n      dup6\n        /* \"#utility.yul\":10797:10819   */\n      tag_84\n      jump\t// in\n    tag_222:\n        /* \"#utility.yul\":10787:10795   */\n      dup4\n        /* \"#utility.yul\":10783:10820   */\n      add\n        /* \"#utility.yul\":10770:10781   */\n      dup3\n        /* \"#utility.yul\":10741:10821   */\n      tag_93\n      jump\t// in\n    tag_221:\n        /* \"#utility.yul\":10400:10831   */\n      pop\n      pop\n        /* \"#utility.yul\":10385:10831   */\n    tag_217:\n        /* \"#utility.yul\":10295:10838   */\n      pop\n      pop\n      pop\n      jump\t// out\n        /* \"#utility.yul\":10844:10961   */\n    tag_95:\n        /* \"#utility.yul\":10898:10906   */\n      0x00\n        /* \"#utility.yul\":10948:10953   */\n      dup3\n        /* \"#utility.yul\":10942:10946   */\n      dup3\n        /* \"#utility.yul\":10938:10954   */\n      shr\n        /* \"#utility.yul\":10917:10954   */\n      swap1\n      pop\n        /* \"#utility.yul\":10844:10961   */\n      swap3\n      swap2\n      pop\n      pop\n      jump\t// out\n        /* \"#utility.yul\":10967:11136   */\n    tag_96:\n        /* \"#utility.yul\":11011:11017   */\n      0x00\n        /* \"#utility.yul\":11044:11095   */\n      tag_225\n        /* \"#utility.yul\":11092:11093   */\n      0x00\n        /* \"#utility.yul\":11088:11094   */\n      not\n        /* \"#utility.yul\":11080:11085   */\n      dup5\n        /* \"#utility.yul\":11077:11078   */\n      0x08\n        /* \"#utility.yul\":11073:11086   */\n      mul\n        /* \"#utility.yul\":11044:11095   */\n      tag_95\n      jump\t// in\n    tag_225:\n        /* \"#utility.yul\":11040:11096   */\n      not\n        /* \"#utility.yul\":11125:11129   */\n      dup1\n        /* \"#utility.yul\":11119:11123   */\n      dup4\n        /* \"#utility.yul\":11115:11130   */\n      and\n        /* \"#utility.yul\":11105:11130   */\n      swap2\n      pop\n        /* \"#utility.yul\":11018:11136   */\n      pop\n        /* \"#utility.yul\":10967:11136   */\n      swap3\n      swap2\n      pop\n      pop\n      jump\t// out\n        /* \"#utility.yul\":11141:11436   */\n    tag_97:\n        /* \"#utility.yul\":11217:11221   */\n      0x00\n        /* \"#utility.yul\":11363:11392   */\n      tag_227\n        /* \"#utility.yul\":11388:11391   */\n      dup4\n        /* \"#utility.yul\":11382:11386   */\n      dup4\n        /* \"#utility.yul\":11363:11392   */\n      tag_96\n      jump\t// in\n    tag_227:\n        /* \"#utility.yul\":11355:11392   */\n      swap2\n      pop\n        /* \"#utility.yul\":11425:11428   */\n      dup3\n        /* \"#utility.yul\":11422:11423   */\n      0x02\n        /* \"#utility.yul\":11418:11429   */\n      mul\n        /* \"#utility.yul\":11412:11416   */\n      dup3\n        /* \"#utility.yul\":11409:11430   */\n      or\n        /* \"#utility.yul\":11401:11430   */\n      swap1\n      pop\n        /* \"#utility.yul\":11141:11436   */\n      swap3\n      swap2\n      pop\n      pop\n      jump\t// out\n        /* \"#utility.yul\":11441:12836   */\n    tag_41:\n        /* \"#utility.yul\":11558:11595   */\n      tag_229\n        /* \"#utility.yul\":11591:11594   */\n      dup3\n        /* \"#utility.yul\":11558:11595   */\n      tag_62\n      jump\t// in\n    tag_229:\n        /* \"#utility.yul\":11660:11678   */\n      0xffffffffffffffff\n        /* \"#utility.yul\":11652:11658   */\n      dup2\n        /* \"#utility.yul\":11649:11679   */\n      gt\n        /* \"#utility.yul\":11646:11702   */\n      iszero\n      tag_230\n      jumpi\n        /* \"#utility.yul\":11682:11700   */\n      tag_231\n      tag_82\n      jump\t// in\n    tag_231:\n        /* \"#utility.yul\":11646:11702   */\n    tag_230:\n        /* \"#utility.yul\":11726:11764   */\n      tag_232\n        /* \"#utility.yul\":11758:11762   */\n      dup3\n        /* \"#utility.yul\":11752:11763   */\n      sload\n        /* \"#utility.yul\":11726:11764   */\n      tag_23\n      jump\t// in\n    tag_232:\n        /* \"#utility.yul\":11811:11878   */\n      tag_233\n        /* \"#utility.yul\":11871:11877   */\n      dup3\n        /* \"#utility.yul\":11863:11869   */\n      dup3\n        /* \"#utility.yul\":11857:11861   */\n      dup6\n        /* \"#utility.yul\":11811:11878   */\n      tag_94\n      jump\t// in\n    tag_233:\n        /* \"#utility.yul\":11905:11906   */\n      0x00\n        /* \"#utility.yul\":11929:11933   */\n      0x20\n        /* \"#utility.yul\":11916:11933   */\n      swap1\n      pop\n        /* \"#utility.yul\":11961:11963   */\n      0x1f\n        /* \"#utility.yul\":11953:11959   */\n      dup4\n        /* \"#utility.yul\":11950:11964   */\n      gt\n        /* \"#utility.yul\":11978:11979   */\n      0x01\n        /* \"#utility.yul\":11973:12591   */\n      dup2\n      eq\n      tag_235\n      jumpi\n        /* \"#utility.yul\":12635:12636   */\n      0x00\n        /* \"#utility.yul\":12652:12658   */\n      dup5\n        /* \"#utility.yul\":12649:12726   */\n      iszero\n      tag_236\n      jumpi\n        /* \"#utility.yul\":12701:12710   */\n      dup3\n        /* \"#utility.yul\":12696:12699   */\n      dup8\n        /* \"#utility.yul\":12692:12711   */\n      add\n        /* \"#utility.yul\":12686:12712   */\n      mload\n        /* \"#utility.yul\":12677:12712   */\n      swap1\n      pop\n        /* \"#utility.yul\":12649:12726   */\n    tag_236:\n        /* \"#utility.yul\":12752:12819   */\n      tag_237\n        /* \"#utility.yul\":12812:12818   */\n      dup6\n        /* \"#utility.yul\":12805:12810   */\n      dup3\n        /* \"#utility.yul\":12752:12819   */\n      tag_97\n      jump\t// in\n    tag_237:\n        /* \"#utility.yul\":12746:12750   */\n      dup7\n        /* \"#utility.yul\":12739:12820   */\n      sstore\n        /* \"#utility.yul\":12608:12830   */\n      pop\n        /* \"#utility.yul\":11943:12830   */\n      jump(tag_234)\n        /* \"#utility.yul\":11973:12591   */\n    tag_235:\n        /* \"#utility.yul\":12025:12029   */\n      0x1f\n        /* \"#utility.yul\":12021:12030   */\n      not\n        /* \"#utility.yul\":12013:12019   */\n      dup5\n        /* \"#utility.yul\":12009:12031   */\n      and\n        /* \"#utility.yul\":12059:12096   */\n      tag_238\n        /* \"#utility.yul\":12091:12095   */\n      dup7\n        /* \"#utility.yul\":12059:12096   */\n      tag_83\n      jump\t// in\n    tag_238:\n        /* \"#utility.yul\":12118:12119   */\n      0x00\n        /* \"#utility.yul\":12132:12340   */\n    tag_239:\n        /* \"#utility.yul\":12146:12153   */\n      dup3\n        /* \"#utility.yul\":12143:12144   */\n      dup2\n        /* \"#utility.yul\":12140:12154   */\n      lt\n        /* \"#utility.yul\":12132:12340   */\n      iszero\n      tag_241\n      jumpi\n        /* \"#utility.yul\":12225:12234   */\n      dup5\n        /* \"#utility.yul\":12220:12223   */\n      dup10\n        /* \"#utility.yul\":12216:12235   */\n      add\n        /* \"#utility.yul\":12210:12236   */\n      mload\n        /* \"#utility.yul\":12202:12208   */\n      dup3\n        /* \"#utility.yul\":12195:12237   */\n      sstore\n        /* \"#utility.yul\":12276:12277   */\n      0x01\n        /* \"#utility.yul\":12268:12274   */\n      dup3\n        /* \"#utility.yul\":12264:12278   */\n      add\n        /* \"#utility.yul\":12254:12278   */\n      swap2\n      pop\n        /* \"#utility.yul\":12323:12325   */\n      0x20\n        /* \"#utility.yul\":12312:12321   */\n      dup6\n        /* \"#utility.yul\":12308:12326   */\n      add\n        /* \"#utility.yul\":12295:12326   */\n      swap5\n      pop\n        /* \"#utility.yul\":12169:12173   */\n      0x20\n        /* \"#utility.yul\":12166:12167   */\n      dup2\n        /* \"#utility.yul\":12162:12174   */\n      add\n        /* \"#utility.yul\":12157:12174   */\n      swap1\n      pop\n        /* \"#utility.yul\":12132:12340   */\n      jump(tag_239)\n    tag_241:\n        /* \"#utility.yul\":12368:12374   */\n      dup7\n        /* \"#utility.yul\":12359:12366   */\n      dup4\n        /* \"#utility.yul\":12356:12375   */\n      lt\n        /* \"#utility.yul\":12353:12532   */\n      iszero\n      tag_242\n      jumpi\n        /* \"#utility.yul\":12426:12435   */\n      dup5\n        /* \"#utility.yul\":12421:12424   */\n      dup10\n        /* \"#utility.yul\":12417:12436   */\n      add\n        /* \"#utility.yul\":12411:12437   */\n      mload\n        /* \"#utility.yul\":12469:12517   */\n      tag_243\n        /* \"#utility.yul\":12511:12515   */\n      0x1f\n        /* \"#utility.yul\":12503:12509   */\n      dup10\n        /* \"#utility.yul\":12499:12516   */\n      and\n        /* \"#utility.yul\":12488:12497   */\n      dup3\n        /* \"#utility.yul\":12469:12517   */\n      tag_96\n      jump\t// in\n    tag_243:\n        /* \"#utility.yul\":12461:12467   */\n      dup4\n        /* \"#utility.yul\":12454:12518   */\n      sstore\n        /* \"#utility.yul\":12376:12532   */\n      pop\n        /* \"#utility.yul\":12353:12532   */\n    tag_242:\n        /* \"#utility.yul\":12578:12579   */\n      0x01\n        /* \"#utility.yul\":12574:12575   */\n      0x02\n        /* \"#utility.yul\":12566:12572   */\n      dup9\n        /* \"#utility.yul\":12562:12576   */\n      mul\n        /* \"#utility.yul\":12558:12580   */\n      add\n        /* \"#utility.yul\":12552:12556   */\n      dup9\n        /* \"#utility.yul\":12545:12581   */\n      sstore\n        /* \"#utility.yul\":11980:12591   */\n      pop\n      pop\n      pop\n        /* \"#utility.yul\":11943:12830   */\n    tag_234:\n      pop\n        /* \"#utility.yul\":11533:12836   */\n      pop\n      pop\n      pop\n        /* \"#utility.yul\":11441:12836   */\n      pop\n      pop\n      jump\t// out\n        /* \"#utility.yul\":12866:13677   */\n    tag_98:\n        /* \"#utility.yul\":12941:12944   */\n      0x00\n        /* \"#utility.yul\":12978:12983   */\n      dup2\n        /* \"#utility.yul\":12972:12984   */\n      sload\n        /* \"#utility.yul\":13007:13043   */\n      tag_245\n        /* \"#utility.yul\":13033:13042   */\n      dup2\n        /* \"#utility.yul\":13007:13043   */\n      tag_23\n      jump\t// in\n    tag_245:\n        /* \"#utility.yul\":13059:13120   */\n      tag_246\n        /* \"#utility.yul\":13113:13119   */\n      dup2\n        /* \"#utility.yul\":13108:13111   */\n      dup7\n        /* \"#utility.yul\":13059:13120   */\n      tag_63\n      jump\t// in\n    tag_246:\n        /* \"#utility.yul\":13052:13120   */\n      swap5\n      pop\n        /* \"#utility.yul\":13151:13152   */\n      0x01\n        /* \"#utility.yul\":13140:13149   */\n      dup3\n        /* \"#utility.yul\":13136:13153   */\n      and\n        /* \"#utility.yul\":13167:13168   */\n      0x00\n        /* \"#utility.yul\":13162:13326   */\n      dup2\n      eq\n      tag_248\n      jumpi\n        /* \"#utility.yul\":13340:13341   */\n      0x01\n        /* \"#utility.yul\":13335:13671   */\n      dup2\n      eq\n      tag_249\n      jumpi\n        /* \"#utility.yul\":13129:13671   */\n      jump(tag_247)\n        /* \"#utility.yul\":13162:13326   */\n    tag_248:\n        /* \"#utility.yul\":13246:13250   */\n      0xff\n        /* \"#utility.yul\":13242:13251   */\n      not\n        /* \"#utility.yul\":13231:13240   */\n      dup4\n        /* \"#utility.yul\":13227:13252   */\n      and\n        /* \"#utility.yul\":13222:13225   */\n      dup7\n        /* \"#utility.yul\":13215:13253   */\n      mstore\n        /* \"#utility.yul\":13306:13312   */\n      dup2\n        /* \"#utility.yul\":13299:13313   */\n      iszero\n        /* \"#utility.yul\":13292:13314   */\n      iszero\n        /* \"#utility.yul\":13286:13290   */\n      0x20\n        /* \"#utility.yul\":13282:13315   */\n      mul\n        /* \"#utility.yul\":13277:13280   */\n      dup7\n        /* \"#utility.yul\":13273:13316   */\n      add\n        /* \"#utility.yul\":13266:13316   */\n      swap4\n      pop\n        /* \"#utility.yul\":13162:13326   */\n      jump(tag_247)\n        /* \"#utility.yul\":13335:13671   */\n    tag_249:\n        /* \"#utility.yul\":13402:13440   */\n      tag_250\n        /* \"#utility.yul\":13434:13439   */\n      dup6\n        /* \"#utility.yul\":13402:13440   */\n      tag_83\n      jump\t// in\n    tag_250:\n        /* \"#utility.yul\":13462:13463   */\n      0x00\n        /* \"#utility.yul\":13476:13630   */\n    tag_251:\n        /* \"#utility.yul\":13490:13496   */\n      dup4\n        /* \"#utility.yul\":13487:13488   */\n      dup2\n        /* \"#utility.yul\":13484:13497   */\n      lt\n        /* \"#utility.yul\":13476:13630   */\n      iszero\n      tag_253\n      jumpi\n        /* \"#utility.yul\":13564:13571   */\n      dup2\n        /* \"#utility.yul\":13558:13572   */\n      sload\n        /* \"#utility.yul\":13554:13555   */\n      dup2\n        /* \"#utility.yul\":13549:13552   */\n      dup10\n        /* \"#utility.yul\":13545:13556   */\n      add\n        /* \"#utility.yul\":13538:13573   */\n      mstore\n        /* \"#utility.yul\":13614:13615   */\n      0x01\n        /* \"#utility.yul\":13605:13612   */\n      dup3\n        /* \"#utility.yul\":13601:13616   */\n      add\n        /* \"#utility.yul\":13590:13616   */\n      swap2\n      pop\n        /* \"#utility.yul\":13512:13516   */\n      0x20\n        /* \"#utility.yul\":13509:13510   */\n      dup2\n        /* \"#utility.yul\":13505:13517   */\n      add\n        /* \"#utility.yul\":13500:13517   */\n      swap1\n      pop\n        /* \"#utility.yul\":13476:13630   */\n      jump(tag_251)\n    tag_253:\n        /* \"#utility.yul\":13659:13660   */\n      dup1\n        /* \"#utility.yul\":13654:13657   */\n      dup9\n        /* \"#utility.yul\":13650:13661   */\n      add\n        /* \"#utility.yul\":13643:13661   */\n      swap6\n      pop\n        /* \"#utility.yul\":13342:13671   */\n      pop\n      pop\n        /* \"#utility.yul\":13129:13671   */\n    tag_247:\n      pop\n        /* \"#utility.yul\":12945:13677   */\n      pop\n      pop\n        /* \"#utility.yul\":12866:13677   */\n      swap3\n      swap2\n      pop\n      pop\n      jump\t// out\n        /* \"#utility.yul\":13683:13785   */\n    tag_99:\n        /* \"#utility.yul\":13725:13733   */\n      0x00\n        /* \"#utility.yul\":13772:13777   */\n      dup2\n        /* \"#utility.yul\":13769:13770   */\n      0x00\n        /* \"#utility.yul\":13765:13778   */\n      shr\n        /* \"#utility.yul\":13744:13778   */\n      swap1\n      pop\n        /* \"#utility.yul\":13683:13785   */\n      swap2\n      swap1\n      pop\n      jump\t// out\n        /* \"#utility.yul\":13791:13908   */\n    tag_100:\n        /* \"#utility.yul\":13857:13864   */\n      0x00\n        /* \"#utility.yul\":13897:13901   */\n      0xff\n        /* \"#utility.yul\":13890:13895   */\n      dup3\n        /* \"#utility.yul\":13886:13902   */\n      and\n        /* \"#utility.yul\":13875:13902   */\n      swap1\n      pop\n        /* \"#utility.yul\":13791:13908   */\n      swap2\n      swap1\n      pop\n      jump\t// out\n        /* \"#utility.yul\":13914:14112   */\n    tag_101:\n        /* \"#utility.yul\":13999:14004   */\n      0x00\n        /* \"#utility.yul\":14024:14106   */\n      tag_257\n        /* \"#utility.yul\":14071:14105   */\n      tag_258\n        /* \"#utility.yul\":14094:14104   */\n      dup4\n        /* \"#utility.yul\":14071:14105   */\n      tag_99\n      jump\t// in\n    tag_258:\n        /* \"#utility.yul\":14024:14106   */\n      tag_100\n      jump\t// in\n    tag_257:\n        /* \"#utility.yul\":14015:14106   */\n      swap1\n      pop\n        /* \"#utility.yul\":13914:14112   */\n      swap2\n      swap1\n      pop\n      jump\t// out\n        /* \"#utility.yul\":14118:14208   */\n    tag_102:\n        /* \"#utility.yul\":14168:14175   */\n      0x00\n        /* \"#utility.yul\":14197:14202   */\n      dup2\n        /* \"#utility.yul\":14186:14202   */\n      swap1\n      pop\n        /* \"#utility.yul\":14118:14208   */\n      swap2\n      swap1\n      pop\n      jump\t// out\n        /* \"#utility.yul\":14214:14380   */\n    tag_103:\n        /* \"#utility.yul\":14283:14288   */\n      0x00\n        /* \"#utility.yul\":14308:14374   */\n      tag_261\n        /* \"#utility.yul\":14339:14373   */\n      tag_262\n        /* \"#utility.yul\":14362:14372   */\n      dup4\n        /* \"#utility.yul\":14339:14373   */\n      tag_99\n      jump\t// in\n    tag_262:\n        /* \"#utility.yul\":14308:14374   */\n      tag_102\n      jump\t// in\n    tag_261:\n        /* \"#utility.yul\":14299:14374   */\n      swap1\n      pop\n        /* \"#utility.yul\":14214:14380   */\n      swap2\n      swap1\n      pop\n      jump\t// out\n        /* \"#utility.yul\":14454:15444   */\n    tag_104:\n        /* \"#utility.yul\":14568:14571   */\n      0x00\n        /* \"#utility.yul\":14604:14608   */\n      0x60\n        /* \"#utility.yul\":14599:14602   */\n      dup4\n        /* \"#utility.yul\":14595:14609   */\n      add\n        /* \"#utility.yul\":14635:14636   */\n      0x00\n        /* \"#utility.yul\":14716:14720   */\n      dup1\n        /* \"#utility.yul\":14709:14714   */\n      dup5\n        /* \"#utility.yul\":14705:14721   */\n      add\n        /* \"#utility.yul\":14768:14771   */\n      dup6\n        /* \"#utility.yul\":14762:14766   */\n      dup4\n        /* \"#utility.yul\":14758:14772   */\n      sub\n        /* \"#utility.yul\":14751:14755   */\n      0x00\n        /* \"#utility.yul\":14746:14749   */\n      dup8\n        /* \"#utility.yul\":14742:14756   */\n      add\n        /* \"#utility.yul\":14735:14773   */\n      mstore\n        /* \"#utility.yul\":14794:14864   */\n      tag_264\n        /* \"#utility.yul\":14859:14863   */\n      dup4\n        /* \"#utility.yul\":14845:14857   */\n      dup3\n        /* \"#utility.yul\":14794:14864   */\n      tag_98\n      jump\t// in\n    tag_264:\n        /* \"#utility.yul\":14786:14864   */\n      swap3\n      pop\n        /* \"#utility.yul\":14646:14875   */\n      pop\n        /* \"#utility.yul\":14955:14959   */\n      0x01\n        /* \"#utility.yul\":14948:14953   */\n      dup5\n        /* \"#utility.yul\":14944:14960   */\n      add\n        /* \"#utility.yul\":14938:14961   */\n      sload\n        /* \"#utility.yul\":14925:14961   */\n      swap1\n      pop\n        /* \"#utility.yul\":14994:15065   */\n      tag_265\n        /* \"#utility.yul\":15055:15064   */\n      dup2\n        /* \"#utility.yul\":14994:15065   */\n      tag_101\n      jump\t// in\n    tag_265:\n        /* \"#utility.yul\":15078:15155   */\n      tag_266\n        /* \"#utility.yul\":15149:15153   */\n      0x20\n        /* \"#utility.yul\":15144:15147   */\n      dup8\n        /* \"#utility.yul\":15140:15154   */\n      add\n        /* \"#utility.yul\":15126:15138   */\n      dup3\n        /* \"#utility.yul\":15078:15155   */\n      tag_70\n      jump\t// in\n    tag_266:\n        /* \"#utility.yul\":14885:15165   */\n      pop\n        /* \"#utility.yul\":15237:15241   */\n      0x02\n        /* \"#utility.yul\":15230:15235   */\n      dup5\n        /* \"#utility.yul\":15226:15242   */\n      add\n        /* \"#utility.yul\":15220:15243   */\n      sload\n        /* \"#utility.yul\":15207:15243   */\n      swap1\n      pop\n        /* \"#utility.yul\":15276:15331   */\n      tag_267\n        /* \"#utility.yul\":15321:15330   */\n      dup2\n        /* \"#utility.yul\":15276:15331   */\n      tag_103\n      jump\t// in\n    tag_267:\n        /* \"#utility.yul\":15344:15407   */\n      tag_268\n        /* \"#utility.yul\":15401:15405   */\n      0x40\n        /* \"#utility.yul\":15396:15399   */\n      dup8\n        /* \"#utility.yul\":15392:15406   */\n      add\n        /* \"#utility.yul\":15378:15390   */\n      dup3\n        /* \"#utility.yul\":15344:15407   */\n      tag_71\n      jump\t// in\n    tag_268:\n        /* \"#utility.yul\":15175:15417   */\n      pop\n        /* \"#utility.yul\":15434:15438   */\n      dup2\n        /* \"#utility.yul\":15427:15438   */\n      swap3\n      pop\n        /* \"#utility.yul\":14573:15444   */\n      pop\n      pop\n        /* \"#utility.yul\":14454:15444   */\n      swap3\n      swap2\n      pop\n      pop\n      jump\t// out\n        /* \"#utility.yul\":15450:15813   */\n    tag_49:\n        /* \"#utility.yul\":15588:15592   */\n      0x00\n        /* \"#utility.yul\":15626:15628   */\n      0x20\n        /* \"#utility.yul\":15615:15624   */\n      dup3\n        /* \"#utility.yul\":15611:15629   */\n      add\n        /* \"#utility.yul\":15603:15629   */\n      swap1\n      pop\n        /* \"#utility.yul\":15675:15684   */\n      dup2\n        /* \"#utility.yul\":15669:15673   */\n      dup2\n        /* \"#utility.yul\":15665:15685   */\n      sub\n        /* \"#utility.yul\":15661:15662   */\n      0x00\n        /* \"#utility.yul\":15650:15659   */\n      dup4\n        /* \"#utility.yul\":15646:15663   */\n      add\n        /* \"#utility.yul\":15639:15686   */\n      mstore\n        /* \"#utility.yul\":15703:15806   */\n      tag_270\n        /* \"#utility.yul\":15801:15805   */\n      dup2\n        /* \"#utility.yul\":15792:15798   */\n      dup5\n        /* \"#utility.yul\":15703:15806   */\n      tag_104\n      jump\t// in\n    tag_270:\n        /* \"#utility.yul\":15695:15806   */\n      swap1\n      pop\n        /* \"#utility.yul\":15450:15813   */\n      swap3\n      swap2\n      pop\n      pop\n      jump\t// out\n\n    auxdata: 0xa264697066735822122078a7d8f53e210620c2d2128b21952d1f6b44a0975b1f58086aae55067ce7159b64736f6c63430008120033\n}\n","bytecode":{"linkReferences":{},"object":"608060405234801561001057600080fd5b50610d65806100206000396000f3fe608060405234801561001057600080fd5b50600436106100415760003560e01c80633fb20178146100465780636b43dabd14610076578063985ecf6d14610092575b600080fd5b610060600480360381019061005b9190610596565b6100ae565b60405161006d919061073c565b60405180910390f35b610090600480360381019061008b91906107c3565b6101ef565b005b6100ac60048036038101906100a79190610596565b6103a9565b005b6100b66104c5565b6000808473ffffffffffffffffffffffffffffffffffffffff1673ffffffffffffffffffffffffffffffffffffffff168152602001908152602001600020600083815260200190815260200160002060405180606001604052908160008201805461012090610852565b80601f016020809104026020016040519081016040528092919081815260200182805461014c90610852565b80156101995780601f1061016e57610100808354040283529160200191610199565b820191906000526020600020905b81548152906001019060200180831161017c57829003601f168201915b505050505081526020016001820160009054906101000a900460ff1660018111156101c7576101c6610666565b5b60018111156101d9576101d8610666565b5b8152602001600282015481525050905092915050565b82826000828290500361023957336040517f8e16983600000000000000000000000000000000000000000000000000000000815260040161023091906108ef565b60405180910390fd5b6000604051806060016040528087878080601f016020809104026020016040519081016040528093929190818152602001838380828437600081840152601f19601f820116905080830192505050505050508152602001600060018111156102a4576102a3610666565b5b8152602001858152509050806000803373ffffffffffffffffffffffffffffffffffffffff1673ffffffffffffffffffffffffffffffffffffffff168152602001908152602001600020600086815260200190815260200160002060008201518160000190816103149190610af8565b5060208201518160010160006101000a81548160ff021916908360018111156103405761033f610666565b5b021790555060408201518160020155905050833373ffffffffffffffffffffffffffffffffffffffff167f81cd882d95810081c71089a23eb32af1727f51692315846a8634bd9a187c431c83604051610399919061073c565b60405180910390a3505050505050565b60016000808473ffffffffffffffffffffffffffffffffffffffff1673ffffffffffffffffffffffffffffffffffffffff168152602001908152602001600020600083815260200190815260200160002060010160006101000a81548160ff0219169083600181111561041f5761041e610666565b5b0217905550808273ffffffffffffffffffffffffffffffffffffffff167f81cd882d95810081c71089a23eb32af1727f51692315846a8634bd9a187c431c6000808673ffffffffffffffffffffffffffffffffffffffff1673ffffffffffffffffffffffffffffffffffffffff16815260200190815260200160002060008581526020019081526020016000206040516104b99190610d0d565b60405180910390a35050565b604051806060016040528060608152602001600060018111156104eb576104ea610666565b5b8152602001600081525090565b600080fd5b600080fd5b600073ffffffffffffffffffffffffffffffffffffffff82169050919050565b600061052d82610502565b9050919050565b61053d81610522565b811461054857600080fd5b50565b60008135905061055a81610534565b92915050565b6000819050919050565b61057381610560565b811461057e57600080fd5b50565b6000813590506105908161056a565b92915050565b600080604083850312156105ad576105ac6104f8565b5b60006105bb8582860161054b565b92505060206105cc85828601610581565b9150509250929050565b600081519050919050565b600082825260208201905092915050565b60005b838110156106105780820151818401526020810190506105f5565b60008484015250505050565b6000601f19601f8301169050919050565b6000610638826105d6565b61064281856105e1565b93506106528185602086016105f2565b61065b8161061c565b840191505092915050565b7f4e487b7100000000000000000000000000000000000000000000000000000000600052602160045260246000fd5b600281106106a6576106a5610666565b5b50565b60008190506106b782610695565b919050565b60006106c7826106a9565b9050919050565b6106d7816106bc565b82525050565b6106e681610560565b82525050565b60006060830160008301518482036000860152610709828261062d565b915050602083015161071e60208601826106ce565b50604083015161073160408601826106dd565b508091505092915050565b6000602082019050818103600083015261075681846106ec565b905092915050565b600080fd5b600080fd5b600080fd5b60008083601f8401126107835761078261075e565b5b8235905067ffffffffffffffff8111156107a05761079f610763565b5b6020830191508360018202830111156107bc576107bb610768565b5b9250929050565b6000806000604084860312156107dc576107db6104f8565b5b600084013567ffffffffffffffff8111156107fa576107f96104fd565b5b6108068682870161076d565b9350935050602061081986828701610581565b9150509250925092565b7f4e487b7100000000000000000000000000000000000000000000000000000000600052602260045260246000fd5b6000600282049050600182168061086a57607f821691505b60208210810361087d5761087c610823565b5b50919050565b61088c81610522565b82525050565b600082825260208201905092915050565b7f496e76616c6964204c697374204d657373616765000000000000000000000000600082015250565b60006108d9601483610892565b91506108e4826108a3565b602082019050919050565b60006040820190506109046000830184610883565b8181036020830152610915816108cc565b905092915050565b7f4e487b7100000000000000000000000000000000000000000000000000000000600052604160045260246000fd5b60008190508160005260206000209050919050565b60006020601f8301049050919050565b600082821b905092915050565b6000600883026109ae7fffffffffffffffffffffffffffffffffffffffffffffffffffffffffffffffff82610971565b6109b88683610971565b95508019841693508086168417925050509392505050565b6000819050919050565b60006109f56109f06109eb84610560565b6109d0565b610560565b9050919050565b6000819050919050565b610a0f836109da565b610a23610a1b826109fc565b84845461097e565b825550505050565b600090565b610a38610a2b565b610a43818484610a06565b505050565b5b81811015610a6757610a5c600082610a30565b600181019050610a49565b5050565b601f821115610aac57610a7d8161094c565b610a8684610961565b81016020851015610a95578190505b610aa9610aa185610961565b830182610a48565b50505b505050565b600082821c905092915050565b6000610acf60001984600802610ab1565b1980831691505092915050565b6000610ae88383610abe565b9150826002028217905092915050565b610b01826105d6565b67ffffffffffffffff811115610b1a57610b1961091d565b5b610b248254610852565b610b2f828285610a6b565b600060209050601f831160018114610b625760008415610b50578287015190505b610b5a8582610adc565b865550610bc2565b601f198416610b708661094c565b60005b82811015610b9857848901518255600182019150602085019450602081019050610b73565b86831015610bb55784890151610bb1601f891682610abe565b8355505b6001600288020188555050505b505050505050565b60008154610bd781610852565b610be181866105e1565b94506001821660008114610bfc5760018114610c1257610c45565b60ff198316865281151560200286019350610c45565b610c1b8561094c565b60005b83811015610c3d57815481890152600182019150602081019050610c1e565b808801955050505b50505092915050565b60008160001c9050919050565b600060ff82169050919050565b6000610c7b610c7683610c4e565b610c5b565b9050919050565b6000819050919050565b6000610c9f610c9a83610c4e565b610c82565b9050919050565b60006060830160008084018583036000870152610cc38382610bca565b92505060018401549050610cd681610c68565b610ce360208701826106ce565b5060028401549050610cf481610c8c565b610d0160408701826106dd565b50819250505092915050565b60006020820190508181036000830152610d278184610ca6565b90509291505056fea264697066735822122078a7d8f53e210620c2d2128b21952d1f6b44a0975b1f58086aae55067ce7159b64736f6c63430008120033","opcodes":"PUSH1 0x80 PUSH1 0x40 MSTORE CALLVALUE DUP1 ISZERO PUSH2 0x10 JUMPI PUSH1 0x0 DUP1 REVERT JUMPDEST POP PUSH2 0xD65 DUP1 PUSH2 0x20 PUSH1 0x0 CODECOPY PUSH1 0x0 RETURN INVALID PUSH1 0x80 PUSH1 0x40 MSTORE CALLVALUE DUP1 ISZERO PUSH2 0x10 JUMPI PUSH1 0x0 DUP1 REVERT JUMPDEST POP PUSH1 0x4 CALLDATASIZE LT PUSH2 0x41 JUMPI PUSH1 0x0 CALLDATALOAD PUSH1 0xE0 SHR DUP1 PUSH4 0x3FB20178 EQ PUSH2 0x46 JUMPI DUP1 PUSH4 0x6B43DABD EQ PUSH2 0x76 JUMPI DUP1 PUSH4 0x985ECF6D EQ PUSH2 0x92 JUMPI JUMPDEST PUSH1 0x0 DUP1 REVERT JUMPDEST PUSH2 0x60 PUSH1 0x4 DUP1 CALLDATASIZE SUB DUP2 ADD SWAP1 PUSH2 0x5B SWAP2 SWAP1 PUSH2 0x596 JUMP JUMPDEST PUSH2 0xAE JUMP JUMPDEST PUSH1 0x40 MLOAD PUSH2 0x6D SWAP2 SWAP1 PUSH2 0x73C JUMP JUMPDEST PUSH1 0x40 MLOAD DUP1 SWAP2 SUB SWAP1 RETURN JUMPDEST PUSH2 0x90 PUSH1 0x4 DUP1 CALLDATASIZE SUB DUP2 ADD SWAP1 PUSH2 0x8B SWAP2 SWAP1 PUSH2 0x7C3 JUMP JUMPDEST PUSH2 0x1EF JUMP JUMPDEST STOP JUMPDEST PUSH2 0xAC PUSH1 0x4 DUP1 CALLDATASIZE SUB DUP2 ADD SWAP1 PUSH2 0xA7 SWAP2 SWAP1 PUSH2 0x596 JUMP JUMPDEST PUSH2 0x3A9 JUMP JUMPDEST STOP JUMPDEST PUSH2 0xB6 PUSH2 0x4C5 JUMP JUMPDEST PUSH1 0x0 DUP1 DUP5 PUSH20 0xFFFFFFFFFFFFFFFFFFFFFFFFFFFFFFFFFFFFFFFF AND PUSH20 0xFFFFFFFFFFFFFFFFFFFFFFFFFFFFFFFFFFFFFFFF AND DUP2 MSTORE PUSH1 0x20 ADD SWAP1 DUP2 MSTORE PUSH1 0x20 ADD PUSH1 0x0 KECCAK256 PUSH1 0x0 DUP4 DUP2 MSTORE PUSH1 0x20 ADD SWAP1 DUP2 MSTORE PUSH1 0x20 ADD PUSH1 0x0 KECCAK256 PUSH1 0x40 MLOAD DUP1 PUSH1 0x60 ADD PUSH1 0x40 MSTORE SWAP1 DUP2 PUSH1 0x0 DUP3 ADD DUP1 SLOAD PUSH2 0x120 SWAP1 PUSH2 0x852 JUMP JUMPDEST DUP1 PUSH1 0x1F ADD PUSH1 0x20 DUP1 SWAP2 DIV MUL PUSH1 0x20 ADD PUSH1 0x40 MLOAD SWAP1 DUP2 ADD PUSH1 0x40 MSTORE DUP1 SWAP3 SWAP2 SWAP1 DUP2 DUP2 MSTORE PUSH1 0x20 ADD DUP3 DUP1 SLOAD PUSH2 0x14C SWAP1 PUSH2 0x852 JUMP JUMPDEST DUP1 ISZERO PUSH2 0x199 JUMPI DUP1 PUSH1 0x1F LT PUSH2 0x16E JUMPI PUSH2 0x100 DUP1 DUP4 SLOAD DIV MUL DUP4 MSTORE SWAP2 PUSH1 0x20 ADD SWAP2 PUSH2 0x199 JUMP JUMPDEST DUP3 ADD SWAP2 SWAP1 PUSH1 0x0 MSTORE PUSH1 0x20 PUSH1 0x0 KECCAK256 SWAP1 JUMPDEST DUP2 SLOAD DUP2 MSTORE SWAP1 PUSH1 0x1 ADD SWAP1 PUSH1 0x20 ADD DUP1 DUP4 GT PUSH2 0x17C JUMPI DUP3 SWAP1 SUB PUSH1 0x1F AND DUP3 ADD SWAP2 JUMPDEST POP POP POP POP POP DUP2 MSTORE PUSH1 0x20 ADD PUSH1 0x1 DUP3 ADD PUSH1 0x0 SWAP1 SLOAD SWAP1 PUSH2 0x100 EXP SWAP1 DIV PUSH1 0xFF AND PUSH1 0x1 DUP2 GT ISZERO PUSH2 0x1C7 JUMPI PUSH2 0x1C6 PUSH2 0x666 JUMP JUMPDEST JUMPDEST PUSH1 0x1 DUP2 GT ISZERO PUSH2 0x1D9 JUMPI PUSH2 0x1D8 PUSH2 0x666 JUMP JUMPDEST JUMPDEST DUP2 MSTORE PUSH1 0x20 ADD PUSH1 0x2 DUP3 ADD SLOAD DUP2 MSTORE POP POP SWAP1 POP SWAP3 SWAP2 POP POP JUMP JUMPDEST DUP3 DUP3 PUSH1 0x0 DUP3 DUP3 SWAP1 POP SUB PUSH2 0x239 JUMPI CALLER PUSH1 0x40 MLOAD PUSH32 0x8E16983600000000000000000000000000000000000000000000000000000000 DUP2 MSTORE PUSH1 0x4 ADD PUSH2 0x230 SWAP2 SWAP1 PUSH2 0x8EF JUMP JUMPDEST PUSH1 0x40 MLOAD DUP1 SWAP2 SUB SWAP1 REVERT JUMPDEST PUSH1 0x0 PUSH1 0x40 MLOAD DUP1 PUSH1 0x60 ADD PUSH1 0x40 MSTORE DUP1 DUP8 DUP8 DUP1 DUP1 PUSH1 0x1F ADD PUSH1 0x20 DUP1 SWAP2 DIV MUL PUSH1 0x20 ADD PUSH1 0x40 MLOAD SWAP1 DUP2 ADD PUSH1 0x40 MSTORE DUP1 SWAP4 SWAP3 SWAP2 SWAP1 DUP2 DUP2 MSTORE PUSH1 0x20 ADD DUP4 DUP4 DUP1 DUP3 DUP5 CALLDATACOPY PUSH1 0x0 DUP2 DUP5 ADD MSTORE PUSH1 0x1F NOT PUSH1 0x1F DUP3 ADD AND SWAP1 POP DUP1 DUP4 ADD SWAP3 POP POP POP POP POP POP POP DUP2 MSTORE PUSH1 0x20 ADD PUSH1 0x0 PUSH1 0x1 DUP2 GT ISZERO PUSH2 0x2A4 JUMPI PUSH2 0x2A3 PUSH2 0x666 JUMP JUMPDEST JUMPDEST DUP2 MSTORE PUSH1 0x20 ADD DUP6 DUP2 MSTORE POP SWAP1 POP DUP1 PUSH1 0x0 DUP1 CALLER PUSH20 0xFFFFFFFFFFFFFFFFFFFFFFFFFFFFFFFFFFFFFFFF AND PUSH20 0xFFFFFFFFFFFFFFFFFFFFFFFFFFFFFFFFFFFFFFFF AND DUP2 MSTORE PUSH1 0x20 ADD SWAP1 DUP2 MSTORE PUSH1 0x20 ADD PUSH1 0x0 KECCAK256 PUSH1 0x0 DUP7 DUP2 MSTORE PUSH1 0x20 ADD SWAP1 DUP2 MSTORE PUSH1 0x20 ADD PUSH1 0x0 KECCAK256 PUSH1 0x0 DUP3 ADD MLOAD DUP2 PUSH1 0x0 ADD SWAP1 DUP2 PUSH2 0x314 SWAP2 SWAP1 PUSH2 0xAF8 JUMP JUMPDEST POP PUSH1 0x20 DUP3 ADD MLOAD DUP2 PUSH1 0x1 ADD PUSH1 0x0 PUSH2 0x100 EXP DUP2 SLOAD DUP2 PUSH1 0xFF MUL NOT AND SWAP1 DUP4 PUSH1 0x1 DUP2 GT ISZERO PUSH2 0x340 JUMPI PUSH2 0x33F PUSH2 0x666 JUMP JUMPDEST JUMPDEST MUL OR SWAP1 SSTORE POP PUSH1 0x40 DUP3 ADD MLOAD DUP2 PUSH1 0x2 ADD SSTORE SWAP1 POP POP DUP4 CALLER PUSH20 0xFFFFFFFFFFFFFFFFFFFFFFFFFFFFFFFFFFFFFFFF AND PUSH32 0x81CD882D95810081C71089A23EB32AF1727F51692315846A8634BD9A187C431C DUP4 PUSH1 0x40 MLOAD PUSH2 0x399 SWAP2 SWAP1 PUSH2 0x73C JUMP JUMPDEST PUSH1 0x40 MLOAD DUP1 SWAP2 SUB SWAP1 LOG3 POP POP POP POP POP POP JUMP JUMPDEST PUSH1 0x1 PUSH1 0x0 DUP1 DUP5 PUSH20 0xFFFFFFFFFFFFFFFFFFFFFFFFFFFFFFFFFFFFFFFF AND PUSH20 0xFFFFFFFFFFFFFFFFFFFFFFFFFFFFFFFFFFFFFFFF AND DUP2 MSTORE PUSH1 0x20 ADD SWAP1 DUP2 MSTORE PUSH1 0x20 ADD PUSH1 0x0 KECCAK256 PUSH1 0x0 DUP4 DUP2 MSTORE PUSH1 0x20 ADD SWAP1 DUP2 MSTORE PUSH1 0x20 ADD PUSH1 0x0 KECCAK256 PUSH1 0x1 ADD PUSH1 0x0 PUSH2 0x100 EXP DUP2 SLOAD DUP2 PUSH1 0xFF MUL NOT AND SWAP1 DUP4 PUSH1 0x1 DUP2 GT ISZERO PUSH2 0x41F JUMPI PUSH2 0x41E PUSH2 0x666 JUMP JUMPDEST JUMPDEST MUL OR SWAP1 SSTORE POP DUP1 DUP3 PUSH20 0xFFFFFFFFFFFFFFFFFFFFFFFFFFFFFFFFFFFFFFFF AND PUSH32 0x81CD882D95810081C71089A23EB32AF1727F51692315846A8634BD9A187C431C PUSH1 0x0 DUP1 DUP7 PUSH20 0xFFFFFFFFFFFFFFFFFFFFFFFFFFFFFFFFFFFFFFFF AND PUSH20 0xFFFFFFFFFFFFFFFFFFFFFFFFFFFFFFFFFFFFFFFF AND DUP2 MSTORE PUSH1 0x20 ADD SWAP1 DUP2 MSTORE PUSH1 0x20 ADD PUSH1 0x0 KECCAK256 PUSH1 0x0 DUP6 DUP2 MSTORE PUSH1 0x20 ADD SWAP1 DUP2 MSTORE PUSH1 0x20 ADD PUSH1 0x0 KECCAK256 PUSH1 0x40 MLOAD PUSH2 0x4B9 SWAP2 SWAP1 PUSH2 0xD0D JUMP JUMPDEST PUSH1 0x40 MLOAD DUP1 SWAP2 SUB SWAP1 LOG3 POP POP JUMP JUMPDEST PUSH1 0x40 MLOAD DUP1 PUSH1 0x60 ADD PUSH1 0x40 MSTORE DUP1 PUSH1 0x60 DUP2 MSTORE PUSH1 0x20 ADD PUSH1 0x0 PUSH1 0x1 DUP2 GT ISZERO PUSH2 0x4EB JUMPI PUSH2 0x4EA PUSH2 0x666 JUMP JUMPDEST JUMPDEST DUP2 MSTORE PUSH1 0x20 ADD PUSH1 0x0 DUP2 MSTORE POP SWAP1 JUMP JUMPDEST PUSH1 0x0 DUP1 REVERT JUMPDEST PUSH1 0x0 DUP1 REVERT JUMPDEST PUSH1 0x0 PUSH20 0xFFFFFFFFFFFFFFFFFFFFFFFFFFFFFFFFFFFFFFFF DUP3 AND SWAP1 POP SWAP2 SWAP1 POP JUMP JUMPDEST PUSH1 0x0 PUSH2 0x52D DUP3 PUSH2 0x502 JUMP JUMPDEST SWAP1 POP SWAP2 SWAP1 POP JUMP JUMPDEST PUSH2 0x53D DUP2 PUSH2 0x522 JUMP JUMPDEST DUP2 EQ PUSH2 0x548 JUMPI PUSH1 0x0 DUP1 REVERT JUMPDEST POP JUMP JUMPDEST PUSH1 0x0 DUP2 CALLDATALOAD SWAP1 POP PUSH2 0x55A DUP2 PUSH2 0x534 JUMP JUMPDEST SWAP3 SWAP2 POP POP JUMP JUMPDEST PUSH1 0x0 DUP2 SWAP1 POP SWAP2 SWAP1 POP JUMP JUMPDEST PUSH2 0x573 DUP2 PUSH2 0x560 JUMP JUMPDEST DUP2 EQ PUSH2 0x57E JUMPI PUSH1 0x0 DUP1 REVERT JUMPDEST POP JUMP JUMPDEST PUSH1 0x0 DUP2 CALLDATALOAD SWAP1 POP PUSH2 0x590 DUP2 PUSH2 0x56A JUMP JUMPDEST SWAP3 SWAP2 POP POP JUMP JUMPDEST PUSH1 0x0 DUP1 PUSH1 0x40 DUP4 DUP6 SUB SLT ISZERO PUSH2 0x5AD JUMPI PUSH2 0x5AC PUSH2 0x4F8 JUMP JUMPDEST JUMPDEST PUSH1 0x0 PUSH2 0x5BB DUP6 DUP3 DUP7 ADD PUSH2 0x54B JUMP JUMPDEST SWAP3 POP POP PUSH1 0x20 PUSH2 0x5CC DUP6 DUP3 DUP7 ADD PUSH2 0x581 JUMP JUMPDEST SWAP2 POP POP SWAP3 POP SWAP3 SWAP1 POP JUMP JUMPDEST PUSH1 0x0 DUP2 MLOAD SWAP1 POP SWAP2 SWAP1 POP JUMP JUMPDEST PUSH1 0x0 DUP3 DUP3 MSTORE PUSH1 0x20 DUP3 ADD SWAP1 POP SWAP3 SWAP2 POP POP JUMP JUMPDEST PUSH1 0x0 JUMPDEST DUP4 DUP2 LT ISZERO PUSH2 0x610 JUMPI DUP1 DUP3 ADD MLOAD DUP2 DUP5 ADD MSTORE PUSH1 0x20 DUP2 ADD SWAP1 POP PUSH2 0x5F5 JUMP JUMPDEST PUSH1 0x0 DUP5 DUP5 ADD MSTORE POP POP POP POP JUMP JUMPDEST PUSH1 0x0 PUSH1 0x1F NOT PUSH1 0x1F DUP4 ADD AND SWAP1 POP SWAP2 SWAP1 POP JUMP JUMPDEST PUSH1 0x0 PUSH2 0x638 DUP3 PUSH2 0x5D6 JUMP JUMPDEST PUSH2 0x642 DUP2 DUP6 PUSH2 0x5E1 JUMP JUMPDEST SWAP4 POP PUSH2 0x652 DUP2 DUP6 PUSH1 0x20 DUP7 ADD PUSH2 0x5F2 JUMP JUMPDEST PUSH2 0x65B DUP2 PUSH2 0x61C JUMP JUMPDEST DUP5 ADD SWAP2 POP POP SWAP3 SWAP2 POP POP JUMP JUMPDEST PUSH32 0x4E487B7100000000000000000000000000000000000000000000000000000000 PUSH1 0x0 MSTORE PUSH1 0x21 PUSH1 0x4 MSTORE PUSH1 0x24 PUSH1 0x0 REVERT JUMPDEST PUSH1 0x2 DUP2 LT PUSH2 0x6A6 JUMPI PUSH2 0x6A5 PUSH2 0x666 JUMP JUMPDEST JUMPDEST POP JUMP JUMPDEST PUSH1 0x0 DUP2 SWAP1 POP PUSH2 0x6B7 DUP3 PUSH2 0x695 JUMP JUMPDEST SWAP2 SWAP1 POP JUMP JUMPDEST PUSH1 0x0 PUSH2 0x6C7 DUP3 PUSH2 0x6A9 JUMP JUMPDEST SWAP1 POP SWAP2 SWAP1 POP JUMP JUMPDEST PUSH2 0x6D7 DUP2 PUSH2 0x6BC JUMP JUMPDEST DUP3 MSTORE POP POP JUMP JUMPDEST PUSH2 0x6E6 DUP2 PUSH2 0x560 JUMP JUMPDEST DUP3 MSTORE POP POP JUMP JUMPDEST PUSH1 0x0 PUSH1 0x60 DUP4 ADD PUSH1 0x0 DUP4 ADD MLOAD DUP5 DUP3 SUB PUSH1 0x0 DUP7 ADD MSTORE PUSH2 0x709 DUP3 DUP3 PUSH2 0x62D JUMP JUMPDEST SWAP2 POP POP PUSH1 0x20 DUP4 ADD MLOAD PUSH2 0x71E PUSH1 0x20 DUP7 ADD DUP3 PUSH2 0x6CE JUMP JUMPDEST POP PUSH1 0x40 DUP4 ADD MLOAD PUSH2 0x731 PUSH1 0x40 DUP7 ADD DUP3 PUSH2 0x6DD JUMP JUMPDEST POP DUP1 SWAP2 POP POP SWAP3 SWAP2 POP POP JUMP JUMPDEST PUSH1 0x0 PUSH1 0x20 DUP3 ADD SWAP1 POP DUP2 DUP2 SUB PUSH1 0x0 DUP4 ADD MSTORE PUSH2 0x756 DUP2 DUP5 PUSH2 0x6EC JUMP JUMPDEST SWAP1 POP SWAP3 SWAP2 POP POP JUMP JUMPDEST PUSH1 0x0 DUP1 REVERT JUMPDEST PUSH1 0x0 DUP1 REVERT JUMPDEST PUSH1 0x0 DUP1 REVERT JUMPDEST PUSH1 0x0 DUP1 DUP4 PUSH1 0x1F DUP5 ADD SLT PUSH2 0x783 JUMPI PUSH2 0x782 PUSH2 0x75E JUMP JUMPDEST JUMPDEST DUP3 CALLDATALOAD SWAP1 POP PUSH8 0xFFFFFFFFFFFFFFFF DUP2 GT ISZERO PUSH2 0x7A0 JUMPI PUSH2 0x79F PUSH2 0x763 JUMP JUMPDEST JUMPDEST PUSH1 0x20 DUP4 ADD SWAP2 POP DUP4 PUSH1 0x1 DUP3 MUL DUP4 ADD GT ISZERO PUSH2 0x7BC JUMPI PUSH2 0x7BB PUSH2 0x768 JUMP JUMPDEST JUMPDEST SWAP3 POP SWAP3 SWAP1 POP JUMP JUMPDEST PUSH1 0x0 DUP1 PUSH1 0x0 PUSH1 0x40 DUP5 DUP7 SUB SLT ISZERO PUSH2 0x7DC JUMPI PUSH2 0x7DB PUSH2 0x4F8 JUMP JUMPDEST JUMPDEST PUSH1 0x0 DUP5 ADD CALLDATALOAD PUSH8 0xFFFFFFFFFFFFFFFF DUP2 GT ISZERO PUSH2 0x7FA JUMPI PUSH2 0x7F9 PUSH2 0x4FD JUMP JUMPDEST JUMPDEST PUSH2 0x806 DUP7 DUP3 DUP8 ADD PUSH2 0x76D JUMP JUMPDEST SWAP4 POP SWAP4 POP POP PUSH1 0x20 PUSH2 0x819 DUP7 DUP3 DUP8 ADD PUSH2 0x581 JUMP JUMPDEST SWAP2 POP POP SWAP3 POP SWAP3 POP SWAP3 JUMP JUMPDEST PUSH32 0x4E487B7100000000000000000000000000000000000000000000000000000000 PUSH1 0x0 MSTORE PUSH1 0x22 PUSH1 0x4 MSTORE PUSH1 0x24 PUSH1 0x0 REVERT JUMPDEST PUSH1 0x0 PUSH1 0x2 DUP3 DIV SWAP1 POP PUSH1 0x1 DUP3 AND DUP1 PUSH2 0x86A JUMPI PUSH1 0x7F DUP3 AND SWAP2 POP JUMPDEST PUSH1 0x20 DUP3 LT DUP2 SUB PUSH2 0x87D JUMPI PUSH2 0x87C PUSH2 0x823 JUMP JUMPDEST JUMPDEST POP SWAP2 SWAP1 POP JUMP JUMPDEST PUSH2 0x88C DUP2 PUSH2 0x522 JUMP JUMPDEST DUP3 MSTORE POP POP JUMP JUMPDEST PUSH1 0x0 DUP3 DUP3 MSTORE PUSH1 0x20 DUP3 ADD SWAP1 POP SWAP3 SWAP2 POP POP JUMP JUMPDEST PUSH32 0x496E76616C6964204C697374204D657373616765000000000000000000000000 PUSH1 0x0 DUP3 ADD MSTORE POP JUMP JUMPDEST PUSH1 0x0 PUSH2 0x8D9 PUSH1 0x14 DUP4 PUSH2 0x892 JUMP JUMPDEST SWAP2 POP PUSH2 0x8E4 DUP3 PUSH2 0x8A3 JUMP JUMPDEST PUSH1 0x20 DUP3 ADD SWAP1 POP SWAP2 SWAP1 POP JUMP JUMPDEST PUSH1 0x0 PUSH1 0x40 DUP3 ADD SWAP1 POP PUSH2 0x904 PUSH1 0x0 DUP4 ADD DUP5 PUSH2 0x883 JUMP JUMPDEST DUP2 DUP2 SUB PUSH1 0x20 DUP4 ADD MSTORE PUSH2 0x915 DUP2 PUSH2 0x8CC JUMP JUMPDEST SWAP1 POP SWAP3 SWAP2 POP POP JUMP JUMPDEST PUSH32 0x4E487B7100000000000000000000000000000000000000000000000000000000 PUSH1 0x0 MSTORE PUSH1 0x41 PUSH1 0x4 MSTORE PUSH1 0x24 PUSH1 0x0 REVERT JUMPDEST PUSH1 0x0 DUP2 SWAP1 POP DUP2 PUSH1 0x0 MSTORE PUSH1 0x20 PUSH1 0x0 KECCAK256 SWAP1 POP SWAP2 SWAP1 POP JUMP JUMPDEST PUSH1 0x0 PUSH1 0x20 PUSH1 0x1F DUP4 ADD DIV SWAP1 POP SWAP2 SWAP1 POP JUMP JUMPDEST PUSH1 0x0 DUP3 DUP3 SHL SWAP1 POP SWAP3 SWAP2 POP POP JUMP JUMPDEST PUSH1 0x0 PUSH1 0x8 DUP4 MUL PUSH2 0x9AE PUSH32 0xFFFFFFFFFFFFFFFFFFFFFFFFFFFFFFFFFFFFFFFFFFFFFFFFFFFFFFFFFFFFFFFF DUP3 PUSH2 0x971 JUMP JUMPDEST PUSH2 0x9B8 DUP7 DUP4 PUSH2 0x971 JUMP JUMPDEST SWAP6 POP DUP1 NOT DUP5 AND SWAP4 POP DUP1 DUP7 AND DUP5 OR SWAP3 POP POP POP SWAP4 SWAP3 POP POP POP JUMP JUMPDEST PUSH1 0x0 DUP2 SWAP1 POP SWAP2 SWAP1 POP JUMP JUMPDEST PUSH1 0x0 PUSH2 0x9F5 PUSH2 0x9F0 PUSH2 0x9EB DUP5 PUSH2 0x560 JUMP JUMPDEST PUSH2 0x9D0 JUMP JUMPDEST PUSH2 0x560 JUMP JUMPDEST SWAP1 POP SWAP2 SWAP1 POP JUMP JUMPDEST PUSH1 0x0 DUP2 SWAP1 POP SWAP2 SWAP1 POP JUMP JUMPDEST PUSH2 0xA0F DUP4 PUSH2 0x9DA JUMP JUMPDEST PUSH2 0xA23 PUSH2 0xA1B DUP3 PUSH2 0x9FC JUMP JUMPDEST DUP5 DUP5 SLOAD PUSH2 0x97E JUMP JUMPDEST DUP3 SSTORE POP POP POP POP JUMP JUMPDEST PUSH1 0x0 SWAP1 JUMP JUMPDEST PUSH2 0xA38 PUSH2 0xA2B JUMP JUMPDEST PUSH2 0xA43 DUP2 DUP5 DUP5 PUSH2 0xA06 JUMP JUMPDEST POP POP POP JUMP JUMPDEST JUMPDEST DUP2 DUP2 LT ISZERO PUSH2 0xA67 JUMPI PUSH2 0xA5C PUSH1 0x0 DUP3 PUSH2 0xA30 JUMP JUMPDEST PUSH1 0x1 DUP2 ADD SWAP1 POP PUSH2 0xA49 JUMP JUMPDEST POP POP JUMP JUMPDEST PUSH1 0x1F DUP3 GT ISZERO PUSH2 0xAAC JUMPI PUSH2 0xA7D DUP2 PUSH2 0x94C JUMP JUMPDEST PUSH2 0xA86 DUP5 PUSH2 0x961 JUMP JUMPDEST DUP2 ADD PUSH1 0x20 DUP6 LT ISZERO PUSH2 0xA95 JUMPI DUP2 SWAP1 POP JUMPDEST PUSH2 0xAA9 PUSH2 0xAA1 DUP6 PUSH2 0x961 JUMP JUMPDEST DUP4 ADD DUP3 PUSH2 0xA48 JUMP JUMPDEST POP POP JUMPDEST POP POP POP JUMP JUMPDEST PUSH1 0x0 DUP3 DUP3 SHR SWAP1 POP SWAP3 SWAP2 POP POP JUMP JUMPDEST PUSH1 0x0 PUSH2 0xACF PUSH1 0x0 NOT DUP5 PUSH1 0x8 MUL PUSH2 0xAB1 JUMP JUMPDEST NOT DUP1 DUP4 AND SWAP2 POP POP SWAP3 SWAP2 POP POP JUMP JUMPDEST PUSH1 0x0 PUSH2 0xAE8 DUP4 DUP4 PUSH2 0xABE JUMP JUMPDEST SWAP2 POP DUP3 PUSH1 0x2 MUL DUP3 OR SWAP1 POP SWAP3 SWAP2 POP POP JUMP JUMPDEST PUSH2 0xB01 DUP3 PUSH2 0x5D6 JUMP JUMPDEST PUSH8 0xFFFFFFFFFFFFFFFF DUP2 GT ISZERO PUSH2 0xB1A JUMPI PUSH2 0xB19 PUSH2 0x91D JUMP JUMPDEST JUMPDEST PUSH2 0xB24 DUP3 SLOAD PUSH2 0x852 JUMP JUMPDEST PUSH2 0xB2F DUP3 DUP3 DUP6 PUSH2 0xA6B JUMP JUMPDEST PUSH1 0x0 PUSH1 0x20 SWAP1 POP PUSH1 0x1F DUP4 GT PUSH1 0x1 DUP2 EQ PUSH2 0xB62 JUMPI PUSH1 0x0 DUP5 ISZERO PUSH2 0xB50 JUMPI DUP3 DUP8 ADD MLOAD SWAP1 POP JUMPDEST PUSH2 0xB5A DUP6 DUP3 PUSH2 0xADC JUMP JUMPDEST DUP7 SSTORE POP PUSH2 0xBC2 JUMP JUMPDEST PUSH1 0x1F NOT DUP5 AND PUSH2 0xB70 DUP7 PUSH2 0x94C JUMP JUMPDEST PUSH1 0x0 JUMPDEST DUP3 DUP2 LT ISZERO PUSH2 0xB98 JUMPI DUP5 DUP10 ADD MLOAD DUP3 SSTORE PUSH1 0x1 DUP3 ADD SWAP2 POP PUSH1 0x20 DUP6 ADD SWAP5 POP PUSH1 0x20 DUP2 ADD SWAP1 POP PUSH2 0xB73 JUMP JUMPDEST DUP7 DUP4 LT ISZERO PUSH2 0xBB5 JUMPI DUP5 DUP10 ADD MLOAD PUSH2 0xBB1 PUSH1 0x1F DUP10 AND DUP3 PUSH2 0xABE JUMP JUMPDEST DUP4 SSTORE POP JUMPDEST PUSH1 0x1 PUSH1 0x2 DUP9 MUL ADD DUP9 SSTORE POP POP POP JUMPDEST POP POP POP POP POP POP JUMP JUMPDEST PUSH1 0x0 DUP2 SLOAD PUSH2 0xBD7 DUP2 PUSH2 0x852 JUMP JUMPDEST PUSH2 0xBE1 DUP2 DUP7 PUSH2 0x5E1 JUMP JUMPDEST SWAP5 POP PUSH1 0x1 DUP3 AND PUSH1 0x0 DUP2 EQ PUSH2 0xBFC JUMPI PUSH1 0x1 DUP2 EQ PUSH2 0xC12 JUMPI PUSH2 0xC45 JUMP JUMPDEST PUSH1 0xFF NOT DUP4 AND DUP7 MSTORE DUP2 ISZERO ISZERO PUSH1 0x20 MUL DUP7 ADD SWAP4 POP PUSH2 0xC45 JUMP JUMPDEST PUSH2 0xC1B DUP6 PUSH2 0x94C JUMP JUMPDEST PUSH1 0x0 JUMPDEST DUP4 DUP2 LT ISZERO PUSH2 0xC3D JUMPI DUP2 SLOAD DUP2 DUP10 ADD MSTORE PUSH1 0x1 DUP3 ADD SWAP2 POP PUSH1 0x20 DUP2 ADD SWAP1 POP PUSH2 0xC1E JUMP JUMPDEST DUP1 DUP9 ADD SWAP6 POP POP POP JUMPDEST POP POP POP SWAP3 SWAP2 POP POP JUMP JUMPDEST PUSH1 0x0 DUP2 PUSH1 0x0 SHR SWAP1 POP SWAP2 SWAP1 POP JUMP JUMPDEST PUSH1 0x0 PUSH1 0xFF DUP3 AND SWAP1 POP SWAP2 SWAP1 POP JUMP JUMPDEST PUSH1 0x0 PUSH2 0xC7B PUSH2 0xC76 DUP4 PUSH2 0xC4E JUMP JUMPDEST PUSH2 0xC5B JUMP JUMPDEST SWAP1 POP SWAP2 SWAP1 POP JUMP JUMPDEST PUSH1 0x0 DUP2 SWAP1 POP SWAP2 SWAP1 POP JUMP JUMPDEST PUSH1 0x0 PUSH2 0xC9F PUSH2 0xC9A DUP4 PUSH2 0xC4E JUMP JUMPDEST PUSH2 0xC82 JUMP JUMPDEST SWAP1 POP SWAP2 SWAP1 POP JUMP JUMPDEST PUSH1 0x0 PUSH1 0x60 DUP4 ADD PUSH1 0x0 DUP1 DUP5 ADD DUP6 DUP4 SUB PUSH1 0x0 DUP8 ADD MSTORE PUSH2 0xCC3 DUP4 DUP3 PUSH2 0xBCA JUMP JUMPDEST SWAP3 POP POP PUSH1 0x1 DUP5 ADD SLOAD SWAP1 POP PUSH2 0xCD6 DUP2 PUSH2 0xC68 JUMP JUMPDEST PUSH2 0xCE3 PUSH1 0x20 DUP8 ADD DUP3 PUSH2 0x6CE JUMP JUMPDEST POP PUSH1 0x2 DUP5 ADD SLOAD SWAP1 POP PUSH2 0xCF4 DUP2 PUSH2 0xC8C JUMP JUMPDEST PUSH2 0xD01 PUSH1 0x40 DUP8 ADD DUP3 PUSH2 0x6DD JUMP JUMPDEST POP DUP2 SWAP3 POP POP POP SWAP3 SWAP2 POP POP JUMP JUMPDEST PUSH1 0x0 PUSH1 0x20 DUP3 ADD SWAP1 POP DUP2 DUP2 SUB PUSH1 0x0 DUP4 ADD MSTORE PUSH2 0xD27 DUP2 DUP5 PUSH2 0xCA6 JUMP JUMPDEST SWAP1 POP SWAP3 SWAP2 POP POP JUMP INVALID LOG2 PUSH5 0x6970667358 0x22 SLT KECCAK256 PUSH25 0xA7D8F53E210620C2D2128B21952D1F6B44A0975B1F58086AAE SSTORE MOD PUSH29 0xE7159B64736F6C63430008120033000000000000000000000000000000 "},"gasEstimates":{"creation":{"codeDepositCost":"685800","executionCost":"721","totalCost":"686521"},"external":{"addItemtoList(string,uint256)":"infinite","checkTodoListItem(address,uint256)":"infinite","getTodo(address,uint256)":"infinite"}},"methodIdentifiers":{"addItemtoList(string,uint256)":"6b43dabd","checkTodoListItem(address,uint256)":"985ecf6d","getTodo(address,uint256)":"3fb20178"}},"storageLayout":{"storage":[{"astId":28,"contract":"Todo.sol:TodoContract","label":"Todos","offset":0,"slot":"0","type":"t_mapping(t_address,t_mapping(t_uint256,t_struct(TodoList)21_storage))"}],"types":{"t_address":{"encoding":"inplace","label":"address","numberOfBytes":"20"},"t_enum(ListSituation)13":{"encoding":"inplace","label":"enum TodoContract.ListSituation","numberOfBytes":"1"},"t_mapping(t_address,t_mapping(t_uint256,t_struct(TodoList)21_storage))":{"encoding":"mapping","key":"t_address","label":"mapping(address => mapping(uint256 => struct TodoContract.TodoList))","numberOfBytes":"32","value":"t_mapping(t_uint256,t_struct(TodoList)21_storage)"},"t_mapping(t_uint256,t_struct(TodoList)21_storage)":{"encoding":"mapping","key":"t_uint256","label":"mapping(uint256 => struct TodoContract.TodoList)","numberOfBytes":"32","value":"t_struct(TodoList)21_storage"},"t_string_storage":{"encoding":"bytes","label":"string","numberOfBytes":"32"},"t_struct(TodoList)21_storage":{"encoding":"inplace","label":"struct TodoContract.TodoList","members":[{"astId":15,"contract":"Todo.sol:TodoContract","label":"ListText","offset":0,"slot":"0","type":"t_string_storage"},{"astId":18,"contract":"Todo.sol:TodoContract","label":"isComplete","offset":0,"slot":"1","type":"t_enum(ListSituation)13"},{"astId":20,"contract":"Todo.sol:TodoContract","label":"id","offset":0,"slot":"2","type":"t_uint256"}],"numberOfBytes":"96"},"t_uint256":{"encoding":"inplace","label":"uint256","numberOfBytes":"32"}}},"userdoc":{"kind":"user","methods":{},"version":1}}